:020000040800F2
:10000000901300205902000853270008B11E000871
:1000100051270008BD0A0008F92F00080000000061
:100020000000000000000000000000009D0100082A
:10003000BF0A000800000000F1010008B92900080B
:1000400073020008730200087302000873020008BC
:1000500073020008730200087302000873020008AC
:10006000730200087302000873020008730200089C
:10007000730200087302000873020008730200088C
:10008000730200087302000873020008730200087C
:10009000730200087302000873020008730200086C
:1000A00073020008730200087D2A0008730200082A
:1000B000730200087302000873020008730200084C
:1000C000730200087302000873020008730200083C
:1000D000730200087302000873020008730200082C
:1000E000730200087302000873020008730200081C
:1000F000730200087302000873020008730200080C
:1001000073020008730200087302000873020008FB
:1001100073020008730200087302000873020008EB
:1001200073020008730200087302000873020008DB
:1001300073020008730200087302000873020008CB
:1001400073020008730200087302000873020008BB
:1001500073020008730200087302000873020008AB
:10016000730200087302000873020008730200089B
:100170007302000873020008000000000000000085
:100180007302000873020008DFF80CD000F0DEFAFA
:1001900000480047713B0008901300202B4B196862
:1001A0000868B0E8F04F80F30988BFF36F8F4FF015
:1001B000000080F3118870470000000006480068C6
:1001C000006880F3088862B661B6BFF34F8FBFF353
:1001D0006F8F00DF00BF00BF08ED00E0DFF80C000C
:1001E000016841F470010160704700BF88ED00E0D4
:1001F000EFF30980BFF36F8F144B1A681EF0100FD6
:1002000008BF20ED108A20E9F04F106008B44FF0CD
:10021000500080F31188BFF34F8FBFF36F8F04F04E
:10022000B1FA4FF0000080F3118808BC1968086823
:10023000B0E8F04F1EF0100F08BFB0EC108A80F34A
:100240000988BFF36F8F704700BF00BF44010020D3
:10025000EFF30580704700000648804706480047D6
:10026000FEE7FEE7FEE7FEE7FEE7FEE7FEE7FEE766
:10027000FEE7FEE7392A0008890100082DE9F05F52
:100280000546002092469B46884606468146402405
:100290001BE0284641464746224600F08FF8534669
:1002A0005A46C01A914110D311461846224600F012
:1002B00076F82D1A67EB01084F46224601200021EF
:1002C00000F06DF817EB00094E41201EA4F1010467
:1002D000DFDC484631462A464346BDE8F09F40EA07
:1002E00001039B0703D009E008C9121F08C0042AB4
:1002F000FAD203E011F8013B00F8013B521EF9D29B
:100300007047D2B201E000F8012B491EFBD27047C2
:100310000022F6E710B513460A4604461946FFF7D1
:10032000F0FF204610BD421E12F8013F002BFBD10A
:1003300011F8013B02F8013B002BF9D17047421C38
:1003400010F8011B0029FBD1801A704700F0004211
:1003500030F000400AD0C10D01F56071C0F3160005
:1003600042EA0151C208400711437047002001468C
:10037000704730B50B46014600202022012409E0D9
:1003800021FA02F59D4205D303FA02F5491B04FA4E
:1003900002F52844151EA2F10102F1DC30BD202A2D
:1003A00004DB203A00FA02F1002070479140C2F1CC
:1003B000200320FA03F3194390407047202A04DBFE
:1003C000203A21FA02F00021704721FA02F3D040CE
:1003D000C2F1200291400843194670472DE9FE4FB3
:1003E000804681EA0300C00F0C46009021F00041D6
:1003F00023F00045B8EB0200A94105D24046214652
:1004000090461C460B46024623F00040104347D05E
:10041000270DC7F30A00C3F30A510290401A019056
:1004200040286BDAC3F3130040F4801B0098924617
:1004300020B10023D2EB030A63EB0B0B0198594662
:10044000C0F140025046FFF7AAFF06460D4650464F
:100450005946019A00F08CF910EB08006141002424
:1004600087EA115284EAE7731A4340D0009A62B3D4
:10047000019A012A4FEA075215DC001B61EB0201C9
:100480004FF0004202EA0752CDE90042001C41F55C
:10049000801132462B4600F08CF903B0BDE8F08F96
:1004A00040462146F9E7001B61EB0201001C41F5C3
:1004B000801300185B412018A2F5001747EB0301D9
:1004C00040EAD570B6196D4111E06D084FEA360665
:1004D00045EAC0754FEA0752001B61EB0201001CA0
:1004E00041F5801149084FEA300000195141324668
:1004F0002B4603B0BDE8F04F00F04CB90098012244
:1005000040000023D0EB020263EBE0730098214629
:100510004FEAE074B8EB000061EB0401E9E783F017
:1005200000435BE781F0004158E72DE9FE4F81EA87
:10053000030404F0004421F0004100944FF0000B4C
:1005400023F0004350EA01045ED052EA03045BD07A
:10055000C3F30A54C1F30A552C44A4F2F3340194B2
:10056000A0FB0254C1F3130141F48011C3F3130340
:1005700043F4801301FB024400FB034E840A970AF4
:1005800044EA815447EA8357A4FB076802958D0A21
:1005900005FB07854FEA932C04FB0C542705029DAD
:1005A0004FEA065847EA1637B5EB08056EEB070C1D
:1005B000870E920E47EA811742EA8312A7FB0201D7
:1005C000B6EB0B0164EB00042B0D43EA0C335E1811
:1005D00044EB1C50DA465146E7FB0201C5F3130415
:1005E0004FEA0B3343EA14534FEA0432019C43EAC7
:1005F0000603A4F10C040294009CCDE900B400F0C1
:10060000D8F803B0BDE8F08F00200146F9E72DE9E6
:10061000F04D81EA030404F0004B21F0004514463C
:100620004FF0000A23F0004150EA050220D054EABE
:1006300001021DD0C5F30A570246C5F31303C1F3E7
:100640001300C1F30A5640F4801543F48013A7EB5E
:100650000608101BD64608F2FD3873EB050002D3DE
:1006600008F1010801E092185B41B8F1000F03DACC
:1006700000200146BDE8F08D00204FF480110646B1
:1006800084460EE0171B73EB050705D3121B63EBC3
:10069000050306434CEA010C49084FEA3000921862
:1006A0005B4150EA0107EDD152EA030012D082EA21
:1006B000040083EA0501084305D0101BAB4106D2B4
:1006C0000122002306E000224FF0004302E06FF019
:1006D000010253101AEB06004CEB085110EB0A0014
:1006E00041EB0B01BDE8F04D00F054B8C1F30A52E4
:1006F000C1F3130140F2FF3341F480119A4202DA50
:1007000000200146704740F233439A42A2F233423E
:1007100002DC5242FFF752BEFFF741BE30B5041E65
:1007200071F1000404DB4FF00044404264EB01012E
:10073000141E73F1000405DB1C464FF000435242C7
:1007400063EB0403994208BF904230BD064C074D4D
:1007500006E0E06840F0010394E807009847103491
:10076000AC42F6D3FFF714FDAC520008CC5200089F
:10077000202A06DBCB17203A41FA02F043EAE07365
:1007800006E041FA02F3D040C2F120029140084352
:100790001946704710B5141E73F1000408DA401CA6
:1007A00041F1000192185B411A4301D120F0010090
:1007B00010BD2DE9F04D92469B4611B1B1FA81F280
:1007C00002E0B0FA80F220329046FFF7E8FD0446DE
:1007D0000F4640EA0A0041EA0B0153465A460843D5
:1007E00013D0114653EA010019D0C8F14002504617
:1007F000FFF7E4FD05460E46504659464246FFF7D0
:10080000CEFD084305D0012004E020463946BDE86E
:10081000F08D0020054346EAE0762C4337430A98E2
:100820006305E40AA0EB08000022FD0A44EA4754ED
:100830000A3002D500200146E9E701051019694197
:10084000DDE9084500196941BDE8F04DA2E770B542
:100850008C1810F8015B15F0070301D110F8013B6B
:100860002A1106D110F8012B03E010F8016B01F8F2
:10087000016B5B1EF9D12B0705D40023521E0DD44A
:1008800001F8013BFAE710F8013BCB1A921C03E098
:1008900013F8015B01F8015B521EF9D5A142D8D3D0
:1008A000002070BD04490968002903D0096B0029A4
:1008B00000D008477047000000000020044800688E
:1008C000002803D04068002800D00047704700008F
:1008D0000000002070B5084D0024A86880476A28F1
:1008E00001D0012405E005480560296844F2304044
:1008F0008847204670BD00007400002000000020E2
:1009000004490968002903D00969002900D0084773
:10091000704700000000002004480068002803D051
:100920004068002800D00047704700000400002005
:1009300004490968002903D0096B002900D0084741
:10094000704700000400002070B5074D0124A8681E
:1009500080476A2806D105480560296844F23C4072
:1009600088470024204670BDA80000200400002015
:1009700004490968002903D00969002900D0084703
:10098000704700000400002010B5074CBE206168CD
:100990008847BC2801D0012010BD044804602168AC
:1009A000BE208847002010BD18000020080000204D
:1009B000024800688168BE20084700000800002047
:1009C00004480068002803D04068002800D0004791
:1009D000704700000C00002004490968002903D07A
:1009E000096B002900D00847704700000C00002068
:1009F000E0B50F4D0026A86880473D2801D00126AC
:100A000013E00C4800210560582060F3070761F3EC
:100A10000F27384661F31740082161F31F60402219
:100A2000214662F307012A6890473046E0BD000086
:100A3000340000200C00002004490968002903D07C
:100A40000969002900D00847704700000C00002009
:100A500010B5074CBA2061688847B12801D0012041
:100A600010BD044804602168BA208847002010BDEA
:100A70006800002010000020024800688168BA2049
:100A8000084700001000002010B5074C0548206002
:100A900001F0AEFE206800210268BE2090470020D1
:100AA00010BD00002400002014000020024800684F
:100AB000C168BE200847000014000020FEE7704710
:100AC0002DE9F84FDFF898B100234FF0010C4FF0FB
:100AD000030A4FF00F090BF1040EB9E00CFA03F40E
:100AE000224070D04D68022D01D0122D0ED1DD08AC
:100AF00000EB8508D8F820505E07F70E09FA07F6D4
:100B0000B5430E69BE402E43C8F8206007685E00FA
:100B100091F804800AFA06F508F00308AF4308FAD2
:100B200006F848EA0708C0F800804F68012F05D092
:100B3000022F03D0112F01D0122F13D1D0F808802B
:100B4000CF6828EA0508B74047EA08078760D0F869
:100B500004800F7928EA0408C7F300179F4047EA8A
:100B600008074760D1F804806FEA0807BF0706D17D
:100B7000C76AA743C8F3C0049C403C43C462C4682E
:100B8000AC438D68B5402543C5604C68E4005ED534
:100B9000344C256E45F001052566246E23F00305CF
:100BA00004F001040094304C2E19B4689D072F0FF7
:100BB00009FA07F5AC43B0F1904F05D02B4DA84290
:100BC00004D101251CE042E0002519E0284DA8428F
:100BD00001D1022514E0274DA84201D103250FE0E1
:100BE000254DA84201D104250AE0244DA84201D197
:100BF000052505E0224DA84201D1062500E0072584
:100C0000BD402543B560DBF800405D464E68944327
:100C1000F60300D514432C60DEF8004075464E689C
:100C20009443B60300D514432C600D4D08352C6851
:100C30004E689443F60200D514432C60084D0C35E1
:100C40002C684E689443B60200D514432C605B1C9C
:100C50000A6832FA03F57FF441AFBDE8F88F00006F
:100C60000004014000100240000001400004004860
:100C700000080048000C004800100048001400481C
:100C8000001800480069084000D0012070470AB1F0
:100C900081617047816270470148006870470000B9
:100CA0001801002090F84120202A24D190F84020FB
:100CB000012A20D0012280F84020242280F84120FF
:100CC0000268136823F0010313600268136823F4B9
:100CD00080531360026813680B43136001680A684D
:100CE00042F001020A60202180F84110002180F8C2
:100CF0004010084670470220704710B5040013D01A
:100D0000242084F841002068016821F0010101607D
:100D1000204600F0C9F90020606484F8410044F8DE
:100D2000300FA074207410BD4FF400706064012077
:100D300010BD000070B5040004D094F841000025F7
:100D400028B109E04FF400706064012070BD84F8A0
:100D50004050204600F0A9F9242084F84100206882
:100D6000016821F0010101606068216820F0706075
:100D700008612068816821F400418160E0680128F1
:100D8000A06807D040F4044021688860E068022829
:100D900003D006E040F40040F6E721684FF400601D
:100DA000486020684168114A114341602068C16869
:100DB00021F40041C160D4E904010843A16940EA7B
:100DC00001202168C860D4E9070108432168086050
:100DD0002068016841F0010101606564202084F809
:100DE0004100256384F84250002070BD008000025D
:100DF0002DE9FF4F83B00446DDE9108790F84100EC
:100E0000DDF848909A469346202873D15FEA08009F
:100E100014D09FB194F8400001286BD0012084F8D1
:100E20004000FFF739FF0646012200901923D10345
:100E3000204601F00BF9002870D103E04FF4007058
:100E400060646BE0222084F84100402084F8420076
:100E500000256564C4F8248067856563CDE9009644
:100E600053465A462046049901F076F810B184F8AA
:100E7000405053E0618D3448FF274FF080784FF0A9
:100E8000007AFF2904D927853A464346009005E0B9
:100E9000618D2185009094F82820534620460499BE
:100EA00001F0BEF84B46002204212046009601F0D6
:100EB000CDF898BB2068416A606A421C626201708A
:100EC000208D401E81B22185608D401E6085608D21
:100ED000D8B1D1B94B46002280212046009601F0BE
:100EE000B5F8D8B9608DFF2805D927853A4643461D
:100EF000009506E026E0608D2085009594F8282076
:100F000053462046049901F08BF8608D0028C9D122
:100F100032464946204601F0C5F818B1012007B015
:100F2000BDE8F08F21682020C86121684A68074B1E
:100F30001A404A6084F8410084F8425084F84050D6
:100F40000020ECE70220EAE70024008000E800FE31
:100F50002DE9FF4F83B00446DDE9108790F841008A
:100F6000DDF848909A469346202870D15FEA080041
:100F700014D09FB194F84000012868D0012084F873
:100F80004000FFF789FE0646012200901923D10395
:100F9000204601F05BF800286DD103E04FF40070AB
:100FA000606468E0212084F84100402084F8420019
:100FB00000256564C4F8248067856563CDE90096E3
:100FC00053465A462046049900F0F8FF10B184F8C1
:100FD000405050E0608DFF274FF080784FF0007A4E
:100FE000FF2804D927853A464346009505E0608DE1
:100FF0002085009594F8282053462046049901F056
:101000000FF832464946204601F072F898BB606AF4
:10101000411C6162216800788862608D401E608595
:10102000208D401E80B22085618DD9B1D0B94B464C
:10103000002280212046009601F008F8D8B9608D82
:10104000FF2805D927853A464346009506E026E065
:10105000608D2085009594F82820534620460499F9
:1010600000F0DEFF608D0028CBD132464946204695
:1010700001F018F818B1012007B0BDE8F08F216821
:101080002020C86121684A68064B1A404A6084F8EB
:10109000410084F8425084F840500020ECE70220E0
:1010A000EAE7000000E800FE704770470248016868
:1010B000491C0160704700001801002010B5032092
:1010C00000F0AEF8002000F005F800F03DF8002038
:1010D00010BD000000B5014687B000221A2000F0C4
:1010E0007FF81A2000F070F81348016E41F4802157
:1010F0000166006E05A900F480200690684600F0A5
:1011000065F900F099F90D490D4AB0FBF1F10D4870
:10111000491E0260416040F2E7320021C0E903212C
:10112000816000F054FC10B1012007B000BD0548FB
:1011300000F06AFCF9E700000010024040420F0096
:1011400000480140A80200201E4808B5016E41F089
:1011500001010166016E01F001010091816D41F014
:1011600080518165806D00F080500090032000F078
:1011700057F8002211466FF00B0000F031F8002202
:1011800011466FF00A0000F02BF8002211466FF0B4
:10119000090000F025F800221146501F00F020F849
:1011A00000221146101F00F01BF800220F21901E94
:1011B00000F016F800220F21BDE80840501E00F094
:1011C0000FB800000010024000F01F020121914002
:1011D0004009800000F1E020C0F8001170470000D5
:1011E000F0B40E4B1B680C46C3F30223C3F1070592
:1011F000042D00D90425191D072901D2002300E080
:10120000DB1E012606FA05F1491E214099409E4049
:10121000761E16403143F0BC01F09CBA0CED00E0A4
:10122000064900F0070208684FF6FF03184040EA3D
:101230000220034A10430860704700000CED00E0F4
:101240000000FA051549B0F5007F0868C0F3412099
:1012500009D0022805D0086820F4C06040F48060FE
:101260000860002070470128FBD0086820F4C060A7
:1012700040F4007008600A480A4A0068B0FBF2F0C7
:101280003222504300E0401E10B14A695205FAD4A0
:1012900048694005E5D50320704700000070004014
:1012A0001C01002040420F000248006800F4C060AA
:1012B00070470000007000402DE9F0470F46050020
:1012C00058D03E4E306800F00700B84209D230686E
:1012D00020F0070038433060306800F00700B84263
:1012E00048D12878364CC0072CD06868032811D024
:1012F000022812D0216898B1490500293ADAA1687C
:1013000021F003010143A160FFF7C6FC804641F2D2
:10131000883910E021688901EFE721688903ECE74B
:101320008907EAE7FFF7B8FCA0EB0801494502D9B5
:101330000320BDE8F087A068696800F00C00B0EBFE
:10134000810FEFD12878800705D5A068A96820F023
:10135000F0000843A060306800F00700B8420BD9E5
:10136000306820F0070038433060306800F0070034
:10137000B84201D00120DCE72878400705D5A068F5
:10138000E96820F4E0600843A0602878000706D5EB
:10139000A068296920F4605040EAC100A06000F014
:1013A0005BF8A168074AC1F30311515CC8400649C4
:1013B00008600020FFF78EFE0020BAE70020024000
:1013C00000100240FC5100081C0100200F220260A6
:1013D0000C4A936803F003034360936803F0F0033F
:1013E0008360936803F4E063C36092684FF4E06342
:1013F00003EAD20202610448006800F007000860B6
:1014000070470000001002400020024001480068C0
:10141000704700001C0100200448054900688968E5
:10142000044AC1F30221515CC84070471C010020EE
:10143000001002403C5200080448054900688968D1
:10144000044AC1F3C221515CC84070471C0100200E
:10145000001002403C52000830B52D4900231846C8
:101460008A682C4C12F00C0F4FEA640514D08A687D
:10147000C2F38102032A04D1CA6802F00302012ADE
:101480000AD08A68C2F38102012A19D08A68C2F39D
:101490008102022A16D016E00A68120704D4D1F895
:1014A0009420C2F3032202E00A68C2F303121A4B2B
:1014B00053F822308A6812F00C0F04D1184602E06B
:1014C000204600E028468A68C2F38102032A1DD123
:1014D000C868CA6800F00300C2F30212521C022856
:1014E00004D0032805D0B3FBF2F004E0B4FBF2F023
:1014F00001E0B5FBF2F0CA68C968C2F306225043A6
:10150000C1F34161491C4900B0FBF1F030BD00005E
:10151000001002400024F4000C5200082DE9F843AA
:1015200004007DD02078FF4DC0065DD5A86810F07E
:101530000C0F0AD0A0690028286873D040F0010081
:101540002860FFF7A9FB064655E02868800702D50A
:10155000A0690028E5D0216A2868000703D528681B
:1015600000F0F00004E0D5F89400F02202EA101038
:10157000814216D9084601F0FDF8002850D12868AC
:1015800040F0080028602868216A20F0F000084335
:1015900028606868E16920F47F4040EA01206860C3
:1015A00015E0286840F0080028602868216A20F0CB
:1015B000F000084328606868E16920F47F4040EA51
:1015C00001206860206A01F0D5F80028D6D1FFF725
:1015D00043FFA968D44AC1F30311515CC840D34901
:1015E00008600020FFF776FD2CE000BFFFF754FBFA
:1015F000801B02287ED828688007F7D5286840F02D
:10160000080028602868216A20F0F000084328605C
:101610006868E16920F47F4040EA0120686011E0D9
:10162000B2E0FFE720F001002860FFF735FB064637
:1016300005E000BFFFF730FB801B0228DAD82868DE
:101640008007F7D42078C00748D0A868C0F381008D
:1016500002281DD0A868C0F38100032803D1E868E0
:10166000C043800714D06068B0F5803F17D0B0F554
:10167000A02F286817D020F480302860286820F434
:10168000802028606068E0B1FFF706FB064614E0A2
:101690002868800322D56068002875D01EE028687D
:1016A00040F48030EDE740F480202860F7E700BF89
:1016B000FFF7F2FA801B64289CD828688003F7D5CE
:1016C0000CE0FFF7E9FA064605E000BFFFF7E4FA91
:1016D000801B64288ED828688003F7D42078800780
:1016E00042D5A868C0F38100012816D0A868C0F3CD
:1016F000810000E0A9E0032804D1E86800F00300BD
:1017000002280AD0E068002828681DD040F48070C4
:101710002860FFF7C1FA06460BE0286840050BD5A4
:10172000E0680028B9D007E0FFF7B6FA801B02286E
:1017300084D828684005F7D56868217C20F0F850E7
:1017400040EA016068600FE020F480702860FFF7D5
:10175000A3FA064605E000BFFFF79EFA801B0228A9
:1017600073D828684005F7D42078000729D5606928
:101770000028D5F8940013D040F00100C5F894007B
:10178000FFF78AFA064606E0FBE000BFFFF784FA9F
:10179000801B022859D8D5F894008007F6D510E0B0
:1017A00020F00100C5F89400FFF776FA064604E041
:1017B000FFF772FA801B022847D8D5F894008007FB
:1017C000F6D42078400763D5A86D0026C00008D461
:1017D000A86D40F08050A865A86D012600F08050EB
:1017E000009053480168C90511D40168804641F44E
:1017F00080710160FFF750FA074604E0FFF74CFAEA
:10180000C01B022821D8D8F80000C005F6D5A06872
:10181000012815D00528D5F8900017D020F0010038
:10182000C5F89000D5F8900020F00400C5F89000AD
:10183000A06841F28838C8B1FFF72EFA074610E0D9
:10184000D5F8900040F00100F0E777E040F00400A8
:10185000C5F89000F4E700BFFFF71EFAC11B414531
:101860006CD8D5F890008007F6D50CE0FFF714FA95
:10187000074604E0FFF710FAC11B414579D8D5F8B7
:1018800090008007F6D41EB1A86D20F08050A865A6
:10189000A06AE0B3A968C1F38101032972D00228CC
:1018A000286820F08070286011D02868000106D4D4
:1018B0002868800003D4E86820F00300E860E86846
:1018C0001C490840E860FFF7E7F9044654E0FFF7D9
:1018D000E3F9064605E000BFFFF7DEF9801B0228AA
:1018E00047D828688001F7D4206BE16A00011038DE
:1018F0000843616BA26B0902120941EA42410843A5
:10190000A18F0D4A490802EB4151084300E036E03F
:1019100094F840104908120102EB41610843E86065
:1019200028680CE000100240FC5100081C01002057
:1019300000700040FFFFEEFE0000E0FF19E040F005
:1019400080702860E86840F08070E860FFF7A4F9D4
:10195000044604E0FFF7A0F9001B022809D8286814
:101960008001F7D50BE000BFFFF796F9001B0228B6
:1019700002D90320BDE8F88328688001F4D4002050
:10198000F8E7FFE70120F5E74FF0E02104280869B8
:1019900003D020F004000861704740F00400FAE72B
:1019A00010B5401EB0F1807F01D3012010BD4FF073
:1019B000E02460610F21601700F0CCFE0020A061E0
:1019C00007202061002010BD70477047704710B598
:1019D000040003D094F83D0010B107E0012010BDD1
:1019E000002084F83C00204600F00CF8022084F827
:1019F0003D00211D206801F047F8012084F83D00DA
:101A0000002010BD704700000168CA6842F0010262
:101A1000CA600068826807490A40062A08D08268BE
:101A20000A40B2F5803F03D0016841F00101016036
:101A30000020704707000100704770B50446006839
:101A400001694FF00005C943890715D4C168C9432E
:101A5000890711D4E91E016101202077206880697F
:101A60008007204602D0FFF7E7FF04E000F0A7F868
:101A7000204600F0A5F8257720680169C943490789
:101A800017D4C168C943490713D46FF00401016139
:101A9000022020772068806910F4407F204602D021
:101AA000FFF7CAFF04E000F08AF8204600F088F84B
:101AB000257720680169C943090716D4C168C9435D
:101AC000090712D46FF00801016104202077206813
:101AD000C0698007204602D0FFF7AEFF04E000F0A7
:101AE0006EF8204600F06CF8257720680169C9433C
:101AF000C90617D4C168C943C90613D46FF01001D1
:101B00000161082020772068C06910F4407F2046DA
:101B100002D0FFF791FF04E000F051F8204600F0FA
:101B20004FF8257720680169C943C90708D1C16802
:101B3000C943C90704D1891E0161204600F042F85B
:101B400020680169C943090609D4C168C943090667
:101B500005D46FF0800101612046FFF736FF206851
:101B60000169C943C90509D4C168C943090605D437
:101B70006FF4807101612046FFF726FF206801693C
:101B8000C943490609D4C168C943490605D46FF061
:101B900040010161204600F027F820680169C9432F
:101BA00089060BD4C168C943890607D46FF02001A8
:101BB00001612046BDE87040FFF708BF70BD704767
:101BC0007047000006498A68012A02D14A68521CFF
:101BD0004A6000680349884201D1FFF767BA70473D
:101BE000DC00002000480140704710B5040003D01D
:101BF00094F8710010B107E0012010BD002084F8B6
:101C00007000204600F026F8242084F87100206837
:101C1000016821F001010160204601F027F8012848
:101C2000EBD0606A10B1204600F08EFF206841685A
:101C300021F4904141602068816821F02A0181608F
:101C40002068016841F0010101602046BDE81040B4
:101C500000F0DEBF70472DE9F843044690F87100AC
:101C60001F4616460D4620284BD1C5B1BEB194F88B
:101C70007000012845D0012084F870004FF0000862
:101C8000C4F87480212084F87100FFF705F8A4F8E7
:101C900050608146A4F852604FF4805615E0012050
:101CA000BDE8F8838021204601F030F9D8B9A0685A
:101CB000B04201D12069C0B115F8010B2168088537
:101CC000B4F85200401EA4F85200B4F852004B463B
:101CD0004FF0000200970028E4D14FF04001204669
:101CE00001F014F930B10320DAE735F8020BC0F344
:101CF0000800E3E7202084F8710084F87080002059
:101D0000CEE70220CCE710B50446C0B2202100F097
:101D100075FD20F0030040F08502E0B2BDE8104000
:101D2000202100F089BD00002DE9F8430446C0B22F
:101D300002236A46B02100F073FD9DF800000223E3
:101D400045089DF801006A464FEA5008E0B2B62106
:101D500000F066FDBDF90060E0B202236A46BA21D8
:101D600000F05EFDBDF90070E0B202236A46A821D2
:101D700000F056FDBDF900001849801B00EE100A66
:101D8000A8EB0500F8EEC00A00EE100AB81BB8EE8A
:101D9000C00A60EE800A00EE100AB8EEC00A80EEBB
:101DA000801A00EE105AB8EEC00A31EE000AB2EE08
:101DB000041A60EE010A10EE900A884202DDDFED9F
:101DC000080A06E0F5EEC00AF1EE10FA01D2DFEDE6
:101DD000050A80EE810ABDE8F883000000007A441D
:101DE00000007A440000000010B5044600F000FD39
:101DF000E0B2BDE810400F2100F000BD10B5044670
:101E0000C0B2202100F0FAFC20F0030040F085026F
:101E1000E0B2BDE81040202100F00EBD2DE9F843EE
:101E20000446C0B202236A46B22100F0F9FCE0B2D7
:101E3000352100F0E3FC9DF8001000F0030241EAB8
:101E400002219DF8012000F00C0042EA8010CD1024
:101E50004FEAE008E0B204236A46BC2100F0E0FC4F
:101E6000BDF90060BDF90270E0B202236A46AA2102
:101E700000F0D6FCBDF90000801B00EE100AA8EBB4
:101E80000500F8EEC00A00EE100AB81BB8EEC00A52
:101E900060EE800A00EE100AB8EEC00A80EE801AEA
:101EA00000EE105AB8EEC00A31EE000ABDE8F88321
:101EB000FEE701688A69D243920701D400228A6250
:101EC00000688169C943C90703D0816941F00101F4
:101ED000816170472DE9F0410446006890460E4646
:101EE0008069C043C00633D400252027206880695C
:101EF000C043800615D5701CF8D0FEF7CDFEA0EBD0
:101F00000800B04201D8002EF0D154F8440F40F040
:101F1000200044F804096770A57025700120BDE811
:101F2000F08121681020C8612068C7612046FFF752
:101F3000C0FF54F8440B4168064A114041602068D4
:101F400040F0040044F820096777A5772577E5E796
:101F50000020E4E700E800FE2DE9F84304461646B9
:101F6000DDE9089714489846DAB20090002320462D
:101F700000F056F83A464946204600F0B9F8B8B99C
:101F8000F5B2B8F1010F08D02168300A88623A46EC
:101F90004946204600F0ACF850B9206885624B46AF
:101FA000002240212046009700F050F8002800D081
:101FB0000120BDE8F8830000002000802DE9F843EF
:101FC0000446164615489846DDE90897DAB2C3027A
:101FD0000090204600F024F83A464946204600F09A
:101FE00087F8B8B9F5B2B8F1010F08D02168300A06
:101FF00088623A464946204600F07AF850B920688F
:1020000085624B46002280212046009700F01EF892
:10201000002800D00120BDE8F883000000200080E7
:10202000F0B50568059C68684FF48066064FC1F3FB
:10203000090106EA545641EA02413E431943B043BE
:10204000214308436860F0BDFF63FF032DE9F041C1
:102050001D4617460E460446DDF8188008E0681C49
:1020600006D0FEF719FEA0EB0800A8420BD855B128
:102070002068806936EA000012D00020B842EED015
:102080000020BDE8F08154F8440F40F0200044F8EF
:102090000409202060700020A07020700120F0E76B
:1020A0000120EBE770B516460D4604460DE03246BA
:1020B00029462046FFF70EFF08B1012070BDFEF74C
:1020C000EBFD801BA84207D835B120688069C0436A
:1020D0008006ECD4002070BD54F8440F40F020007E
:1020E00044F80409202060700020A0702070E4E70C
:1020F00070B516460D4604460FE032462946204686
:10210000FFF7E8FE08B1012070BD681C05D0FEF79E
:10211000C3FD801BA84207D835B120688069C04341
:102120008007EAD4002070BD54F8440F40F020002E
:1021300044F80409202060700020A0702070E2E7BD
:1021400010B50446FEF7D9FD2046BDE8104000F06A
:1021500001B8000010B504460B4820600B486060D1
:1021600000200121C4E9020120616061E061206278
:10217000204600F00DF82046FEF7DCFD2046BDE8C5
:1021800010400021FEF78EBD0058004081267000EF
:1021900030B5204C87B0E06C40F00200E064E06CA9
:1021A0001D4D00F0020005904FF440600090122099
:1021B00001900120029003200390042004906946BE
:1021C0002846FEF77DFC69462846FEF779FCA06D9F
:1021D00040F48000A065A06D00F480000590A06B25
:1021E00040F48000A063A06B20F48000A063002274
:1021F0000F212120FEF7F4FF2120FEF7E5FF00224A
:102200000F212220FEF7ECFF2220FEF7DDFF07B0B2
:1022100030BD00000010024000040048FEB50D462D
:102220000646DDE908014FF47A748DE8130029466B
:102230003046FEF7DDFD040003D029463046FFF7A7
:102240007FFF2046FEBDFEB50D460646DDE90801CE
:102250004FF47A748DE8130029463046FEF778FE75
:10226000040003D029463046FFF76AFF2046FEBD32
:1022700010B522213C2000F0C1FA40F003022221D7
:10228000BDE810403C2000F0D7BA70B504460D46BA
:10229000C2B220213C2000F0CFFAC4F30722212152
:1022A0003C2000F0C9FAC4F3074222213C2000F090
:1022B000C3FA220E23213C2000F0BEFAEAB2BDE8A8
:1022C000704024213C2000F0B7BA10B5044622210A
:1022D0003C2000F093FA20F020020CB142F02002E2
:1022E0002221BDE810403C2000F0A6BA10B500F055
:1022F0007FFA0F21BDE810403C2000F07FBA0000BB
:1023000070B505462DED028B86B000249FED248A22
:1023100021213C2000F072FA0646062303AAA821D8
:102320003C2000F07DFA03A80DF1040200EB440309
:1023300010F814105B7801EB032122F81410641CD0
:10234000E4B2032CF2D316F0600006D0202807D0A8
:10235000402808D060280BD108E09FED128A07E0E2
:102360009FED118A04E09FED118A01E09FED108A34
:102370005FF0000132F9110000EE100AB8EEC00A59
:1023800020EE080ABDEEC00A10EE100A25F8110072
:10239000491CC9B20329EDD306B0BDEC028B70BD58
:1023A00000000000295C0F3EE17A943EF628DC3EF6
:1023B000E17A143F10B50446C0B21A2100F01EFAAB
:1023C00040F00102E0B21A2100F036FAE0B210212A
:1023D00000F014FA20F0720040F03202E0B2BDE8E2
:1023E0001040102100F028BAFFF7E4BF10B50446F2
:1023F00000F0FEF9E0B2BDE810400F2100F0FEB998
:10240000F8B50024074625464FEA0D0605F12800D9
:10241000C1B2F8B200F0F2F970556D1CEDB2032DA7
:10242000F4D30020C200315C91402143401CC0B273
:102430000C460328F6D3200201D541F07F446420E6
:102440004443E01704EB1050001300EE100A9FED18
:10245000031AF8EEC00A80EE810AF8BD0000C842F7
:1024600010B51021D42000F0C9F920F0F00210219D
:10247000BDE81040D42000F0DFB910B504461021AB
:10248000D42000F0BBF920F0FC02E1B20A43102195
:10249000D42000F0D1F91221D42000F0AFF920F0BF
:1024A000440242EA14221221BDE81040D42000F078
:1024B000C3B910B504461521D42000F09FF920F0CF
:1024C00010020CB142F010021521BDE81040D420DA
:1024D00000F0B2B910B500F08BF90F21BDE8104043
:1024E000D42000F08BB9000070B505462DED028BAD
:1024F00086B000249FED248A1021D42000F07EF9BC
:102500000646062303AA2821D42000F089F903A84F
:102510000DF1040200EB440310F814105B7801EB9A
:10252000032122F81410641CE4B2032CF2D316F039
:102530000C0006D004280DD0082805D00C280BD19B
:1025400005E09FED128A07E09FED118A04E09FED00
:10255000118A01E09FED108A5FF0000132F911004D
:1025600000EE100AB8EEC00A20EE080ABDEEC00A5E
:1025700010EE100A25F81100491CC9B20329EDD349
:1025800006B0BDEC028B70BD0000000023DB793D7E
:1025900023DBF93D23DB793E23DBF93E10B5112126
:1025A000D42000F02BF920F0F0021121BDE81040FA
:1025B000D42000F041B910B504461121D42000F018
:1025C0001DF920F0FC02E1B20A431121D42000F0F1
:1025D00033F91221D42000F011F920F0440242EA2C
:1025E00014221221BDE81040D42000F025B910B506
:1025F00004461621D42000F001F920F080020CB12D
:1026000042F080021621BDE81040D42000F014B939
:1026100010B500F0EDF80F21BDE81040D42000F017
:10262000EDB8000070B505462DED028B86B0002494
:102630009FED238A1121D42000F0E0F806460623FE
:1026400003AA2221D42000F0EBF803A80DF1040224
:1026500000EB440310F814105B7801EB032122F81F
:102660001410641CE4B2032CF2D316F00C0006D054
:10267000042807D0082808D00C280BD108E09FEDCB
:10268000118A07E09FED108A04E09FED108A01E0B7
:102690009FED0F8A5FF0000132F9110000EE100A81
:1026A00005EB8100491CB8EEC00AC9B2032920EE2F
:1026B000080A80ED000AEFD306B0BDEC028B70BDB6
:1026C0000000000000000C4100008C4100000C42A2
:1026D00000008C4270B51B4886B0C16C41F004010B
:1026E000C164C16C01F004010591C16C41F00101AC
:1026F000C164C16C01F001010591C16C41F002019E
:10270000C164C06C104E00F002004FF4804505908B
:10271000002229463046FEF7BAFA00246810CDE9B7
:102720000004694609480294FEF7CAF901200095A1
:10273000CDE90104694630460394FEF7C1F906B0BD
:1027400070BD00000010024000040048000800486E
:10275000FEE770470907090E002806DA00F00F00AF
:1027600000F1E02080F8141D704700F1E02080F8AF
:1027700000147047F8B51C4D06460024A86DC00033
:1027800002D5FEF791FD0DE0A86D40F08050A865E0
:10279000A86D00F080500090FEF786FDA96D21F035
:1027A0008051A965B0F5007F04D0802E07D94FF085
:1027B00003040AE0802E08D9A02E01D804E001D13C
:1027C000022402E0702E00D101240848016821F0A3
:1027D000070121430160006800F00700A04201D01A
:1027E0000120F8BD0020F8BD00100240002002408A
:1027F0000148FFF7AFBC0000800100200EB50022A9
:102800008DF80820012302AACDE900230A460146DB
:102810000248FFF703FD9DF808000EBD800100206F
:102820001CB5CDE900230A46014601230148FFF704
:10283000F5FC1CBD8001002007B582B0012304AA6D
:10284000CDE900230A4601460248FFF7FCFC05B02B
:1028500000BD000080010020A4B014225349684646
:10286000FDF73DFD51491422143105A8FDF737FD50
:102870004E49142228310AA8FDF731FD4B49142294
:102880003C310FA8FDF72BFD48491422503114A804
:10289000FDF725FD45491422643119A8FDF71FFDF8
:1028A0004249142278311EA8FDF719FD404F414CD2
:1028B0004FF4005801254FF000094646414638467E
:1028C000FEF7E0F90028F8D1A56031463846FEF75A
:1028D000D9F90028F9D0C4F80890616840F6B830FA
:1028E0004E46814208DB606B01F0F5F9A06901F00A
:1028F000F2F92661E66057E0607850B101281DD0FA
:10290000022826D003282DD0042834D0052841D011
:102910004AE0207801280BD000211EA8256101F093
:10292000C3F9A0610021684601F0BEF9E0612CE026
:10293000FDF7F2FF206B01F0CEF9F3E7FEF740F868
:10294000E06901F0C8F9002105A801F0ADF92062A5
:102950001BE0206A01F0BFF900210AA801F0A4F9E8
:10296000606212E0606A01F0B6F900210FA801F080
:102970009BF9E06209E0FDF7A1FFE06A01F0ABF925
:10298000002114A801F090F9A06260636078401CF7
:10299000607009E0A06A01F09EF9002119A801F019
:1029A00083F9206360636670666086E77051000893
:1029B00000080048DC00002001F06CB910B596B0AA
:1029C000102000900120002460210690CDE90741ED
:1029D0000221CDE90A100C9028200D900720CDE9A6
:1029E0000E0168461091FEF799FD00B1FEE70F2039
:1029F00011900320CDE912041494042111A8159418
:102A0000FEF75AFC00B1FEE74FF40070FEF71AFC27
:102A100000B1FEE7FEF7FAFC4FF47A71B0FBF1F07B
:102A2000FEF7BEFF0420FEF7AFFF00220F21501E6D
:102A3000FEF7D6FB16B010BD0D48016841F47001D9
:102A400001600C48016841F00101016000218160D2
:102A50000268094B1A4002608214C260026822F4C4
:102A60008022026081610249C0038039086070479A
:102A700088ED00E000100240FFFFF6EA0148FEF793
:102A8000DCBF0000A80200202DE9F0470268264BB9
:102A9000264D274E274F284C4FF0804A984209D0A8
:102AA000504507D0A84205D0B04203D0B84201D06B
:102AB000A04204D122F0700C4A6842EA0C02DFF80E
:102AC0007CC0DFF87C80DFF87C9098420FD05045C6
:102AD0000DD0A8420BD0B04209D0B84207D0A042D6
:102AE00005D0604503D0404501D0484503D122F4CC
:102AF0004075CA682A434D6922F080022A43026069
:102B00008A68C2620A688262984207D0A04205D0F1
:102B1000604503D0404501D0484501D109690163B2
:102B200001214161BDE8F087002C01400004004014
:102B300000080040000C004000340140004001400B
:102B4000004401400048014090F82410C90706D015
:102B500001684A68836A22F400321A434A6090F896
:102B60002410890706D501684A68C36A22F48032B6
:102B70001A434A6090F82410490706D501684A684C
:102B8000036B22F480221A434A6090F8241009074C
:102B900006D501684A68436B22F400421A434A6032
:102BA00090F82410C90606D501688A68836B22F460
:102BB00080521A438A6090F82410890606D501686D
:102BC0008A68C36B22F400521A438A6090F824107A
:102BD000490611D501684A68036C22F480121A4331
:102BE0004A60016CB1F5801F06D101684A68436CE8
:102BF00022F4C0021A434A6090F82410090606D550
:102C000001684A68806C22F4002202434A607047DF
:102C1000F8B5002604464667FEF73EF805462068EC
:102C200000686FF07E47000708D52B4600224FF45E
:102C300000112046009700F069F960B9206800682B
:102C400040070AD52B4600224FF48001204600970A
:102C500000F05CF908B10320F8BD202084F8710071
:102C600084F8720084F870600020F8BD2DE9F0410E
:102C70000446016880682369E66918436369102582
:102C8000002733431843954A0B68954E334003435E
:102C90000B6020684168E36821F4405119434160AA
:102CA0002168A069914201D0236A18438B6823F4FC
:102CB000306303438B608B4B21688B4899420DD165
:102CC000D0F8880010F0030006D001285AD002285E
:102CD00056D0032859D157E0012556E0834B99423D
:102CE0000BD1D0F8880010F00C0047D0042849D050
:102CF000082845D00C2848D146E07D4B99420BD19D
:102D0000D0F8880010F0300038D010283AD02028B1
:102D100036D0302839D137E0764B99420BD1D0F8F4
:102D2000880010F0C00029D040282BD0802827D060
:102D3000C0282AD128E0704B99420ED1D0F88800E3
:102D400010F440701AD0B0F5807F1BD0B0F5007F32
:102D500016D0B0F5407F18D116E0914215D1D0F8C9
:102D6000880010F4406009D0B0F5806F0AD0B0F54B
:102D7000006F05D0B0F5406F07D105E0002504E0F5
:102D8000022502E0042500E008255C4B00264FF4F4
:102D9000004091423DD135B1022D07D0042D07D01E
:102DA000082D10D107E0FEF737FB03E0184602E0DC
:102DB000FEF752FBA8B3626802EB4201814202D8DF
:102DC000B0EB023F01D9012775E0DFF834815DB136
:102DD000022D0CD0042D13D0082DF4D15008290554
:102DE000401846F1000105E0FEF716FB0AE0500826
:102DF0004449F5E70023FDF741FAA0F5407156E09C
:102E0000FEF72AFB6268010E030250081818714190
:102E1000F0E7E1694FF6EF7881422FD1092DD2D248
:102E200000E048E0DFE805F0060920052305050578
:102E30002600C8E7FEF7F0FA01E0FEF7FDFA4100D0
:102E4000D4F8040001EB5001B1FBF0F080B2A0F126
:102E500010014145B7D84FF6F0710140C0F3420070
:102E600001432068C16026E027496068EAE7FEF771
:102E7000F3FAE4E74FF480316068E3E7092DA2D26A
:102E8000DFE805F006091E052205050525009AE77D
:102E9000FEF7C2FA01E0FEF7CFFA0146606801EBE7
:102EA000500100BFB1FBF0F080B2A0F1100141452C
:102EB00089D82168C860266638466666BDE8F08114
:102EC000606803EB5001EDE7FEF7C6FAE5E76168DD
:102ED00000EB5100B0FBF1F0E6E70000008000409D
:102EE000F369FFEF00380140001002400044004049
:102EF00000480040004C0040005000400024F40016
:102F0000FFFC0F00000024F40048E8012DE9F04127
:102F1000984617460E460446069D1DE0681C1BD0C9
:102F20002DB1FDF7B9FEA0EB0800A84214D9206826
:102F3000016821F4D07101602068816821F00101ED
:102F40008160202084F8710084F87200002084F8E9
:102F500070000320BDE8F0812068C06936EA0000F7
:102F600004D00020B842D9D00020F3E70120F9E7CF
:102F700010B51E4886B01C4901604FF4E131416034
:102F8000002181600C22C160C0E904128161C1612D
:102F9000016241621648C26C42F00202C264C26C15
:102FA00002F002020592026E42F480420266006E56
:102FB000104C00F480400590402000900220CDE9A4
:102FC000021001900720049069462046FDF778FD25
:102FD0008020009069462046FDF772FD0348FEF709
:102FE00004FE06B010BD0000003801403002002091
:102FF0000010024000040048FEE700000FB4084B38
:1030000010B504A902AA039800F0CEF8044602A95C
:10301000002000F060FC204610BC5DF814FB0000AE
:10302000D738000802E008C8121F08C1002AFAD1E8
:1030300070477047002001E001C1121F002AFBD138
:10304000704700002DE9FF5FDDE90220010DDDF88A
:1030500038B0024318D044F61050A1F2FF3141437A
:103060000D140F98012820D0A5EB0B00401C5FEA3F
:10307000000A4FF00004474EDFF81C91A04650466E
:1030800016D5CAF1000728E00F98012443A20128B1
:1030900008D0002100980F9BC0E90021C0E902433D
:1030A000BDE8FF9F6FEA0B01F4E7CBF10000DEE71C
:1030B000074612E0F80707D0224633464046494605
:1030C000FDF733FA804689462246334610461946B4
:1030D000FDF72BFA04460E467F10002FEAD1DDE9FA
:1030E0000201BAF1000F42464B4602DAFDF71DFA23
:1030F00001E0FDF78CFA04460E460022284BFDF74E
:103100000DFB03D84FF0FF30014607E00022254BAE
:1031100020463146FDF762F9FDF7E8FA102409E090
:10312000002C0ADB0A220023FDF7A8F8019B3032AD
:103130001A55641E50EA0102F2D1641C019AC4F1CE
:10314000110314440F9A012A03D0012208430DD120
:103150000AE0084304D000204FF0110B0F9080E7E5
:10316000A3EB0B056D1E0DE05B4504DD4FF0000287
:1031700005F1010504E003DA4FF00002A5F10105B5
:10318000002AECD000980F99C0E90231C0E900454F
:1031900086E70000000024400000F03F30000000FF
:1031A0000000F0430000E03F2DE9FF4F95B09B4643
:1031B0008946064600250FE2252877D100242746B8
:1031C000F84A0121059400E0044316F8013F203B32
:1031D00001FA03F01042F7D130782A2811D06FF0AD
:1031E0002F033078A0F13002092A16D8059A44F04E
:1031F000020402EB820203EB42021044761C0590AB
:10320000EFE759F8042B0592002A03DA504244F400
:103210000054059044F00204761C30782E2816D114
:1032200016F8010F44F004042A280DD06FF02F0285
:103230003078A0F13003092B09D807EB870302EBA4
:103240004303C718761CF3E759F8047B761C3078E3
:103250006C280FD006DC4C2817D068280DD06A28BF
:1032600014D104E0742810D07A280FD10DE044F472
:1032700000140AE044F4801401E044F4401472782D
:10328000824202D104F58014761C761C30786628C0
:103290000BD013DC582877D009DC002875D04528DE
:1032A000F6D04628F4D047281AD19DE118E06328CB
:1032B00035D0642879D0652812D195E1702873D073
:1032C00008DC6728F1D069286FD06E280DD06F28F0
:1032D00006D1B5E073282CD0752875D0782874D025
:1032E0005A46179990476D1C75E1C4F302500228A5
:1032F00009D003280DD0D9F8001004280DD00D6096
:1033000009F1040967E1D9F80010EA17C1E9005290
:10331000F6E7D9F800100D80F2E70D70F0E719F824
:10332000041B8DF8001000208DF80100EA460120F2
:1033300003E059F804AB4FF0FF3061074FF0000194
:1033400002D40DE008F101018846B9420FDA804548
:10335000F8DB1AF808100029F4D108E008F101019F
:1033600088468142FADB1AF808100029F6D1059840
:103370005B46A0EB080721463846179A00F094FAFE
:10338000284400EB080507E04DE029E10DE01AF8BC
:10339000010B5A4617999047B8F10108F7D25B46DE
:1033A00021463846179A13E142E00A220092C4F3FC
:1033B00002524FF0000A022A08D059F804CB032A1F
:1033C0004FEAEC710AD00DE029E02AE009F107018B
:1033D00021F00702F2E802C1914609E00FFA8CFCE5
:1033E0004FEAEC71042A03D14FFA8CFC4FEAEC71DE
:1033F000002907DA0A460021DCF1000C61EB02012A
:103400002D2202E0220504D52B228DF80420012272
:1034100003E0E20701D02022F7E7904659E00A21B5
:1034200002E010220DE010214FF0000A00910BE0A5
:1034300010224FF0000A44F004040827009203E031
:1034400008224FF0000A0092C4F30252022A05D06B
:1034500059F804CB0021032A08D009E009F107013B
:1034600021F00702F2E802C1914605E01FFA8CFC48
:10347000042A01D10CF0FF0C4FF00008220728D5D8
:10348000702806D0009B83F0100353EA0A0305D08E
:103490000EE040228DF80420012208E05CEA0102DF
:1034A00006D030228DF804208DF8050002229046C7
:1034B000009B83F0080353EA0A030AD15CEA010285
:1034C00001D1620705D530228DF804204FF00108A4
:1034D0007F1E582804D034A003900EA802900DE05F
:1034E00036A0F9E753466046009AFCF7C7FE8446CB
:1034F0000398825C0298401E029002705CEA010010
:10350000F0D1029806A9081A00F1200A600702D536
:1035100024F4803400E00127574502DDA7EB0A00C0
:1035200000E0002000EB0A01009005984144401A99
:103530000590E00306D45B462146179A059800F0F3
:10354000B3F90544002706E001A85A46C05D179963
:1035500090476D1C7F1C4745F6DBE0030CD55B46AE
:103560002146179A059800F09FF9054404E03020A1
:103570005A46179990476D1C0099481E00900029E3
:10358000F5DC08E0029802995A460078491C02913D
:10359000179990476D1CBAF10001AAF1010AF1DCFC
:1035A00065E1000009280100303132333435363707
:1035B000383961626364656600000000303132337F
:1035C000343536373839414243444546000000001F
:1035D00000F058F90544761C307800287FF4ECADF3
:1035E00019B02846BDE8F08F620700D4062709F11C
:1035F000070222F0070CFCE80223E14603F0004832
:103600005FEA080C02D00FF2702C0DE05FEA045C58
:1036100002D50FF2682C07E05FEAC47C02D00FF2FB
:10362000602C01E0AFF2700C4FF0FF3823F0004344
:10363000CDF850C065280CD006DC452809D04628B6
:103640001DD047283DD13DE0662818D067287ED19F
:1036500038E00021112F01DB112000E0781CCDE9BA
:10366000000106A90EA8FFF7EDFCDDE90F010E9A97
:1036700003910021009207F1010A04914DE04FF0FF
:1036800000400097CDE9011006A90EA8FFF7DAFC6B
:10369000DDE90F0203920E9B11990022DDF80CA0C8
:1036A0000093049211B9791C00EB010AB7EB0A00F0
:1036B00004D4C0F1FF3007F1010A0490AAEB07001F
:1036C000019044E0012F00DA01270021112F01DDD4
:1036D000112000E03846CDE9000106A90EA8FFF749
:1036E000B1FCDDE90F010E9A0391002104910092D3
:1036F000BA4621070CD40399514500DA8A46BAF13B
:10370000010F05DD009AAAF10101515C302908D0B2
:10371000B84202DA10F1040F06DA0121CDE90110F6
:1037200015E0AAF10101E9E7002805DC049901444C
:103730000491AAEB000102E0411C514500DD8A46DC
:103740000499401A401C01904FF00040029020075D
:1037500004D40198504501DBCDF8048000208DF899
:103760004F0002980DF14F07B0F1004F25D02B20EC
:103770000E9002984FF0020800280CDA40420290A6
:103780002D200E9007E00A210298FCF7F2FD30315F
:10379000029007F8011DB8F10001A8F10108F2DC60
:1037A00002980028EFD1791E0E980870307800F04A
:1037B000200040F0450007F8020D12A8C01B00F1E0
:1037C00007081498007800B1012000EB0A01019865
:1037D00001EBE07105984144401A401E0590E0035A
:1037E00006D45B462146179A059800F05DF805441B
:1037F0001498007818B15A46179990476D1CE00349
:1038000024D55B462146179A059800F04DF80544EB
:103810001CE00498002807DBDDE90301884203DD92
:103820000098405C179901E0179930205A4690475C
:10383000049805F10105401C04900198401E019078
:1038400004D12E205A46179990476D1CBAF10001F9
:10385000AAF1010ADDDC05E017F8010B5A461799B9
:1038600090476D1CB8F10001A8F10108F4DC5B463B
:103870002146179A0598ABE62D0000002B000000AA
:10388000200000002DE9F041044600251E461746A1
:10389000880404D405E039462020B0476D1C641E1E
:1038A000F9D52846BDE8F0812DE9F0410446002510
:1038B0001E469046C80301D5302700E02027880423
:1038C00004D505E041463846B0476D1C641EF9D565
:1038D0002846BDE8F0810A68531C0B6010707047E1
:1038E000A6B0FCF7F7FF0120FDF70AF81A4C4FF0DD
:1038F000FF35642000F062F92946A06B00F096F9CC
:1039000023A8FCF7CFFFBDF98C2014A16846FFF770
:1039100075FBBDF98E2016A119A8FFF76FFBBDF945
:10392000902015A11EA8FFF769FB1548FCF707FDBD
:1039300001461348FCF7ECFC69461148FCF7F3FC20
:1039400019A90F48FCF7EFFC1EA90D48FCF7EBFC8A
:10395000A06B00F043F9CCE7DC0000204163636515
:103960006C65726F6D6574657220583A256420002D
:10397000593A2564200000005A3A2564200A0000C4
:10398000CC010020A6B0FCF7DFFF0120FCF7F0FF20
:10399000234C4FF496754FF0FF36284600F00EF991
:1039A0003146A06B00F042F923A8FCF7C1FF239831
:1039B000FCF7CCFC41EC100B1AA153EC102B684621
:1039C000FFF71CFB2498FCF7C1FC41EC100B1AA17B
:1039D00053EC102B19A8FFF711FB2598FCF7B6FC48
:1039E00041EC100B16A153EC102B1EA8FFF706FBA1
:1039F0001648FCF7A4FC01461448FCF789FC69460C
:103A00001248FCF790FC19A91048FCF78CFC1EA981
:103A10000E48FCF788FCA06B00F0E0F8BDE7000062
:103A2000DC0000204779726F73636F706520583A2D
:103A3000252E326620000000593A252E32662000DD
:103A40005A3A252E3266200A00000000CC010020E0
:103A500086B0FCF799FF134C4FF0FF35C82000F0FB
:103A6000ADF82946A06B00F0E1F8FCF7A1FF10EEDD
:103A7000100AFCF76BFC41EC100B0BA153EC102B64
:103A80006846FFF7BBFA0D48FCF759FC01460B48A6
:103A9000FCF73EFC69460948FCF745FCA06B00F0CA
:103AA0009DF8DBE7DC00002048756D696469747976
:103AB0003A20252E3266200A00000000CC010020AA
:103AC000EFF30580002800D001207047A6B0FCF776
:103AD0008FFF0120FCF7B0FF1A4C4FF0FF35C820D4
:103AE00000F06CF82946A06B00F0A0F823A8FCF7C2
:103AF00073FFBDF98C2014A16846FFF77FFABDF96A
:103B00008E2016A119A8FFF779FABDF9902015A10A
:103B10001EA8FFF773FA1548FCF711FC014613487D
:103B2000FCF7F6FB69461148FCF7FDFB19A90F48A5
:103B3000FCF7F9FB1EA90D48FCF7F5FBA06B00F0A4
:103B40004DF8CCE7DC0000204D61676E65746F6D49
:103B50006574657220583A2564200000593A25643E
:103B6000200000005A3A2564200A0000CC01002001
:103B700086B0FDF7A3FAFEF721FFFEF7ABFD0020AC
:103B8000059005A800F026F8074C14220749A06309
:103B90006846FCF7A4FB0021684600F085F86061E8
:103BA00000F013F8FEE70000DC0000205C51000884
:103BB00001460020842900D0C81C704710B500B908
:103BC000012000F0B5FC002010BD10B500F09EFDF6
:103BD000002010BD012000F089BE000038B500248F
:103BE00005460094FFF76CFF90B16946284601F046
:103BF0005DF8012801D0FF2038BD009888B10A493E
:103C00004FF080500860BFF34F8FBFF36F8F08E015
:103C100000231A461946284600F098FF012800D0D4
:103C2000FF24204638BD000004ED00E038B5050053
:103C30004FF0000000900FD00024481C0ED001B1BE
:103C40000C46FFF73DFFB8B16A460021284601F057
:103C50007BF8012818D104E0802038BD4FF0FF34F4
:103C6000EFE7009890B10A494FF080500860BFF329
:103C70004F8FBFF36F8F09E0002322461946284675
:103C800000F06AFE012801D0FF2038BD002038BDB9
:103C900004ED00E010B501F007F9012803D0BDE8FC
:103CA000104000F00DBE10BD3EB504460D46B0F903
:103CB0000800FFF77DFF02A9CDE90001208A2B460D
:103CC00082B2D4E9001001F0C3F8012801D000202D
:103CD0003EBD02983EBD10B500F050FC002010BD66
:103CE00086B0FCF7B5FE134C4FF0FF35C820FFF748
:103CF00065FF2946A06BFFF799FFFCF7BDFE10EEAC
:103D0000100AFCF723FB41EC100B0BA153EC102B1A
:103D10006846FFF773F90D48FCF711FB01460B48A5
:103D2000FCF7F6FA69460948FCF7FDFAA06BFFF7C5
:103D300055FFDBE7DC000020507265737375726518
:103D40003A20252E3266200A00000000CC01002017
:103D50002DE9F041184C0F460546E6682068001D25
:103D600000F006FB38B9206890F82C10012088403C
:103D7000216981432161681C07D137B12168BDE801
:103D8000F0410E48091D00F02BBB20683544B542B8
:103D90004560216805D2A06BBDE8F041091D00F027
:103DA00007BB606B091D00F003FBA06A854200D2CF
:103DB000A562BDE8F0810000440100207C0F0020D6
:103DC0002DE9F041054600F017FB2E4CA068401C81
:103DD000A06020682C4F10B1606940B32DE02560D1
:103DE000A068012829D1002606EB860007EB800099
:103DF00000F0D0FA761C072EF6D323488C3000F062
:103E0000C9FA2148A03000F0C5FA1F48B43000F0CC
:103E1000C1FA1D48C83000F0BDFA1B48DC3000F084
:103E2000B9FA19488C3060631430A06305E020684B
:103E3000E96AC06A884200D82560606A401C6062F6
:103E4000E96A0120226988401043206101EB81006A
:103E500007EB8000291D00F0C3FA00F0EDFA60695D
:103E600000280CD02068E96AC06A884207D2074956
:103E70004FF080500860BFF34F8FBFF36F8FBDE8E6
:103E8000F081000044010020A00E002004ED00E0BD
:103E900070B5114E114C17E000F06CFC3068B8B1F1
:103EA00001F0FAF800F0A8FAF068C568281D00F0E3
:103EB0005FFAA068401EA0606068401E606000F06D
:103EC000BBFA284600F055F860680028E4D170BDC0
:103ED00001F0E2F8F8E70000680F0020440100203C
:103EE00030B4026C0B46002A0BD0C1681144C1608B
:103EF0004468A14201D30168C16030BC1846FCF798
:103F0000EEB930BC70472DE9F041856B1746044689
:103F10000026026C82B1C7B1E068FCF7E0F9E16805
:103F2000206C091AE1602268914202D26168081A85
:103F3000E060022F16D017E02068A8B9606801F091
:103F400025F80646002060600EE0A068FCF7C7F97F
:103F5000216CA0680844A0606168884204D320688E
:103F6000A06001E005B16D1E6D1CA5633046BDE883
:103F7000F08110B50446006B00F072FA2046BDE8EF
:103F8000104000F06DBA00000F4840F6B83142070B
:103F900005D0C01D0C4A20F00700821A891A0B4A6E
:103FA00000230144C2E900030839103A21F0070157
:103FB00011604B600B600B1AC0E9001393604FF067
:103FC00000405360D0607047E802002030010020BC
:103FD000074C4FF08056074DFFF75AFF2068012825
:103FE000FAD92E60BFF34F8FBFF36F8FF4E7000055
:103FF000A00E002004ED00E02DE9F0479A46DDE92F
:10400000098481466FF00303206B03EB82021044A6
:10401000089D20F00706700707D0502080F3118814
:10402000BFF34F8FBFF36F8FFEE723180A5C83F84F
:1040300034200A5C12B1401C1028F6D3002784F803
:104040004370072D00D30625E562C4E91157201DF2
:1040500000F0ABF904F1180000F0A7F92461C5F1F4
:1040600007006462A061E76484F8507052464946D4
:10407000304600F00FF92060B8F1000F01D0C8F809
:104080000040BDE8F087000030B5114900E011465E
:104090000A688242FBD34B685C18844203D14068B3
:1040A00018444860084643681C18944209D1084CDB
:1040B000103C2468A24209D052681A4442600A683F
:1040C00012680260814200D0086030BD0460F9E7E8
:1040D0003001002010B5044600F08EF9A06B28B125
:1040E0005FF0000400F0A8F9204610BD0124F9E7B4
:1040F0000648416B096829B1416BC968C9684968BC
:10410000816270474FF0FF31FAE700004401002060
:1041100008484068401C4FF0500080F3118804D0DC
:10412000BFF34F8FBFF36F8FFEE7BFF34F8FBFF328
:104130006F8FFEE7380100202DE9F041044600F0C2
:104140005BF994F9455004F1240609E0606A48B12E
:10415000304600F067FF08B100F066FA6D1E6DB2E0
:10416000002DF3DC4FF0FF3684F8456000F064F971
:1041700000F042F994F9445004F1100709E0206975
:1041800048B1384600F04EFF08B100F04DFA6D1E00
:104190006DB2002DF3DC84F84460BDE8F04100F01E
:1041A0004BB900002DE9F0410546002700F0E2FA86
:1041B000314E306808B9FFF7E7FEF06805424BD191
:1041C000C5B3083568070ED005F00700C0F1080038
:1041D0000544680707D0502080F31188BFF34F8F44
:1041E000BFF36F8FFEE72DB37068854234D8224845
:1041F000103001460C6801E020460C466168A94277
:1042000002D221680029F7D131688C4224D0076896
:104210002168016060680837411B10290FD96019B7
:10422000420708D0502080F31188BFF34F8FBFF3AF
:104230006F8FFEE710E041606560FFF725FF616862
:104240007068401A7060B268904200D2B060F06846
:1042500001430020C4E9000100F01EFF780707D0E9
:10426000502080F31188BFF34F8FBFF36F8FFEE7AD
:104270003846BDE8F08100002001002004490868AC
:1042800018B10868826C521C82640868704700008C
:104290004401002010B5031F4FF080741C601B1FE9
:1042A00021F001011960191F044B0B6014390A60D9
:1042B000091F6FF0020244380A6010BD1141000866
:1042C00086B0FCF7E1FB134C4FF0FF35C820FFF739
:1042D00075FC2946A06BFFF7A9FCFCF7E7FB10EE85
:1042E000100AFCF733F841EC100B0BA153EC102B28
:1042F0006846FEF783FE0D48FCF721F801460B489F
:10430000FCF706F869460948FCF70DF8A06BFFF7C3
:1043100065FCDBE7DC00002054656D70657261743C
:104320007572653A20252E3266200A00CC010020E5
:10433000FEF71EFE0C4C4FF0FF3547F23056294673
:10434000A06BFFF773FC0948FBF7F9FF074982B23E
:10435000334601F16400FDF77EFCA06BFFF73EFCE5
:10436000C820FFF72BFCEAE7DC000020CC0100208E
:10437000D0E9013201699A60D0E901235A604A68A4
:10438000824201D182684A60002202610868401EB0
:104390000860704700F108014FF0FF32C0E90112D8
:1043A000C160016100210160704700210161704717
:1043B00030B50B685A1C02D000F1080202E0026915
:1043C00004E02246546825689D42FAD953684B6040
:1043D00099608A60516008610168491C016030BDC4
:1043E00042684A6093688B60936859609160086185
:1043F0000168491C01607047502080F31188BFF3A9
:104400004F8FBFF36F8F0A494868401C48600128EE
:104410000CD10848006810F0FF0F07D0502080F33F
:104420001188BFF34F8FBFF36F8FFEE77047000017
:104430003801002004ED00E00849486828B1401E1A
:10444000486001D180F311887047502080F31188B3
:10445000BFF34F8FBFF36F8FFEE7000038010020DE
:1044600070B5002827D0144DA0F108046168E868F1
:10447000014207D1502080F31188BFF34F8FBFF363
:104480006F8FFEE722683AB1502080F31188BFF3A6
:104490004F8FBFF36F8FFEE78143616000F06AF9D1
:1044A00060686968084468602046FFF7EDFDBDE874
:1044B000704000F0F1BD70BD2001002006484FF4AF
:1044C0007A710068B0FBF1F14FF0E020491E4161C4
:1044D00007210161704700001C01002010B5FBF7A7
:1044E000B7FE114910280ED300F1E02090F8F00338
:1044F0000A78904207D2502080F31188BFF34F8F83
:10450000BFF36F8FFEE709480068896800F4E06038
:10451000884207D9502080F31188BFF34F8FBFF333
:104520006F8FFEE710BD0000380100200CED00E0A9
:1045300010B5020014D00F48006B38B1502080F342
:104540001188BFF34F8FBFF36F8FFEE700F012F9B2
:1045500000211046FFF7FCFB00F09EFD002807D16C
:1045600005494FF080500860BFF34F8FBFF36F8F46
:1045700010BD00004401002004ED00E070B50546C8
:10458000FFF73AFF254C05B92568281DFFF7F0FE17
:1045900058B9E86A224A00EB800152F8211021B98B
:1045A00001218140206988432061A86A18B105F182
:1045B0001800FFF7DDFE606A401C606220688542DB
:1045C00008D11748291DC830FFF70AFF6068401C52
:1045D000606007E0A068401EA0602846FFF7C9FCA5
:1045E000FFF786FDFFF728FF6069002814D02068D8
:1045F000854211D1206B38B1502080F31188BFF370
:104600004F8FBFF36F8FFEE706494FF08050086071
:10461000BFF34F8FBFF36F8F70BD000044010020C8
:10462000A00E002004ED00E001490120C8617047A0
:104630004401002010B50C4650B1094909681831F1
:10464000FFF7B6FE2046BDE810400121FFF780BB12
:10465000502080F31188BFF34F8FBFF36F8FFEE7B9
:104660004401002070B5040039D01D4DE06A29686E
:10467000C96A884233D2A069002804DB2868C06A6E
:10468000C0F10700A061E16A164E01EB810160698B
:1046900006EB810188421FD1201DFFF769FE012131
:1046A00050B9E06A00EB800256F8222022B92A694C
:1046B00001FA00F082432A612868C06AE0622A6930
:1046C00081401143296100EB800006EB8000211D31
:1046D000BDE87040FFF784BE2868C06AE06270BD24
:1046E00044010020A00E002028B107490A6A026098
:1046F000C96841607047502080F31188BFF34F8F25
:10470000BFF36F8FFEE70000440100201CB5154881
:104710000024CDE900402346802213A1144800F074
:1047200097FB012809D0401C1AD1502080F3118832
:10473000BFF34F8FBFF36F8FFEE7502080F31188D8
:10474000BFF34F8FBFF36F8F06484FF0FF312C3808
:10475000816201214161C460BDE81C4000F040B8A5
:104760001CBD00007001002049444C4500000000C1
:10477000D13F00080248016B491C016370470000EB
:10478000440100201448016B11B10121C16170473F
:104790000021C1610169B1FA81F1C1F11F0101EB91
:1047A00081020E4951F822306BB101EB820101F117
:1047B00008034A6852684A609A4201D152684A60C6
:1047C000D16801607047502080F31188BFF34F8F8C
:1047D000BFF36F8FFEE7000044010020A00E002011
:1047E0001CB532480168324A914207D1502080F30B
:1047F0001188BFF34F8FBFF36F8FFEE700682C491E
:10480000491E884207D1502080F31188BFF34F8F93
:10481000BFF36F8FFEE7274908780190FF200870EB
:1048200008788DF800009DF800009DF8002000F049
:10483000F000904207D0502080F31188BFF34F8FD3
:10484000BFF36F8FFEE79DF800001B4A00F0500099
:1048500010700720906005E09DF800305B008DF837
:104860000030401E9DF800301B06F5D4000200F415
:10487000E0609060019808700C482030016841F4B5
:1048800070010160016841F070410160FFF716FEA0
:1048900000205060FBF7A2FC0848016841F040414D
:1048A0000160FBF78BFC00201CBD000000ED00E068
:1048B00071C20F4100E400E03801002034EF00E055
:1048C00010B5502080F31188BFF34F8FBFF36F8F67
:1048D00000F0F8FA18B104494FF080500860002049
:1048E00080F3118810BD000004ED00E010B5024611
:1048F0000021012000F00CF8040007D000214160E5
:1049000001600B460A46C16000F020F9204610BD48
:1049100070B50E46050013D0D6B105FB06F0483041
:10492000FFF740FC040009D004F1480120468EB195
:104930000160C0E90F56012100F0C4F8204670BDA7
:10494000502080F31188BFF34F8FBFF36F8FFEE7C6
:104950000020E4E70060ECE72DE9FF4F002683B07C
:104960009B468A46040003D0BAF1000F08D011E03C
:10497000502080F31188BFF34F8FBFF36F8FFEE796
:10498000206C38B1502080F31188BFF34F8FBFF3F4
:104990006F8FFEE700F088FADFF824814FF00009FE
:1049A0004FF0805748B9059838B1502080F31188EE
:1049B000BFF34F8FBFF36F8FFEE7FFF71DFDA56BB2
:1049C00045B351462046E668FFF78AFABBF1000F6F
:1049D00013D0E660606A50B104F1240000F022FBBD
:1049E00028B1C8F80070BFF34F8FBFF36F8FFFF788
:1049F00023FD012007B0BDE8F08F6D1EA563206880
:104A000010B9FFF73BFC606020690028EFD004F18B
:104A10001000E3E7059808B11EB106E0FFF70CFDB2
:104A200027E06846FFF760FE0126FFF705FDFFF768
:104A3000A1FEFFF7E1FC94F94400401C01D184F889
:104A4000449094F94500401C01D184F84590FFF74B
:104A5000F3FC05A9684600F0C5F9002820460AD0F5
:104A6000FFF76AFB00F018FB2046FFF733FB002836
:104A7000A3D00020BEE7FFF72DFBD8B1206830B9E6
:104A8000FFF7BAFC6068FFF7EDFDFFF7D5FC04F116
:104A900024000599FFF7CEFD2046FFF74DFB00F0FF
:104AA000FBFA002889D1C8F80070BFF34F8FBFF31D
:104AB0006F8F82E72046FFF73FFB00F0EDFA7CE7BF
:104AC00004ED00E070B50D46040025D0FFF794FC1E
:104AD000D4E90F20216802FB001161600021A1636D
:104AE0002168A1600A46D4E90F01401E00FB0121A4
:104AF000E16021464FF0FF3001F8440F487004F1A7
:104B000010008DB1FFF746FC04F12400FFF742FCD2
:104B1000FFF792FC012070BD502080F31188BFF395
:104B20004F8FBFF36F8FFEE721690029F0D000F0AF
:104B300079FA0028ECD004494FF080500860BFF3A8
:104B40004F8FBFF36F8FE3E704ED00E02DE9FF47E0
:104B500082B01D468A464FF00008040003D0BAF127
:104B6000000F08D011E0502080F31188BFF34F8F61
:104B7000BFF36F8FFEE7206C38B1502080F31188AF
:104B8000BFF34F8FBFF36F8FFEE7022D0AD1E06BAB
:104B9000012807D0502080F31188BFF34F8FBFF357
:104BA0006F8FFEE700F080F93F4F4FF000094FF0A4
:104BB000805648B9049838B1502080F31188BFF36B
:104BC0004F8FBFF36F8FFEE7FFF716FCA06BE16B13
:104BD000884207D3022D05D00498D0B1B8F1000F58
:104BE0001AD01EE02A4651462046FFF78CF9616A2A
:104BF00019B104F1240000F015FA20B13E60BFF3B2
:104C00004F8FBFF36F8FFFF717FC012006B0BDE891
:104C1000F087FFF711FC22E06846FFF765FD4FF0D3
:104C20000108FFF709FCFFF7A5FDFFF7E5FB94F985
:104C30004400401C01D184F8449094F94500401C84
:104C400001D184F84590FFF7F7FB04A9684600F00E
:104C5000C9F830B12046FFF76FFA00F01DFA0020C6
:104C6000D4E7FFF7C9FBA06BE16B884213D1FFF7D4
:104C7000E3FB04F110000499FFF7DCFC2046FFF78A
:104C80005BFA00F009FA00289ED13E60BFF34F8F17
:104C9000BFF36F8F98E7FFF7CFFB2046FFF74CFA83
:104CA00000F0FAF990E7000004ED00E070B50E4660
:104CB000040009D0206C78B1502080F31188BFF334
:104CC0004F8FBFF36F8FFEE7502080F31188BFF343
:104CD0004F8FBFF36F8FFEE7206848B9606838B127
:104CE000502080F31188BFF34F8FBFF36F8FFEE723
:104CF000FFF7F4FB5020EFF3118580F31188BFF329
:104D00004F8FBFF36F8FA16BE06B884218D994F976
:104D10004500491CA163411C04D0401C84F8450097
:104D200001200EE0606A0028FAD004F1240000F0AF
:104D300079F90028F4D0002EF2D001203060EFE79E
:104D4000002085F3118870BD2DE9F0479046894613
:104D5000040003D0B9F1000F08D011E0502080F317
:104D60001188BFF34F8FBFF36F8FFEE7206C38B110
:104D7000502080F31188BFF34F8FBFF36F8FFEE792
:104D8000FFF7ACFB5020EFF3118680F31188BFF3DF
:104D90004F8FBFF36F8FA76BF7B194F9445049461B
:104DA0002046FFF79DF87F1EA763681C04D06D1C8A
:104DB00084F84450012010E020690028FAD004F162
:104DC000100000F02FF90028F4D0B8F1000FF1D056
:104DD0000121C8F80010EDE7002086F31188BDE836
:104DE000F087000070B50D46040019D005B3FFF739
:104DF00003FB164AD1682868431C0FD02368126A47
:104E0000934202D062688A421AD96268891A814242
:104E100016D2401A28602046FFF766FC002410E0F6
:104E2000502080F31188BFF34F8FBFF36F8FFEE7E1
:104E3000502080F31188BFF34F8FBFF36F8FFEE7D1
:104E40000124FFF7F9FA204670BD0000440100205C
:104E50002DE9FF5F8346DDE90E87994616468A46AF
:104E60009000FFF79FF905001AD05420FFF79AF938
:104E7000040012D025630021CDE90241CDE900876D
:104E80004B46324651465846FFF7B6F82046FEF7E5
:104E900097FF012004B0BDE8F09F2846FFF7E0FA35
:104EA0004FF0FF30F6E700000548416919B1006B8B
:104EB00018B10020704701207047022070470000A1
:104EC000440100202DE9F0412E4C0027206B40B119
:104ED000A069401CA061E06900B101273846BDE827
:104EE000F081E668761CE66013D1606B006838B12B
:104EF000502080F31188BFF34F8FBFF36F8FFEE711
:104F0000606BA16B6163A063206A401C2062FFF7A5
:104F1000EFF8A06ADFF87080864209D3606B006802
:104F200080B1606BC068C568686886420DD2A062B7
:104F30002068C06A00EB800158F821000128CAD916
:104F40000127C8E74FF0FF30F1E7281DFFF710FAFF
:104F5000A86A18B105F11800FFF70AFAE86A0121FA
:104F6000226981401143216100EB800108EB81003F
:104F7000291DFFF735FAE86A2168C96A8842CDD34E
:104F80000127CBE744010020A00E002070B50400EB
:104F90004FF0000140D0214D2868844207D05020B6
:104FA00080F31188BFF34F8FBFF36F8FFEE7A06CC4
:104FB00038B1401EA064636CE26A9A422CD040B1C2
:104FC0002AE0502080F31188BFF34F8FBFF36F8F1B
:104FD000FEE7201DFFF7CCF9114A012150B9E06A24
:104FE00000EB800352F8233023B92B6901FA00F05B
:104FF00083432B61606CE062C0F10700A061E06A4E
:105000002B6981401943296100EB800002EB80008D
:10501000211DFFF7E5F90121084670BD440100207C
:10502000A00E00202DE9F041C068C468ACB104F1C5
:1050300018000746FFF79CF9154D286B0126A0B113
:1050400039461448FFF7CCF9E06A2968C96A8842F2
:105050001CD90120EE61BDE8F081502080F3118859
:10506000BFF34F8FBFF36F8FFEE7201DFFF780F96F
:10507000E16A2A6906FA01F01043286101EB810018
:105080000449B43901EB8000211DDBE70020E2E791
:1050900044010020540F00202DE9F0472C4D00243E
:1050A0002746286B38B1FFF7A7F9286B401E286305
:1050B000286B40B146E0502080F31188BFF34F8F3A
:1050C000BFF36F8FFEE7A968224E0120D1B3A6F18E
:1050D000B40980463068E8B1F068C46804F118008B
:1050E000FFF746F9201DFFF743F9E06A2A6908FA3D
:1050F00000F11143296100EB800109EB8100211DC2
:10510000FFF76EF9E06A2968C96A8842E2D3C5F8F8
:105110001C80DFE70CB1FEF7EBFFAC6944B14646FB
:10512000FFF7D0FE00B1EE61641EF9D10020A86146
:10513000E86938B10849012738070860BFF34F8F85
:10514000BFF36F8FFFF778F93846BDE8F0870000AE
:1051500044010020540F002004ED00E080520008BC
:105160005928000800000000000000008000000036
:1051700068520008CD3A000800000000000000005E
:10518000800000004C520008E13C000800000000D4
:10519000000000008000000074520008C1420008B6
:1051A00000000000000000008000000044520008E1
:1051B000E13800080000000000000000800000004E
:1051C0008C520008513A0008000000000000000066
:1051D000800000005C5200088539000800000000D3
:1051E00000000000800000009C52000831430008CD
:1051F000000000000000000064000000000000004B
:10520000000000000102030406070809A08601004F
:10521000400D0300801A060000350C0040420F00CC
:1052200080841E0000093D0000127A000024F40072
:1052300000366E010048E801006CDC02000000004E
:10524000010203046163635461736B0070726573E0
:10525000737572655461736B000000006779726F3B
:105260005461736B000000006D61676E65746F546C
:1052700061736B0074656D705461736B00000000A6
:1052800064656661756C745461736B0068756D69F3
:10529000646974795461736B000000007573617206
:1052A000745472616E736D6974000000CC52000812
:1052B00000000020800100004E0800083053000864
:1052C000800100201012000034300008011813077C
:1052D0001D1B08E9041A29041AFD0481131D1E145C
:1052E000088B221B0871041AED04415ACB080118DF
:1052F0001B01234C19041AED041301241B087B0421
:105300001A61041AD504415AB30801181AE9201386
:10531000B7251B089D044B11262C1AEF0C011C5AB3
:105320002528013D031D093D1AAA01014000000086
:040000050800018965
:00000001FF
