:020000040800F2
:10000000101500209D010008FB3500087B35000815
:10001000F9350008051900088944000800000000AF
:10002000000000000000000000000000453D000846
:1000300007190008000000001D360008473D0008B1
:10004000B7010008B7010008B7010008B7010008B0
:10005000B7010008B7010008B7010008B7010008A0
:10006000B7010008B7010008B7010008B701000890
:10007000B7010008B7010008B7010008B701000880
:10008000B7010008B7010008B7010008B701000870
:10009000B7010008B7010008B7010008B701000860
:1000A000B7010008B7010008B7010008B701000850
:1000B000013E0008B7010008B7010008B7010008B9
:1000C000B7010008B7010008B7010008B701000830
:1000D000B7010008B7010008B7010008B701000820
:1000E000B7010008B7010008B7010008B701000810
:1000F000B7010008B7010008B7010008B701000800
:10010000B7010008B7010008B7010008B7010008EF
:10011000B7010008B7010008B7010008B7010008DF
:10012000B7010008B7010008B7010008B7010008CF
:10013000B7010008B7010008B7010008B7010008BF
:10014000B7010008B7010008B7010008B7010008AF
:10015000B7010008B7010008B7010008B70100089F
:10016000B7010008B7010008B7010008B70100088F
:10017000B7010008B70100080000000000000000FF
:10018000B7010008B7010008DFF80CD001F028F82B
:1001900000480047354E00081015002006488047EB
:1001A00006480047FEE7FEE7FEE7FEE7FEE7FEE75C
:1001B000FEE7FEE7FEE7FEE7BD3D00088901000817
:1001C000B5EEC00AF1EE10FA07D2DFED1E0AB4EE6A
:1001D000E00AF1EE10FAA8BF7047DFED1B0AB5EE9A
:1001E000C00A60EE200ABDEEE01A11EE100AF1EE30
:1001F00010FA38BF401E00EE100A1549F7EE001A3B
:10020000B8EEC00A30EEC00ADFED100A60EE200A38
:10021000BCEEE00A10EE100AC0F3080000EE100A6F
:1002200001EB8000B8EE400A90ED011A70EEC00AB2
:1002300090ED000A71EEE01A21EE800A00EE810ACC
:1002400070470000CD024CB483F9223E0000004408
:100250005C5F000870B405880E884468D1F804C05B
:100260005368B54208D140884988884201BF118847
:100270008D425188884203D070BC6FF002007047F5
:1002800005FB00F1880827D094ED001ADCED000A88
:1002900094ED010ADCED011A31EE201AD4ED020AC8
:1002A00070EE211A9CED020A83ED001AC3ED011ACB
:1002B00094ED031ADCED031A30EE800A401E71EE55
:1002C000210A83ED020A04F11004C3ED030A03F1CD
:1002D00010030CF1100CD7D111F0030030D0B0F1A5
:1002E000004F30D200282BDD211F1B1FACF1040270
:1002F00010F0010F0AD091ED010AD2ED010A091D9B
:10030000121D30EE200A83ED010A1B1D400817D094
:1003100091ED010AD2ED010A401E30EE200A83ED74
:10032000010A91ED020AD2ED020A01F1080102F17F
:10033000080230EE200A83ED020A03F10803E7D138
:1003400070BC00207047B4EC010A401EFCEC010AAE
:1003500030EE200AA3EC010AF5D1F1E72DE9F34FC5
:1003600084B0049840680090486801900498B0F800
:1003700000E04588DFEDFE0A00200290B0EE600A42
:10038000AE4506D108884988884204BF7146864533
:1003900004D06FF0020006B000F078BA01985FEA6E
:1003A000010C18BFB7EE001A3DD000BFBEEB0C0128
:1003B00017D0B1F1004F80F01F82002911DD021F1C
:1003C00011F0010F1CBFC2ED010A121D4B1006D027
:1003D000C2ED010AC2ED020A08325B1EF8D100EB41
:1003E0008100BCF10102A0EC011A19D0B2F1004F5A
:1003F00080F00882002A13DD031F12F0010F1CBFDA
:10040000C3ED010A1B1D511008D000BFC3ED010A46
:10041000C3ED020A491E03F10803F7D100EB820085
:10042000BCF1010CC2D14FF000080395002D14BFA0
:10043000B0EE602A002000F0BF8100BF009908FBE9
:1004400005F001EB800B0199DBED002A01EB800048
:100450000346F0EE421AC64552D9AEEB0802ABEBAA
:10046000850112F0010F17D001EB850191ED000A13
:10047000B5EEC00AF1EE10FA07DDB4EEE10AF1EED6
:1004800010FA09DDF0EE401A06E0B1EE400AF4EE93
:10049000C01AF1EE10FAF5D3521031D001EB850CF1
:1004A0009CED000AB5EEC00AF1EE10FA05DDB4EEDF
:1004B000E10AF1EE10FA09DD06E0B1EE400AF4EED1
:1004C000C01AF1EE10FA01D2F0EE401A01EBC501AC
:1004D00091ED000AB5EEC00AF1EE10FA05DDB4EEBA
:1004E000E10AF1EE10FA09DD06E0B1EE400AF4EEA1
:1004F000C01AF1EE10FA01D2F0EE401A521ECDD120
:10050000F5EEC01AF1EE10FA00F07381F5EEC02A94
:100510000126F1EE10FA0099D4BFB1EE620AB0EEF6
:10052000620AB4EE610AF1EE10FA1CBFAEEB0802EB
:10053000B2F1010C47D005FB08F201EB820292ED0B
:10054000001A00BFB0EE410A05FB06F4B5EEC00A82
:1005500000EB8404F1EE10FACCBFF0EE400AF1EEAD
:10056000400AF4EE610AF1EE10FA28D1B5EB080C5E
:1005700011D0BCF1004F7DD2BCF1000F0BDD00BFEC
:1005800092ED000AD1ED000ABCF1010CE2EC010A87
:10059000A1EC010AF4D129000ED0B1F1004F6AD2CA
:1005A000002909DD94ED000AD0ED000A491EE4ECB3
:1005B000010AA0EC010AF5D1012002900BE0761CA3
:1005C000BCF1010CBED10298012804D0F5EEC02A7E
:1005D000F1EE10FA7ED09BED000AB5EB08009A46CA
:1005E0005946064622D0B0F1004F74D200281DDDD6
:1005F000091F10F0010F06D0F0EE400A80EEA01A9D
:1006000081ED011A091D401010D000BFD1ED010A83
:10061000401E80EE801A81ED011A91ED021AC1EEA2
:10062000000AC1ED020A01F10801EFD1280026D02D
:10063000B0F1004F7ED2002821DDAAF1040110F0B4
:10064000010F06D0D1ED010A80EE801A81ED011A6A
:10065000091D401013D000BFD1ED010A401E80EEED
:10066000801A81ED011AD1ED020A80EE801A81ED27
:10067000021A01E0CBE0D6E001F10801ECD1DDE99E
:1006800000124FF000095FEA0E0773D0C14504BFA6
:1006900001EB860102EB850274D091ED000ADC4685
:1006A0005046331E35D01C46B6F1004F7ED2002C8A
:1006B0002FDD0B1FABF1040C16F0010F0FD0F0EE85
:1006C000400ADCED011AB0EE601A00EEE11A83ED8B
:1006D000011A01E08DE0B1E01B1D0CF1040C741057
:1006E00015D000BFD3ED010A9CED011A40EE410A7E
:1006F000C3ED010AD3ED020A9CED021A0CF1080CBD
:1007000040EE410AC3ED020A0833641EEAD101EB50
:1007100086012B0036D0B3F1004F72D2002B31DDB1
:10072000A2F1040CAAF1040013F0010F0CD0DCEDCF
:10073000010A00E08BE090ED011A001D40EE410A35
:10074000CCED010A0CF1040C5C1019D0DCED010AAF
:1007500090ED011A40EE410ACCED010ADCED020AEF
:1007600090ED021A083040EE410ACCED020A03E097
:10077000000000000DE005E0641E0CF1080CE5D15E
:1007800002EB830201EB88017F1E09F101097FF46E
:100790007DAF009808F10108001D00900398401EED
:1007A00003907FF44BAE0299012900E058E004BFAA
:1007B00006B000F06BB800BFB5EEC00AF1EE10FA5B
:1007C0007FF4E9AD04990EFB05F3002B4A684FF066
:1007D00000010BD902EB810C9CED000AB5EEC00ABA
:1007E000F1EE10FA02D1491C8B42F3D88B427FF410
:1007F000D2AD6FF00400CEE5E0EC010A491EFBD15A
:10080000EFE538E0E0EC010A521EFBD108E692ED7C
:10081000000AD1ED000ABCF1010CE2EC010AA1ECE6
:10082000010AF4D1B7E694ED000AD0ED000A491EA2
:10083000E4EC010AA0EC010AF5D1BDE6D1ED000A15
:10084000401E80EE801AA1EC011AF7D1EEE6D3ED3E
:10085000000A401E80EE801AA3EC011AF7D10EE7C1
:10086000BCEC011AD1ED000A5B1E40EE410AE1EC3E
:10087000010AF5D14DE7B0EC011AD2ED000A5B1E7A
:1008800040EE410AE2EC010AF5D17BE730BCBDE85D
:10089000C08F00002DE9F04F82B046685368019385
:1008A000058847884B88002000900888874201BF50
:1008B000B2F800C06545528893421EBF6FF0020037
:1008C00002B000F085B89FED412A4FEA970EC7F3BA
:1008D000400B00BFDDE9000202EB800A4A6898463F
:1008E0004FF00009B0EE420AB4465FEA0E0025D090
:1008F00092ED001ADCED001A02EB8302DCED010A36
:1009000001EE810A92ED001A02EB8302401ED2ED45
:10091000001A02EB830200EE810A9CED021ADCED64
:10092000030A00040CF1100C000C01EE210A92EDF8
:10093000001A02EB830200EE810AD9D117F00300FE
:1009400026D0ACF10404A2EB830210F0010F08D012
:1009500002EB8302D4ED010A92ED001A241D00EE91
:10096000810A5FEA0B0013D002EB830CD4ED010A7D
:100970009CED001A02EBC302401E00EE810AD4ED8A
:10098000020A92ED001A04F1080400EE810AEBD18C
:1009900009F10100AAEC010A1FFA80F9486800EB8E
:1009A0008902A8F101001FFA80F8B8F1000F99D16F
:1009B000009806EB8706184480B20090681E050474
:1009C0002D0C87D102B0002000F002B8000000001A
:1009D00030BCBDE8C08F70B405880E884468D1F87B
:1009E00004C05368B54208D140884988884201BF95
:1009F00011888D425188884203D070BC6FF002008C
:100A0000704705FB00F1880827D094ED001ADCED53
:100A1000000A94ED010ADCED011A31EE601AD4ED02
:100A2000020A70EE611A9CED020A83ED001AC3ED12
:100A3000011A94ED031ADCED031A30EEC00A401ED1
:100A400071EE610A83ED020A04F11004C3ED030A9A
:100A500003F110030CF1100CD7D111F0030030D0CA
:100A6000B0F1004F30D200282BDD211F1B1FACF14D
:100A7000040210F0010F0AD091ED010AD2ED010A33
:100A8000091D121D30EE600A83ED010A1B1D40088E
:100A900017D091ED010AD2ED010A401E30EE600A36
:100AA00083ED010A91ED020AD2ED020A01F108017B
:100AB00002F1080230EE600A83ED020A03F1080336
:100AC000E7D170BC00207047B4EC010A401EFCEC7A
:100AD000010A30EE600AA3EC010AF5D1F1E700004B
:100AE0002DE9F04F02884768B0F802804888D1F8B5
:100AF000049082B04FF0000A1646824207BF098870
:100B000088456FF0020002B018BF00F073B84FEADA
:100B1000980B02EB42000190C8F34000CDF80000B2
:100B200009EB8A01BBF1000F33D0019801EB820C75
:100B300001EB80043B46E64601EBC2054FEA0B00A1
:100B400093ED000A401E81ED000A93ED010A01EBCE
:100B500002118CED000A93ED020A0CEB021C85EDEC
:100B6000000A93ED030A05EB021584ED000A04EB7D
:100B7000021403F11003E3D10EEB820000EB8200BC
:100B800000EB8201ABF10100504307EB0B1701EBC7
:100B9000001118F0030C21D03B1FA1EB82011CF0C7
:100BA000010F06D093ED010A01EB82011B1D81EDBF
:100BB000000A009880B100BF93ED010A01EB8204A6
:100BC00001EBC20184ED000A93ED020A401E81EDA3
:100BD000000A03F10803EFD107EB8C070AF10100CB
:100BE0001FFA80FA701E0604360C99D102B000205C
:100BF00000F000B830BCBDE8C08F2DE9F05F0546BD
:100C0000002092469B4688460646814640241BE0CB
:100C1000284641464746224600F089F853465A4640
:100C2000C01A914110D311461846224600F070F8C0
:100C30002D1A67EB01084F4622460120002100F0E3
:100C400067F817EB00094E41201EA4F10104DFDC18
:100C5000484631462A46434600F000B830BCBDE85D
:100C6000C09FD2B201E000F8012B491EFBD27047B1
:100C70000022F6E710B513460A4604461946FFF768
:100C8000F0FF204610BD00F0004230F000400AD0D6
:100C9000C10D01F56071C0F3160042EA0151C208AE
:100CA00040071143704700200146704701F00043A0
:100CB00030B421F0004150EA010206D00A0DA2F53D
:100CC0006072C1F31301002A02DC30BC00207047BF
:100CD000440F44EAC104C100E01830BC00EBC2502C
:100CE00000F084B830B50B460146002020220124D4
:100CF00009E021FA02F59D4205D303FA02F5491BEA
:100D000004FA02F52844151EA2F10102F1DC30BDFF
:100D1000202A04DB203A00FA02F1002070479140BB
:100D2000C2F1200320FA03F3194390407047202AB0
:100D300004DB203A21FA02F00021704721FA02F385
:100D4000D040C2F12002914008431946704700008C
:100D50000FB4002300B589B00CA900910B996FF076
:100D60000042CB601E4B06931E4B07930423CDE934
:100D700001321D4A089202466B46002000F0EEFA4E
:100D800009B05DF814FB70B586B006464FF0FF3031
:100D90000091CDE90101002015460C460490324631
:100DA000694604A8FFF7D4FF02460498211825B12C
:100DB00008B1084600E020462860049800280DD0BD
:100DC000002A02DD0098884208D0081B0094CDE973
:100DD00001043246694604A8FFF7BAFF06B070BDA9
:100DE0009B150008B9150008291200080029A8BFA2
:100DF0007047401C490008BF20F00100704710B444
:100E0000B0FA80FC00FA0CF050EA010404BF10BCF8
:100E1000704749B1CCF1200421FA04F411FA0CF125
:100E200018BF012121430843A3EB0C01CB1D4FEA5E
:100E300000614FEA102042BF002010BC704700EB59
:100E4000C35010440029A4BF10BC7047401C490087
:100E500008BF20F0010010BC70472DE9FE4F80460E
:100E600081EA0300C00F0C46009021F0004123F0FE
:100E70000045B8EB0200A94105D240462146904604
:100E80001C460B46024623F00040104347D0270D76
:100E9000C7F30A00C3F30A510290401A0190402898
:100EA0006BDAC3F3130040F4801B0098924620B124
:100EB0000023D2EB030A63EB0B0B01985946C0F1F8
:100EC00040025046FFF724FF06460D46504659465D
:100ED000019A00F097F910EB08006141002487EABD
:100EE000115284EAE7731A4340D0009A62B3019A20
:100EF000012A4FEA075215DC001B61EB02014FF09B
:100F0000004202EA0752CDE90042001C41F580117F
:100F100032462B4600F070FB03B000F045B8404667
:100F20002146F9E7001B61EB0201001C41F580132B
:100F300000185B412018A2F5001747EB030140EAB7
:100F4000D570B6196D4111E06D084FEA360645EAD5
:100F5000C0754FEA0752001B61EB0201001C41F50E
:100F6000801149084FEA30000019514132462B46A2
:100F700003B000F01CB800F030BB00980122400024
:100F80000023D0EB020263EBE073009821464FEAA6
:100F9000E074B8EB000061EB0401E9E783F0004383
:100FA0005BE781F0004158E730BCBDE8C08F30BC42
:100FB000BDE8C04FFFF7DFBF2DE9FE4F81EA030414
:100FC00004F0004421F0004100944FF0000B23F0A6
:100FD000004350EA01045ED052EA03045BD0C3F33D
:100FE0000A54C1F30A552C44A4F2F3340194A0FB33
:100FF0000254C1F3130141F48011C3F3130343F40A
:10100000801301FB024400FB034E840A970A44EA62
:10101000815447EA8357A4FB076802958D0A05FBB4
:1010200007854FEA932C04FB0C542705029D4FEAD9
:10103000065847EA1637B5EB08056EEB070C870E26
:10104000920E47EA811742EA8312A7FB0201B6EB30
:101050000B0164EB00042B0D43EA0C335E1844EBE8
:101060001C50DA465146E7FB0201C5F313044FEA70
:101070000B3343EA14534FEA0432019C43EA06035C
:10108000A4F10C040294009CCDE900B400F0B4FA81
:1010900003B000F003B800200146F9E730BCBDE81A
:1010A000C08F2DE9F04D81EA030404F0004B21F0DC
:1010B000004514464FF0000A23F0004150EA0502B3
:1010C00020D054EA01021DD0C5F30A570246C5F3E9
:1010D0001303C1F31300C1F30A5640F4801543F41F
:1010E0008013A7EB0608101BD64608F2FD3873EBF9
:1010F000050002D308F1010801E092185B41B8F144
:10110000000F03DA00200146BDE8F08D00204FF407
:101110008011064684460EE0171B73EB050705D3C6
:10112000121B63EB050306434CEA010C49084FEA26
:10113000300092185B4150EA0107EDD152EA0300FA
:1011400012D082EA040083EA0501084305D0101B8F
:10115000AB4106D20122002306E000224FF00043FB
:1011600002E06FF0010253101AEB06004CEB08513D
:1011700010EB0A0041EB0B01BDE8F04D00F02DBA79
:10118000C1F30A52C1F3130140F2FF3341F480115D
:101190009A4202DA00200146704740F233439A42F5
:1011A000A2F2334202DC5242FFF7C1BDFFF7B0BDED
:1011B00030B5041E71F1000404DB4FF000444042DE
:1011C00064EB0101141E73F1000405DB1C464FF0B3
:1011D0000043524263EB0403994208BF904230BD82
:1011E000064C074D06E0E06840F0010394E8070074
:1011F00098471034AC42F6D3FEF7CAFF5069000896
:1012000070690008202A06DBCB17203A41FA02F069
:1012100043EAE07306E041FA02F3D040C2F1200253
:101220009140084319467047C0B24FF4F05100F0A6
:1012300031BA00002DE9FF4F087883B09946FF28A6
:1012400005D0491C2D2804D00024002008E00020EF
:101250000BE00124F9E700EB800003EB4000491CA0
:101260000B78FF2BF7D104B140420023029314788E
:1012700019461D462D2C01D02B2C04D1521C2D2C8F
:1012800013D000240294AA461478FF2C0FD00A250C
:10129000A3FB057801FB05814FF0000C03FB0C114B
:1012A000521CE3194AEB0101EEE70124EAE781440D
:1012B00053EA010002D019F5C87F06DA039800212D
:1012C000C0E9001107B000F065B90025AE4E2F4609
:1012D000DFF8B882184600F0F1F9CDE90001B9F164
:1012E000000002DAC9F1000400E004460023A74A26
:1012F0001AEB030B42EB045A12E0E00707D02A4630
:10130000334638464146FFF757FE074688462A4689
:10131000334610461946FFF74FFE05460E46641049
:10132000002CEAD1DDE90001B9F1000F5A4653461D
:1013300006DAFFF7B6FE3A464346FFF7B2FE05E08F
:10134000FFF73AFE3A464346FFF736FE029A0AB1E5
:1013500081F00041039AC2E90001B3E72DE9FF4F94
:101360001F468DB0D7E901464FF0FF382E20454685
:101370004FF000090B90B9696D1C0E988847396AC7
:10138000824688470028F6D1BAF1FF3F0AD024F4FC
:10139000D064002E11DDBAF12B0F08D0BAF12D0F59
:1013A0000BD102E0404611B08DE744F48064B96986
:1013B0006D1C0E9888478246761E6946600501D5E9
:1013C0002D2000E02B208DF8000001F1010B0DF124
:1013D000200809E0B9696D1C0E98884782460F986D
:1013E00044F40074761E0560002E02DDBAF1300F61
:1013F000F0D00B998A453ED144F0800406E00F9965
:10140000681CA9F1010944F400740860B9696D1CF5
:10141000761E0E98884782463028F0D02BE00B9934
:101420008A4505D1200603D444F08004761E18E0D6
:10143000504603F03AF908B30DF11301761E44F457
:1014400000748B4508D2AAF130000BF8010B20067E
:1014500007D5A9F1010003E0200602D409F101003B
:101460008146A00502D50F99681C0860B9696D1CFA
:101470000E9888478246002ED1DC53E0002E51DDC5
:10148000BAF1650F02D0BAF1450F4BD1A00549D58D
:10149000B9696D1C24F44074761E0E988847824604
:1014A000002E0CDD2B2804D0BAF12D0F07D144F407
:1014B0008074B9696D1C0E9888478246761EE005D7
:1014C00001D52D2100E02B2108F8011BCDF82C803F
:1014D00021E00DF12901761E44F4007488450CD2F8
:1014E000AAF1300010F0FF0088F8000002D10B993B
:1014F000884509D908F1010806E0E00501D524482E
:1015000001E042F20F708146B9696D1C0E98884760
:1015100082460F980560002E04DD504603F0C5F8A2
:101520000028D6D1F9690E988847FF208BF8000073
:1015300088F800000020069007904B466A4608A9EC
:1015400006A8FFF777FEA00502D46FF001002AE796
:1015500014F0240F0AD0E00714D1DDE90612386830
:10156000031D3B600068C0E900120BE0DDE90601E5
:10157000FFF79CFB0146E00704D13868021D3A6082
:101580000068016028460EE7000014400000F03FAC
:10159000F1D8FFFF30BCBDE8C08F426842B101689E
:1015A00011F8013B23B1521EC0E9001218467047E2
:1015B0000121C160881E704742685AB1C368016842
:1015C00043B983688B4205D0491E521CC0E9001202
:1015D000002070474FF0FF30704710B5141E73F1B4
:1015E000000408DA401C41F1000192185B411A43E3
:1015F00001D120F0010010BD2DE9F04D92469B462F
:1016000011B1B1FA81F202E0B0FA80F220329046D4
:10161000FFF77EFB04460F4640EA0A0041EA0B0151
:1016200053465A46084313D0114653EA010019D0D5
:10163000C8F140025046FFF77AFB05460E46504679
:1016400059464246FFF764FB084305D0012004E0F9
:1016500020463946BDE8F08D0020054346EAE07695
:101660002C4337430A986305E40AA0EB08000022E4
:10167000FD0A44EA47540A3002D500200146E9E752
:10168000010510196941DDE9084500196941BDE806
:10169000F04DA2E77F2801D9002208E0064A02EBBC
:1016A0005002C007127800D1120902F00F02012087
:1016B0009040084070470000606700080EB540F297
:1016C000334202920022CDE900221346FFF794FF35
:1016D00003B000BD00B58FB04FF480710691D821E2
:1016E000009101904FF4806100200791C90003919F
:1016F0000890099005900B900C900D900A4802F00C
:1017000095F968B941F288326946074800F017FD3B
:1017100030B940F6AC51044801F082FF002800D0F7
:1017200001200FB000BD0000C810002010B51C4CF7
:101730001A482060204600F048FD60BB00F032F8F7
:10174000022060604FF40001042091FAA1F1A06032
:10175000B1FA81F10020491EC4E903016061A06172
:10176000204600F04FFDB0B9204602F011F908B153
:10177000042010BD01210A4802F0A8F858B901213F
:10178000074802F025F830B901206060044800F0F5
:1017900039FD0028EDD0012010BD0000001000A090
:1017A000C8100020154800B5016D87B041F4807164
:1017B0000165016D01F480710591016B41F4807147
:1017C0000163016B21F480710163C16C41F0100170
:1017D000C164C06C694600F0100005904FF47C4075
:1017E00000900220019000200290032003900A2024
:1017F0000490034800F064FA07B000BD00100240F6
:101800000010004830B58FB004464FF48070069049
:10181000EB2000904FF4406007904FF4005003908D
:101820004FF440400890AA200290019100214FF00F
:10183000407009900420CDE90410CDE90A210C91F3
:1018400041F288350D912A466946074800F077FC39
:1018500030B92A462146044800F08EFD002800D009
:1018600001200FB030BD0000C81000202DE9F0436A
:101870008146C8B2C0F580758FB0954200D9154633
:101880008E180C4638204FF4807100904FF4406061
:10189000CDE906104801039000204FF04072CDE9D9
:1018A000080205900B900C9041F2883788460D9005
:1018B00013480A95019402F0B9F880B93A4669468E
:1018C0000F4800F03CFC50B93A4649460C4800F03D
:1018D000B9FD20B939460A4801F0A2FE18B101202D
:1018E0000FB0BDE8F0832C4404F58070A944B042E9
:1018F00001D9351B00E04546B442D9D30020EFE7BB
:10190000C8100020FEE770472DE9F04704464079F3
:10191000002715460E46012809D04FF0010984F82A
:101920000590022020713068042803D044E0022092
:10193000BDE8F0874FF003080DBB00F0A7FA07469B
:1019400005E000BF00F0A2FAC01B01280FD82068F4
:10195000406B0004F6D4012000F0FAF82168B06969
:10196000086416E000F092FAC01B012807D920692C
:1019700040F00800206184F804800320D8E7206844
:10198000406B0028EEDB012000F0E2F82168B0692E
:1019900048642068816C40F2FF32AA409143F269AA
:1019A000AA40114381642068C16CFF22AA40914380
:1019B000326AAA401143C1643069012808D1226803
:1019C000916B1F20A84081437069A8400843906331
:1019D0002268D06B0721A9408843B3683168194356
:1019E000F3681943A9400143D163206801684FF4AB
:1019F0008042AA40914301602268116840F6FC7061
:101A0000A84081437068A8400843106020680168BE
:101A1000C022AA409143016084F8049000206071C4
:101A200086E770B5040003D02079002510B105E0E9
:101A3000012070BD6571204600F008F80220207179
:101A4000256101202071002070BD000010B586B016
:101A5000044614216846FFF70BF9114920688842B3
:101A60001BD11048816D41F000518165816D01F0FD
:101A700000510591C16C41F00101C164C06C69461F
:101A800000F001000590302000900320019000201C
:101A900002904FF0904000F013F906B010BD000026
:101AA000007400400010024018B5046800940068FB
:101AB000104421B1143000900360002018BD08309C
:101AC000F9E730B54279012A12D00122427102238E
:101AD000037103681D6802FA01F425431D600029A3
:101AE00001680B6806D0C3F383430F2B0AD00DE0C7
:101AF000022030BDC3F383030F2B07D14B6843F0A3
:101B0000010302E04B6843F002034B6002710021C5
:101B10004171084630BDC8B101680A6822F00E0262
:101B20000A6001680A6822F001020A6090F8441015
:101B3000036C01F01C02012101FA02F25A6080F8E4
:101B40002510002180F824100846704701207047B6
:101B500070B5044600F09AF90546601C00D0641C7C
:101B600000F094F9401BA042FAD370BD2DE9F04F6C
:101B7000002301270F24DFF820A186E007FA03F6EF
:101B800016EA01027ED005684FEA43084FF0030CC5
:101B90000CFA08FC45EA0C050560DD0800EB850839
:101BA000C346D8F820905D074FEAD56804FA08F5D7
:101BB00029EA0509CBF82090856825EA0C0585609F
:101BC0004568B5434560C56825EA0C05C560C56A2A
:101BD000B543C56223F0030606EB0A05D5F808C035
:101BE0009E07360F04FA06F909EA0C08B0F1904F87
:101BF00006D0DFF8A8C0604505D14FF0010C27E002
:101C00004FF0000C24E0DFF898C0604502D14FF09F
:101C1000020C1DE0DFF88CC0604502D14FF0030CD0
:101C200016E0DFF884C0604502D14FF0040C0FE0ED
:101C3000DFF878C0604502D14FF0050C08E0DFF80E
:101C400070C0604502D14FF0060C01E04FF0070C68
:101C50000CFA06FCC44517D1D5F808C02CEA090CCB
:101C6000C5F808C0134D2E6896432E602D1D2E68B2
:101C700096432E602D1D2E6896432E602D1D2E68D6
:101C8000964300E000E02E605B1C31FA03F27FF423
:101C900075AF00F011B800000000014000040048DA
:101CA00000080048000C00480010004800140048DC
:101CB000001800480004014030BCBDE8C08F00009F
:101CC0002DE9F84FDFF898B100234FF0010C4FF0E9
:101CD000030A4FF00F090BF1040EB9E00CFA03F4FC
:101CE000224070D04D68022D01D0122D0ED1DD089A
:101CF00000EB8508D8F820505E07F70E09FA07F6C2
:101D0000B5430E69BE402E43C8F8206007685E00E8
:101D100091F804800AFA06F508F00308AF4308FAC0
:101D200006F848EA0708C0F800804F68012F05D080
:101D3000022F03D0112F01D0122F13D1D0F8088019
:101D4000CF6828EA0508B74047EA08078760D0F857
:101D500004800F7928EA0408C7F300179F4047EA78
:101D600008074760D1F804806FEA0807BF0706D16B
:101D7000C76AA743C8F3C0049C403C43C462C4681C
:101D8000AC438D68B5402543C5604C68E4005ED522
:101D9000344C256E45F001052566246E23F00305BD
:101DA00004F001040094304C2E19B4689D072F0FE5
:101DB00009FA07F5AC43B0F1904F05D02B4DA8427E
:101DC00004D101251CE042E0002519E0284DA8427D
:101DD00001D1022514E0274DA84201D103250FE0CF
:101DE000254DA84201D104250AE0244DA84201D185
:101DF000052505E0224DA84201D1062500E0072572
:101E0000BD402543B560DBF800405D464E68944315
:101E1000F60300D514432C60DEF8004075464E688A
:101E20009443B60300D514432C600D4D08352C683F
:101E30004E689443F60200D514432C60084D0C35CF
:101E40002C684E689443B60200D514432C605B1C8A
:101E50000A6832FA03F57FF441AF00F013B80000CE
:101E6000000401400010024000000140000400484E
:101E700000080048000C004800100048001400480A
:101E80000018004818BCBDE8E08F00000148006859
:101E9000704700000800002002480168491C0160EA
:101EA000704700000800002010B5032000F05EF825
:101EB000002000F005F800F017F8002010BD000029
:101EC00010B5044607484FF47A710068B0FBF1F092
:101ED00001F034F800222146501E00F027F80020BF
:101EE00010BD00000C000020094808B5016E41F04B
:101EF00001010166016E01F001010091816D41F067
:101F000080518165806D00F08050009008BD000018
:101F10000010024000F01F020121914040098000A2
:101F200000F1E020C0F8001170470000F0B40E4B43
:101F30001B680C46C3F30223C3F10705042D00D927
:101F40000425191D072901D2002300E0DB1E01260C
:101F500006FA05F1491E214099409E40761E164022
:101F60003143F0BC01F04ABB0CED00E0064900F043
:101F7000070208684FF6FF03184040EA0220034AB0
:101F800010430860704700000CED00E00000FA0507
:101F90001549B0F5007F0868C0F3412009D0022838
:101FA00005D0086820F4C06040F48060086000201C
:101FB00070470128FBD0086820F4C06040F400702E
:101FC00008600A480A4A0068B0FBF2F03222504327
:101FD00000E0401E10B14A695205FAD44869400534
:101FE000E5D5032070470000007000400C00002081
:101FF00040420F000248006800F4C06070470000D3
:1020000000700040F8B504460025FFF73FFF064684
:1020100094F83900800736D5002084F8380020680D
:10202000016849070BD5016821F004010160606B6C
:10203000FFF771FD18B1E06B40F00400E063206829
:10204000016841F002010160206C009033460122DA
:102050000221204601F0C6FC050014D121680220AF
:10206000C860206C0090334600222021204601F0F9
:10207000B9FC050007D12068416921F04061416148
:10208000012084F839002846F8BD00002DE9F84FFA
:102090001E4615468A460446FFF7F8FE814694F828
:1020A000380001280ED0012784F8387094F83900E0
:1020B0004FF00008012807D05FF0020084F8388054
:1020C00000F03AB80220FBE7C4F83C80422084F8D4
:1020D00039004B46002220212046009601F082FC68
:1020E0000028EBD121682868886221686868486206
:1020F0002168A868C86220682969026822F4400241
:1021000042F4800211430160E968CAF828104FF0D8
:1021100000625146204601F0ABFA4B4601220821ED
:102120002046009601F05EFC0028C7D122680821F5
:10213000D16084F83970C1E718BCBDE8E08F2DE9A3
:10214000F84F17468B460446FFF7A0FE824694F8E8
:10215000380001280ED0012684F8386094F8390040
:102160004FF00008012807D0022584F8388028465F
:1021700000F028B80220FBE7C4F83C804FF00209C9
:1021800084F839905346002220212046009701F020
:1021900029FC0500E9D100225946204601F068FAE1
:1021A000DBF8240058B9534601220221204600974B
:1021B00001F018FC0500D8D12168C1F80C9084F812
:1021C0003960D2E718BCBDE8E08F10B5040015D027
:1021D00094F83800012813D0012084F838002068D2
:1021E000016821F001010160204600F063F8002041
:1021F000E06384F8390084F8380010BD012010BD78
:10220000022010BDF8B50446FFF740FE06465CB15B
:1022100094F83800012809D0012784F8387094F820
:102220003900002520B10BE00120F8BD0220F8BDE7
:1022300084F83850204600F05BF841F28830206482
:1022400020680168A2686FF0FF0321F4706103EB5E
:10225000022211430160206C0090334600222021AD
:10226000204601F0BFFBE8B921680A680F4B1A400D
:10227000237942EA0362E3681A430A60D4E905124B
:102280001143226853680A4E3340268A43EA0643C4
:102290001943516021680A6842F001020A60E5634F
:1022A00084F8397084F83850F8BD0000EFFFFF0063
:1022B000FEF8E0FF10B50068094988420FD10948CF
:1022C000016D21F48071016503210748FFF74EFC81
:1022D000BDE810404FF440610448FFF747BC10BD13
:1022E000001000A000100240000400480010004848
:1022F000F0B587B0044614216846FEF7B9FC1A49C8
:10230000206888422DD11948016D41F48071016522
:10231000016D01F480710591C16C41F00201C1644D
:10232000C16C01F002010591C16C41F01001C16462
:10233000C06C0324022500268DE8700000F0100018
:102340000A27CDE90470694603940948FFF7B8FCF1
:10235000A0028DE86100CDE9034769460548FFF713
:10236000AFFC07B0F0BD0000001000A0001002405C
:1023700000040048001000482DE9F84F15460F46AC
:102380000446FFF783FD82462068816994F838206F
:1023900000F12009012A0DD0012684F8386094F854
:1023A00039204FF00008012A06D0022084F8388036
:1023B00000F044B80220FBE7C4F83C80BFB32222FF
:1023C00084F839200269521C22630269521CE262BD
:1023D000A762426922F0406242F080624261206856
:1023E00081610EE00621204601F0FCFAE0B999F87F
:1023F0000000A16A0870A06A401CA062206B401E09
:102400002063206B53464FF0010200950028E9D16C
:102410004FF00201204601F0E5FA28B921680220B8
:10242000C8602046FFF7EEFD84F83960BEE7FFE79D
:10243000E06B40F00800E0630120B7E718BCBDE89E
:10244000E08F00002DE9F84F15460F460446FFF7D0
:102450001DFD8246206894F8381000F120090129FA
:102460000ED0012684F8386094F839104FF0000837
:10247000012907D05FF0020084F8388000F040B8EE
:102480000220FBE7C4F83C809FB3122184F8391086
:102490000169491C61620169491C2162E761416966
:1024A00021F0406141610EE00421204601F09AFADA
:1024B000E0B9E069017889F80010E069401CE0614A
:1024C000606A401E6062606A53464FF001020095E8
:1024D0000028E9D14FF00201204601F083FA28B923
:1024E00021680220C8602046FFF78CFD84F839601F
:1024F000C2E7FFE7E06B40F00800E0630120BBE7C4
:1025000018BCBDE8E08F00002DE9F84F0446002715
:102510000088E54D3E46010504F1200B1DD5606E97
:1025200078B1B0F5800F11D0B0F5000F04D0B0F540
:10253000400F22D001270FE0E86840F48030E860C7
:102540001BE00021201D01F0A5FA03E00021584600
:1025500001F036FB070010D03E462088C00426D587
:10256000A06EC0B1B0F1807F1AD0B0F1007F0DD065
:10257000B0F1407F19D0012718E0D5F88800616ECE
:1025800020F440000843C5F88800E6E7E86840F416
:102590008030E86009E00021201D01F07BFA03E0B3
:1025A0000021584601F00CFB0746F7B13E46206873
:1025B00080033AD5A86D4FF00008C00009D4A86D7B
:1025C00040F08050A865A86D4FF0010800F08050E1
:1025D0000090DFF8D8A2DAF8001041F48071CAF850
:1025E0000010FFF753FC814610E0D5F88800A16E7B
:1025F00020F040700843C5F88800D8E7FFF746FC94
:10260000A0EB0900022801D9032705E0DAF8000051
:10261000C005F3D5002F7CD04FEA0706B8F1000FB4
:1026200003D0A86D20F08050A8652078C00707D09F
:10263000D5F88800A16B20F003000843C5F8880096
:102640002078800707D5D5F88800E16B20F00C00D2
:102650000843C5F888002078400707D5D5F88800DA
:10266000216C20F030000843C5F88800207800076E
:1026700007D5D5F88800616C20F0C0000843C5F884
:1026800088002078C00607D5D5F88800A16C20F412
:1026900040700843C5F888002078800607D5D5F833
:1026A0008800E16C20F440600843C5F88800208869
:1026B000800507D5D5F88800E16D20F44020084357
:1026C000C5F888002088400507D5D5F88800216E18
:1026D00020F440100843C5F888002078400607D54C
:1026E000D5F88800216D20F440500843C5F88800D3
:1026F0002078000607D5D5F88800616D20F44040A9
:102700000843C5F888002088C00509D5D5F8880099
:1027100000E01CE0A16D20F440300843C5F88800BB
:1027200020884FF0006780044FF080684FD5D5F8BF
:102730008800E16E20F040600843C5F88800E06E34
:10274000B8423CD1E86840F48010E8603FE0D5F83A
:10275000900010F4407015D0D4F88410814211D04C
:10276000D5F89000D5F8901020F4407041F48031F5
:10277000C5F89010D5F8901021F48031C5F890106C
:10278000C5F89000C00710D0FFF780FB074641F264
:10279000883906E0FFF77AFBC11B494501D90326BA
:1027A0003CE7D5F890008007F4D5D5F89000D4F830
:1027B000841020F440700843C5F890002EE740458F
:1027C00005D10121201D01F065F900B10646206800
:1027D000000317D5D5F88800216F20F0406008432A
:1027E000C5F88800206FB84204D1E86840F4801032
:1027F000E86007E0404505D10121201D01F04AF9BC
:1028000000B106462068400317D5D5F88800616FEF
:1028100020F040600843C5F88800606FB84204D1DA
:10282000E86840F48010E86007E0404505D10121E8
:10283000201D01F02FF900B10646208840041AD56A
:10284000D5F88800A16F20F040500843C5F88800F3
:10285000A06FB0F1805F03D0B0F1005F05D00AE057
:102860000221201D01F016F903E00221584601F073
:10287000A7F900B106462088000407D5D5F88800DE
:10288000E16F20F080400843C5F888002068C0034D
:1028900007D555F8880FD4F8801020F00040084381
:1028A0002860304600F004B800100240007000407C
:1028B00018BCBDE8E08F00002DE9F0470F46050089
:1028C00058D03E4E306800F00700B84209D2306858
:1028D00020F0070038433060306800F00700B8424D
:1028E00048D12878364CC0072CD06868032811D00E
:1028F000022812D0216898B1490500293ADAA16866
:1029000021F003010143A160FFF7C0FA804641F2C4
:10291000883910E021688901EFE721688903ECE735
:102920008907EAE7FFF7B2FAA0EB0801494502D9A7
:102930000320BDE8F087A068696800F00C00B0EBE8
:10294000810FEFD12878800705D5A068A96820F00D
:10295000F0000843A060306800F00700B8420BD9CF
:10296000306820F0070038433060306800F007001E
:10297000B84201D00120DCE72878400705D5A068DF
:10298000E96820F4E0600843A0602878000706D5D5
:10299000A068296920F4605040EAC100A06000F0FE
:1029A00035F8A168074AC1F30311515CC8400649D4
:1029B00008600020FFF784FA0020BAE700200240F8
:1029C00000100240145F00080C0000200448054974
:1029D00000688968044AC1F30221515CC84070470D
:1029E0000C00002000100240545F00080448054914
:1029F00000688968044AC1F3C221515CC84070472D
:102A00000C00002000100240545F000830B52D4932
:102A1000002318468A682C4C12F00C0F4FEA64050C
:102A200014D08A68C2F38102032A04D1CA6802F072
:102A30000302012A0AD08A68C2F38102012A19D04E
:102A40008A68C2F38102022A16D016E00A681207C9
:102A500004D4D1F89420C2F3032202E00A68C2F33E
:102A600003121A4B53F822308A6812F00C0F04D16B
:102A7000184602E0204600E028468A68C2F3810238
:102A8000032A1DD1C868CA6800F00300C2F302120D
:102A9000521C022804D0032805D0B3FBF2F004E056
:102AA000B4FBF2F001E0B5FBF2F0CA68C968C2F30A
:102AB00006225043C1F34161491C4900B0FBF1F0CB
:102AC00030BD0000001002400024F400245F000824
:102AD0002DE9F84304007DD02078FF4DC0065DD578
:102AE000A86810F00C0F0AD0A0690028286873D0DD
:102AF00040F001002860FFF7C9F9064655E0286854
:102B0000800702D5A0690028E5D0216A286800075F
:102B100003D5286800F0F00004E0D5F89400F02216
:102B200002EA1010814216D9084601F0CDF80028BB
:102B300050D1286840F0080028602868216A20F0F9
:102B4000F000084328606868E16920F47F4040EAAB
:102B50000120686015E0286840F0080028602868B7
:102B6000216A20F0F000084328606868E16920F4D9
:102B70007F4040EA01206860206A01F0A5F8002843
:102B8000D6D1FFF743FFA968D44AC1F30311515CC2
:102B9000C840D34908600020FFF792F92CE000BF3D
:102BA000FFF774F9801B02287ED828688007F7D5C4
:102BB000286840F0080028602868216A20F0F000AA
:102BC000084328606868E16920F47F4040EA0120FA
:102BD000686011E0B2E0FFE720F001002860FFF735
:102BE00055F9064605E000BFFFF750F9801B0228A3
:102BF000DAD828688007F7D42078C00748D0A868BA
:102C0000C0F3810002281DD0A868C0F3810003280A
:102C100003D1E868C043800714D06068B0F5803FF6
:102C200017D0B0F5A02F286817D020F48030286086
:102C3000286820F4802028606068E0B1FFF726F95A
:102C4000064614E02868800322D56068002875D005
:102C50001EE0286840F48030EDE740F480202860D2
:102C6000F7E700BFFFF712F9801B64289CD828689B
:102C70008003F7D50CE0FFF709F9064605E000BF31
:102C8000FFF704F9801B64288ED828688003F7D4E6
:102C90002078800742D5A868C0F38100012816D0AB
:102CA000A868C0F3810000E0A9E0032804D1E86827
:102CB00000F0030002280AD0E068002828681DD030
:102CC00040F480702860FFF7E1F806460BE02868C2
:102CD00040050BD5E0680028B9D007E0FFF7D6F82B
:102CE000801B022884D828684005F7D56868217CB5
:102CF00020F0F85040EA016068600FE020F4807036
:102D00002860FFF7C3F8064605E000BFFFF7BEF8EE
:102D1000801B022873D828684005F7D42078000764
:102D200029D560690028D5F8940013D040F001003F
:102D3000C5F89400FFF7AAF8064606E0FBE000BFDE
:102D4000FFF7A4F8801B022859D8D5F89400800713
:102D5000F6D510E020F00100C5F89400FFF796F8D2
:102D6000064604E0FFF792F8801B022847D8D5F802
:102D700094008007F6D42078400763D5A86D00261C
:102D8000C00008D4A86D40F08050A865A86D012649
:102D900000F08050009053480168C90511D40168C3
:102DA000804641F480710160FFF770F8074604E047
:102DB000FFF76CF8C01B022821D8D8F80000C00526
:102DC000F6D5A068012815D00528D5F8900017D0B1
:102DD00020F00100C5F89000D5F8900020F0040024
:102DE000C5F89000A06841F28838C8B1FFF74EF8E6
:102DF000074610E0D5F8900040F00100F0E777E0DA
:102E000040F00400C5F89000F4E700BFFFF73EF87B
:102E1000C11B41456CD8D5F890008007F6D50CE071
:102E2000FFF734F8074604E0FFF730F8C11B4145CF
:102E300079D8D5F890008007F6D41EB1A86D20F09F
:102E40008050A865A06AE0B3A968C1F38101032995
:102E500072D00228286820F08070286011D028687D
:102E6000000106D42868800003D4E86820F003003D
:102E7000E860E8681C490840E860FFF707F8044686
:102E800054E0FFF703F8064605E000BFFEF7FEFF3B
:102E9000801B022847D828688001F7D4206BE16A9C
:102EA000000110380843616BA26B0902120941EA64
:102EB00042410843A18F0D4A490802EB41510843A2
:102EC00000E036E094F840104908120102EB41613D
:102ED0000843E86028680CE000100240145F000816
:102EE0000C00002000700040FFFFEEFE0000E0FF3D
:102EF00019E040F080702860E86840F08070E86079
:102F0000FEF7C4FF044604E0FEF7C0FF001B0228E2
:102F100009D828688001F7D50BE000BFFEF7B6FF9F
:102F2000001B022802D90320BDE8F883286880012D
:102F3000F4D40020F8E7FFE70120F5E710B5401EC4
:102F4000B0F1807F01D3012010BD4FF0E02460611B
:102F50000F21601700F052FB0020A06107202061C4
:102F6000002010BD704770477047000070B590F8A2
:102F70003C20012A24D0012480F83C40022280F821
:102F80003D200268536895680E4EB24202D00E4E44
:102F9000B24203D123F470064B68334323F070062A
:102FA0000B688968334325F0800529435360026824
:102FB000916080F83D40002180F83C10084670BDCB
:102FC000022070BD002C01400034014010B5040007
:102FD00003D094F83D0010B107E0012010BD00209F
:102FE00084F83C00204600F00DF8022084F83D00F3
:102FF000211D206800F09EFF012084F83D00002084
:1030000010BD000008B50068B0F1804F12D10A4829
:10301000816D41F001018165806D002200F00100A9
:10302000009011461C20FEF781FFBDE808401C20DF
:10303000FEF770BF08BD0000001002400168CA68BA
:1030400042F00102CA600068826807490A40062A05
:1030500008D082680A40B2F5803F03D0016841F091
:103060000101016000207047070001000168CA6883
:1030700022F00102CA600068016A41F21112114295
:1030800007D1016A9210114203D1016821F00101B8
:10309000016000207047000070B5044690F83C00C5
:1030A000012817D0012584F83C50022084F83D0007
:1030B00020688268324E324022F47F428260086883
:1030C000502839D00DDC202855D005DC98B31028C5
:1030D00043D150E0022070BD30284CD040283CD174
:1030E00041E0602830D070280CD0B0F5805F03D06C
:1030F000B0F5005F31D112E020688168204A70325B
:10310000114016E0CB68D1E90121206800F072FF80
:1031100021688868304040F0770088601DE0CB6807
:10312000D1E90121206800F065FF2068816841F441
:103130008041816011E01EE0CA684968206800F0A3
:103140006BFF5021206806E0CA684968206800F0DB
:1031500074FF6021206800F057FF84F83D50002084
:1031600084F83C0070BDCA684968206800F054FFCC
:1031700040212068EFE7226801461046EBE7000097
:1031800088FFFEFF704770B50446006801694FF084
:103190000005C943890715D4C168C943890711D4FB
:1031A000E91E0161012020772068806980072046A0
:1031B00002D0FFF7E7FF04E000F0A7F8204600F098
:1031C000A5F8257720680169C943490717D4C16864
:1031D000C943490713D46FF004010161022020772D
:1031E0002068806910F4407F204602D0FFF7CAFFB4
:1031F00004E000F08AF8204600F088F8257720687F
:103200000169C943090716D4C168C943090712D423
:103210006FF008010161042020772068C0698007F1
:10322000204602D0FFF7AEFF04E000F06EF8204623
:1032300000F06CF8257720680169C943C90617D4E6
:10324000C168C943C90613D46FF010010161082099
:1032500020772068C06910F4407F204602D0FFF735
:1032600091FF04E000F051F8204600F04FF8257778
:1032700020680169C943C90708D1C168C943C907A2
:1032800004D1891E0161204600F041F820680169DF
:10329000C943090609D4C168C943090605D46FF0BA
:1032A000800101612046FFF75EFE20680169C94385
:1032B000C90509D4C168C943090605D46FF48071F2
:1032C00001612046FFF74EFE20680169C9434906A7
:1032D00009D4C168C943490605D46FF040010161B2
:1032E000204600F015F820680169C94389060BD40F
:1032F000C168C943890607D46FF0200101612046E7
:10330000BDE87040FFF730BE70BD70477047704732
:10331000704710B5040003D094F8710010B107E0B5
:10332000012010BD002084F87000204600F026F82F
:10333000242084F871002068016821F001010160F7
:10334000204600F01FFF0128EBD0606A10B1204634
:1033500000F085FE2068416821F4904141602068BA
:10336000816821F02A0181602068016841F0010133
:1033700001602046BDE8104000F0D5BE10B586B013
:10338000044614216846FDF773FC12492068884200
:103390001ED11148016E41F480410166016E01F4B5
:1033A00080410591C16C41F00201C164C06C694665
:1033B00000F002000590C020009002200190002043
:1033C000029003200390072004900448FEF778FC45
:1033D00006B010BD00380140001002400004004853
:1033E0002DE9F84F044690F872009A4616460D46AD
:1033F000202865D1EDB1E6B194F8700001285FD0C6
:10340000012084F8700000276767222084F872008A
:103410005434FEF73BFDA6808146E68054F84C0C00
:103420004FF48058FF21543C404508D1206918B121
:103430000DE0012000F046B840F2FF100DE07F22C1
:1034400018B1B0F1805F05D009E0206950B9A4F847
:103450005C1004E0206928B13F20A4F85C00B4F8B7
:103460005C601CE0A4F85C20F9E74B4600222021B8
:103470002046CDF800A000F0D5FF08B10320D9E721
:10348000A068404501D12069A0B12068808C3040FF
:1034900005F8010BB4F85A00401EA4F85A00B4F81D
:1034A0005A000028E1D1202084F8720084F870705E
:1034B0000020BFE72068808C304025F8020BE9E748
:1034C0000220B7E718BCBDE8E08F2DE9F8430446B9
:1034D00090F871001F4616460D4620284BD1C5B105
:1034E000BEB194F87000012845D0012084F8700026
:1034F0004FF00008C4F87480212084F87100FEF7B2
:10350000C5FCA4F850608146A4F852604FF4805680
:1035100015E00120BDE8F8838021204600F082FFFD
:10352000D8B9A068B04201D12069C0B115F8010B2B
:1035300021680885B4F85200401EA4F85200B4F87F
:1035400052004B464FF0000200970028E4D14FF0A4
:103550004001204600F066FF30B10320DAE735F87D
:10356000020BC0F30800E3E7202084F8710084F820
:1035700070800020CEE70220CCE7FEE710B588B0CF
:103580000024114800940194029403940494059437
:103590004FF080410694C0E9001441F28831C0E93F
:1035A000024104618461FFF711FD4FF480500090E7
:1035B00069460548FFF770FD049404A90248069483
:1035C000FFF7D4FC08B010BD70000020094808497E
:1035D00001604FF4E1314160002181600C22C16043
:1035E000C0E904128161C16101624162FFF791BECD
:1035F00000380140B0000020FEE770470907090EBF
:10360000002806DA00F00F0000F1E02080F8141D19
:10361000704700F1E02080F8001470477047000008
:1036200000B595B04FF48070069005200090002002
:103630004FF08072CDE9080205900122CDE90E021B
:1036400007900B900C900D90CDE911201020109058
:1036500080040B4613900EAA69460448FEF716FD37
:10366000002800D0012015B000BD0000C8100020C7
:10367000F0B54B6A4FF040652BB1AA4203D08B6A7C
:1036800004685B1E23618C690B6A002C57D05BB306
:1036900004688B68E361CC69B4B1D1E90B3633437C
:1036A0004F6A4E6B3E4333438E8A43EA86430E692C
:1036B00033430E6A3343CE68334323438C6924E09B
:1036C000006849688161F0BDD1E90B3423434D6A3C
:1036D0004C6B2C4323438C8A43EA84430C69234379
:1036E0000C6A23438C6923E0CE69BEB1D1E90B3764
:1036F0003B43D1F824C04F6B47EA0C073B438F8A0A
:1037000043EA8743CF683B43334323430C68234357
:10371000046813436361AA42D2D1F0BDD1E90B35ED
:103720002B434E6A4D6B35432B438D8A43EA8543C9
:103730000968234300680B4313434361F0BD3BB367
:1037400004688B68E361CC6994B1D1E90B363343EB
:103750004F6A4E6B3E4333438E8A43EA86430E697B
:1037600033430E6A3343CE68334323438C69CEE739
:10377000D1E90B3423434D6A4C6B2C4323438C8A91
:1037800043EA84430C6923430C6A89692343D1E7E4
:10379000CC6964B1D1E90B3633434F6A4E6B3E437B
:1037A00033438E8A43EA8643CE683343AFE74B6A9E
:1037B000002BC3D0D1E90B452C434D6B898A1D43A7
:1037C0002C43006844EA814111434161F0BD00008F
:1037D0002DE9F04190B04FF48070069005200090E4
:1037E00000200C464FF0807101250590CDE90801BD
:1037F000CDE90A5007900C9041F288360D90324680
:1038000069463148FEF79BFC00285BD1B046324642
:103810000EA92D48FEF7B0FD002853D1022715262A
:103820000A974246694628480096FEF788FCE8BB9E
:1038300042460DF139012448FEF79EFDB0BB2248F7
:1038400000F0F4F890BB9DF83A00012C0FD020F066
:10385000020000BF8DF83A00009503200A9045460B
:10386000424669461848FEF76AFCF8B902E040F0A3
:103870000200EFE72A460EA91348FEF7E3FDA8B9B8
:1038800029461148FFF7CCFE80B90A972A466946B7
:103890000D480096FEF753FC40B92A460EA90A4887
:1038A000FEF76AFD10B99DF8390000E00AE08107D3
:1038B00003D4012C06D0800700D51CB1002010B025
:1038C000BDE8F0810120FAE7C8100020F0B58FB004
:1038D0004FF480700690002005260D4600964FF0AC
:1038E000807101240590CDE90801CDE90A400790D7
:1038F0000C9041F288370D903A4669462348FEF70E
:103900001EFCE0BB3A460EA92048FEF735FDB0BBD1
:103910001E4800F08BF890BB9DF83800012D0CD0AC
:1039200020F040008DF8380000943C463A46694645
:103930001648FEF704FC10BB02E040F04000F1E73F
:1039400022460EA91148FEF77DFDC0B921460F4859
:10395000FFF766FE98B9224669460C480096FEF7C6
:10396000EEFB60B922460EA90848FEF705FD30B906
:103970009DF83800400603D4012D05D001E003E096
:1039800015B100200FB0F0BD0120FBE7C8100020EA
:1039900010B58EB04FF48070069066200090002025
:1039A00007900890099005900B900C9041F2883494
:1039B0000D90224669460A48FEF7C1FB68B9992076
:1039C0000090224669460648FEF7B9FB28B9214611
:1039D0000348FFF725FE002800D001200EB010BDDF
:1039E000C81000202DE9F041984616460F460446BF
:1039F000069D08E0681C06D0FEF748FAA0EB080018
:103A0000A8420AD84DB120688068384000D0012013
:103A1000B042EFD10020BDE8F081042084F83900E5
:103A2000E06B40F00100E0630120F4E730B595B0B1
:103A300000244FF4807006900620059407940894A3
:103A400041F28835009009940B940C942A466946FB
:103A50000D940F48FEF773FBB0B902200E900F9043
:103A60000120CDE91104102010908004139005204E
:103A700000904FF0807009902B460EAA69460448CA
:103A8000FEF704FB002800D0012015B030BD000077
:103A9000C81000202DE9F041444C05468846E068F6
:103AA0000026810728680DD0E16801F003018142FA
:103AB00016D1A8B1E0686968C0F30210401C8842C2
:103AC0000ED120E0012804D0022805D0032807D118
:103AD00008E02168890701E021684905002907DB22
:103AE00001265FE02168890302D421684903F5E7D4
:103AF000E1686A686FF00F0321F0730103EB0212B3
:103B000011430143E160206820F080602060FEF7EF
:103B1000BDF9074605E000BFFEF7B8F9C01B022853
:103B200037D820680001F7D4B8F1000F18D0B8F1E9
:103B3000010F1ED0287D4FF07E41400801EB406010
:103B4000A96840EA01202169194A1140084320610F
:103B5000206840F080602060FEF798F907461AE080
:103B6000A868E9680002090940EA41402169114A50
:103B7000EBE7288A1049400801EB4050A96840EA69
:103B8000012021690D4AE0E7FEF780F9C01B0228F9
:103B900001D9032606E020680001F5D52069A9694E
:103BA000084320613046BDE8F0810000001002406B
:103BB000FF80FFF9FF80FDFF0000E0FFFF809FFF17
:103BC0002DE9F0413D4C06468846E0680025810716
:103BD00030680DD0E16801F00301814216D1A8B12F
:103BE000E0687168C0F30210401C88420ED120E0EA
:103BF000012804D0022805D0032807D108E0216855
:103C0000890701E021684905002907DB012551E00A
:103C10002168890302D421684903F5E7E1687268E5
:103C20006FF00F0321F0730103EB02121143014304
:103C3000E160206820F080502060FEF727F90746F9
:103C400005E000BFFEF722F9C01B022829D8206832
:103C50008000F7D4B8F1000F15D0307C4FF07E41D2
:103C6000400801EB4060B16840EA01206169144AF4
:103C7000114008436061206840F080502060FEF7EA
:103C800005F907460FE0B068F1680002090940EA4B
:103C9000414061690B4AEBE7FEF7F8F8C01B0228C8
:103CA00001D9032506E020688000F5D560697169B7
:103CB000084360612846BDE8F08100000010024022
:103CC000FF80FFF9FF80FDFFF8B51C4D064600247C
:103CD000A86DC00002D5FEF78DF90DE0A86D40F08B
:103CE0008050A865A86D00F080500090FEF782F922
:103CF000A96D21F08051A965B0F5007F04D0802E18
:103D000007D94FF003040AE0802E08D9A02E01D86D
:103D100004E001D1022402E0702E00D10124084801
:103D2000016821F0070121430160006800F00700ED
:103D3000A04201D00120F8BD0020F8BD00100240D3
:103D4000002002407047FEF7A7B830B5B9B0442153
:103D500022A8FCF78DFF142133A8FCF789FF8821E6
:103D60006846FCF785FF1020012522900024289545
:103D70006020CDE9294002202821CDE92C05CDE99C
:103D80002E510721CDE93010329022A8FEF7A0FE77
:103D90000F2033900320CDE934043694042133A856
:103DA0003794FEF789FD684600950E94FEF7ACFB4C
:103DB0006802FEF7EDF839B030BD00000D4801682B
:103DC00041F4700101600C48016841F0010101609B
:103DD000002181600268094B1A4002608214C260AF
:103DE000026822F48022026081610249C0038039A6
:103DF0000860704788ED00E000100240FFFFF6EA1F
:103E00007CB54548FFF7BFF94448454C006840B1D0
:103E1000444E454D01283AD0022816D003282FD110
:103E200049E0012268462168FDF7ECFC9DF800306E
:103E3000082200213D48FDF737FE2168481C20601C
:103E40000122684601F5FA4111E021680122684625
:103E500001F5FA31FDF7D6FC9DF80030082200216B
:103E60003248FDF721FE3249206801441EE0FDF78B
:103E7000C9FC9DF80030082210212C48FDF714FEE3
:103E80002068B0F5FA4F01D1002020607CBD206889
:103E9000012281196846FDF7B5FC9DF80030082223
:103EA00000212248FDF700FE20684119401C2060D7
:103EB00001226846DBE7012201A82168FDF7A2FC88
:103EC0002068012281196846FDF79CFC9DF80000DE
:103ED0009DF804100822401A7F3080F30803002167
:103EE0001248FDF7E1FD21680122481C206001A86D
:103EF00001F5FA41FDF786FC206801224119684668
:103F0000FDF780FC9DF800009DF80410401A7F30FA
:103F100080F30803AFE700007000002000000020DD
:103F200004000020006B030000650400180000205E
:103F3000007102002DE9F0470268264B264D274EFE
:103F4000274F284C4FF0804A984209D0504507D05F
:103F5000A84205D0B04203D0B84201D0A04204D15B
:103F600022F0700C4A6842EA0C02DFF87CC0DFF8ED
:103F70007C80DFF87C9098420FD050450DD0A8424D
:103F80000BD0B04209D0B84207D0A04205D060455E
:103F900003D0404501D0484503D122F44075CA689A
:103FA0002A434D6922F080022A4302608A68C26275
:103FB0000A688262984207D0A04205D0604503D0CB
:103FC000404501D0484501D10969016301214161A2
:103FD000BDE8F087002C01400004004000080040CC
:103FE000000C00400034014000400140004401400A
:103FF0000048014010B5846842EA032224F47F445B
:104000000A432243826010BD826822F070020A4394
:1040100042F007018160704710B5036A046A24F01A
:1040200001040462846924F0F00444EA021423F0D9
:104030000A020A438461026210BD10B5036A23F0CC
:10404000100303628369046A23F4704343EA023273
:1040500024F0A00343EA01118261016210BD90F8CF
:104060002410C90706D001684A68836A22F4003226
:104070001A434A6090F82410890706D501684A68F7
:10408000C36A22F480321A434A6090F82410490728
:1040900006D501684A68036B22F480221A434A60FD
:1040A00090F82410090706D501684A68436B22F48A
:1040B00000421A434A6090F82410C90606D50168E8
:1040C0008A68836B22F480521A438A6090F8241025
:1040D000890606D501688A68C36B22F400521A4328
:1040E0008A6090F82410490611D501684A68036C6B
:1040F00022F480121A434A60016CB1F5801F06D188
:1041000001684A68436C22F4C0021A434A6090F87E
:104110002410090606D501684A68806C22F4002242
:1041200002434A607047F8B5002604464667FDF72B
:10413000ADFE0546206800686FF07E47000708D591
:104140002B4600224FF400112046009700F06AF938
:1041500060B92068006840070AD52B4600224FF45A
:1041600080012046009700F05DF908B10320F8BDFA
:10417000202084F8710084F8720084F870600020B8
:10418000F8BD00002DE9F04104460168806823690C
:10419000E669184363691025002733431843954A9D
:1041A0000B68954E334003430B6020684168E36819
:1041B00021F44051194341602168A069914201D026
:1041C000236A18438B6823F4306303438B608B4B63
:1041D00021688B4899420DD1D0F8880010F0030077
:1041E00006D001285AD0022856D0032859D157E0CA
:1041F000012556E0834B99420BD1D0F8880010F08E
:104200000C0047D0042849D0082845D00C2848D1B4
:1042100046E07D4B99420BD1D0F8880010F0300079
:1042200038D010283AD0202836D0302839D137E07D
:10423000764B99420BD1D0F8880010F0C00029D0FD
:1042400040282BD0802827D0C0282AD128E0704BC6
:1042500099420ED1D0F8880010F440701AD0B0F511
:10426000807F1BD0B0F5007F16D0B0F5407F18D10D
:1042700016E0914215D1D0F8880010F4406009D0C2
:10428000B0F5806F0AD0B0F5006F05D0B0F5406F83
:1042900007D105E0002504E0022502E0042500E046
:1042A00008255C4B00264FF4004091423DD135B1CA
:1042B000022D07D0042D07D0082D10D107E0FEF7FE
:1042C00085FB03E0184602E0FEF7A0FBA8B3626896
:1042D00002EB4201814202D8B0EB023F01D9012733
:1042E00075E0DFF834815DB1022D0CD0042D13D0C0
:1042F000082DF4D150082905401846F1000105E0C9
:10430000FEF764FB0AE050084449F5E70023FCF798
:1043100074FCA0F5407156E0FEF778FB6268010E70
:104320000302500818187141F0E7E1694FF6EF7881
:1043300081422FD1092DD2D200E048E0DFE805F01C
:1043400006092005230505052600C8E7FEF73EFB04
:1043500001E0FEF74BFB4100D4F8040001EB5001F3
:10436000B1FBF0F080B2A0F110014145B7D84FF693
:10437000F0710140C0F3420001432068C16026E0B3
:1043800027496068EAE7FEF741FBE4E74FF4803134
:104390006068E3E7092DA2D2DFE805F006091E05F3
:1043A0002205050525009AE7FEF710FB01E0FEF760
:1043B0001DFB0146606801EB500100BFB1FBF0F04E
:1043C00080B2A0F11001414589D82168C8602666F5
:1043D00038466666BDE8F081606803EB5001EDE7A2
:1043E000FEF714FBE5E7616800EB5100B0FBF1F06C
:1043F000E6E7000000800040F369FFEF003801406D
:10440000001002400044004000480040004C0040C2
:10441000005000400024F400FFFC0F00000024F4D2
:104420000048E8012DE9F041984617460E4604463B
:10443000069D1DE0681C1BD02DB1FDF727FDA0EBEC
:104440000800A84214D92068016821F4D0710160E5
:104450002068816821F001018160202084F87100CA
:1044600084F87200002084F870000320BDE8F08119
:104470002068C06936EA000004D00020B842D9D0D4
:104480000020F3E70120F9E7FEE700000FB4054B39
:1044900010B503A9044A029800F00EF910BC5DF8AB
:1044A00014FB0000154E0008100000200000000062
:1044B00030B583B0044600F017F89FED090B0546B0
:1044C0008DED000B002221466846FCF75CFC284677
:1044D00000F020F89DED000B03B030BD000000009F
:1044E0000000000000000000014800687047000064
:1044F0001400002002E008C8121F08C1002AFAD1E7
:1045000070477047002001E001C1121F002AFBD153
:104510007047000001490860704700001400002047
:104520002DE9FF5F82B00021DDE90430020DDDF8E6
:1045300040B0034318D044F61050A2F2FF32424379
:104540001514119801281FD0A5EB0B00401C5FEA41
:10455000000A4FF000064E4FDFF83891B046504643
:1045600015D5CAF1000413E0119801244AA30128CB
:1045700001D16FEA0B010298119AC0E90031C0E93C
:10458000024206B000F08EB8CBF10000DFE704462F
:104590000021404A491842EB0450CDE9001012E0D6
:1045A000E00707D032463B4640464946FCF704FD4B
:1045B0008046894632463B4610461946FCF7FCFCCD
:1045C00006460F466410002CEAD1DDE90401DDE95E
:1045D0000023BAF1000F06DAFCF7EEFC42464B4628
:1045E000FCF7EAFC05E0FCF75CFD42464B46FCF7B5
:1045F00058FD04460E460022284BFCF7D9FD03D88F
:104600004FF0FF30014607E00022254B204631469F
:10461000FCF723FCFCF7B4FD102409E0002C0ADBB6
:104620000A220023FCF7E9FA039B30321A55641E74
:1046300050EA0102F2D1641C039AC4F1110314443C
:10464000119A012A03D0012208430DD10AE0084340
:1046500004D000204FF0110B119072E7A3EB0B0573
:104660006D1E0DE05B4504DD4FF0000205F1010514
:1046700004E003DA4FF00002A5F10105002AECD0B6
:1046800002981199C0E90231C0E9004579E70000BC
:10469000000014400000F03F300000000000F04334
:1046A0000000E03F30BCBDE8C09F30380A2801D28E
:1046B00001207047002070472DE9FF4F95B09B46C1
:1046C0008946064600250FE2252877D10024274693
:1046D000F84A0121059400E0044316F8013F203B0D
:1046E00001FA03F01042F7D130782A2811D06FF088
:1046F0002F033078A0F13002092A16D8059A44F029
:10470000020402EB820203EB42021044761C059085
:10471000EFE759F8042B0592002A03DA504244F4DB
:104720000054059044F00204761C30782E2816D1EF
:1047300016F8010F44F004042A280DD06FF02F0260
:104740003078A0F13003092B09D807EB870302EB7F
:104750004303C718761CF3E759F8047B761C3078BE
:104760006C280FD006DC4C2817D068280DD06A289A
:1047700014D104E0742810D07A280FD10DE044F44D
:1047800000140AE044F4801401E044F44014727808
:10479000824202D104F58014761C761C307866289B
:1047A0000BD013DC582877D009DC002875D04528B9
:1047B000F6D04628F4D047281AD19DE118E06328A6
:1047C00035D0642879D0652812D195E1702873D04E
:1047D00008DC6728F1D069286FD06E280DD06F28CB
:1047E00006D1B5E073282CD0752875D0782874D000
:1047F0005A46179990476D1C75E1C4F30250022880
:1048000009D003280DD0D9F8001004280DD00D6070
:1048100009F1040967E1D9F80010EA17C1E900526B
:10482000F6E7D9F800100D80F2E70D70F0E719F8FF
:10483000041B8DF8001000208DF80100EA460120CD
:1048400003E059F804AB4FF0FF3061074FF000016F
:1048500002D40DE008F101018846B9420FDA804523
:10486000F8DB1AF808100029F4D108E008F101017A
:1048700088468142FADB1AF808100029F6D105981B
:104880005B46A0EB080721463846179A00F097FAD6
:10489000284400EB080507E04DE029E10DE01AF897
:1048A000010B5A4617999047B8F10108F7D25B46B9
:1048B00021463846179A13E142E00A220092C4F3D7
:1048C00002524FF0000A022A08D059F804CB032AFA
:1048D0004FEAEC710AD00DE029E02AE009F1070166
:1048E00021F00702F2E802C1914609E00FFA8CFCC0
:1048F0004FEAEC71042A03D14FFA8CFC4FEAEC71B9
:10490000002907DA0A460021DCF1000C61EB020104
:104910002D2202E0220504D52B228DF8042001224D
:1049200003E0E20701D02022F7E7904659E00A2190
:1049300002E010220DE010214FF0000A00910BE080
:1049400010224FF0000A44F004040827009203E00C
:1049500008224FF0000A0092C4F30252022A05D046
:1049600059F804CB0021032A08D009E009F1070116
:1049700021F00702F2E802C1914605E01FFA8CFC23
:10498000042A01D10CF0FF0C4FF00008220728D5B3
:10499000702806D0009B83F0100353EA0A0305D069
:1049A0000EE040228DF80420012208E05CEA0102BA
:1049B00006D030228DF804208DF8050002229046A2
:1049C000009B83F0080353EA0A030AD15CEA010260
:1049D00001D1620705D530228DF804204FF001087F
:1049E0007F1E582804D034A003900EA802900DE03A
:1049F00036A0F9E753466046009AFCF7FEF8844675
:104A00000398825C0298401E029002705CEA0100EA
:104A1000F0D1029806A9081A00F1200A600702D511
:104A200024F4803400E00127574502DDA7EB0A009B
:104A300000E0002000EB0A01009005984144401A74
:104A40000590E00306D45B462146179A059800F0CE
:104A5000B6F90544002706E001A85A46C05D17993B
:104A600090476D1C7F1C4745F6DBE0030CD55B4689
:104A70002146179A059800F0A2F9054404E0302079
:104A80005A46179990476D1C0099481E00900029BE
:104A9000F5DC08E0029802995A460078491C029118
:104AA000179990476D1CBAF10001AAF1010AF1DCD7
:104AB00065E10000092801003031323334353637E2
:104AC000383961626364656600000000303132335A
:104AD00034353637383941424344454600000000FA
:104AE00000F05BF90544761C307800287FF4ECADCB
:104AF00019B0284600F04EB9620700D4062709F124
:104B0000070222F0070CFCE80223E14603F000480C
:104B10005FEA080C02D00FF2702C0DE05FEA045C33
:104B200002D50FF2682C07E05FEAC47C02D00FF2D6
:104B3000602C01E0AFF2700C4FF0FF3823F000431F
:104B4000CDF850C065280CD006DC452809D0462891
:104B50001DD047283DD13DE0662818D067287ED17A
:104B600038E00021112F01DB112000E0781CCDE995
:104B7000000106A90EA8FFF7D3FCDDE90F010E9A8C
:104B800003910021009207F1010A04914DE04FF0DA
:104B900000400097CDE9011006A90EA8FFF7C0FC60
:104BA000DDE90F0203920E9B11990022DDF80CA0A3
:104BB0000093049211B9791C00EB010AB7EB0A00CB
:104BC00004D4C0F1FF3007F1010A0490AAEB0700FA
:104BD000019044E0012F00DA01270021112F01DDAF
:104BE000112000E03846CDE9000106A90EA8FFF724
:104BF00097FCDDE90F010E9A0391002104910092C8
:104C0000BA4621070CD40399514500DA8A46BAF115
:104C1000010F05DD009AAAF10101515C302908D08D
:104C2000B84202DA10F1040F06DA0121CDE90110D1
:104C300015E0AAF10101E9E7002805DC0499014427
:104C40000491AAEB000102E0411C514500DD8A46B7
:104C50000499401A401C01904FF000400290200738
:104C600004D40198504501DBCDF8048000208DF874
:104C70004F0002980DF14F07B0F1004F25D02B20C7
:104C80000E9002984FF0020800280CDA4042029081
:104C90002D200E9007E00A210298FCF723F830310E
:104CA000029007F8011DB8F10001A8F10108F2DC3B
:104CB00002980028EFD1791E0E980870307800F025
:104CC000200040F0450007F8020D12A8C01B00F1BB
:104CD00007081498007800B1012000EB0A01019840
:104CE00001EBE07105984144401A401E0590E00335
:104CF00006D45B462146179A059800F060F80544F3
:104D00001498007818B15A46179990476D1CE00323
:104D100024D55B462146179A059800F050F80544C3
:104D20001CE00498002807DBDDE90301884203DD6D
:104D30000098405C179901E0179930205A46904737
:104D4000049805F10105401C04900198401E019053
:104D500004D12E205A46179990476D1CBAF10001D4
:104D6000AAF1010ADDDC05E017F8010B5A46179994
:104D700090476D1CB8F10001A8F10108F4DC5B4616
:104D80002146179A0598ABE62D0000002B00000085
:104D90002000000030BCBDE8C08F2DE9F041044682
:104DA00000251E461746880404D405E03946202015
:104DB000B0476D1C641EF9D52846BDE8F0812DE989
:104DC000F041044600251E469046C80301D5302711
:104DD00000E02027880404D505E041463846B04766
:104DE0006D1C641EF9D52846BDE8F081B5EEC00AF9
:104DF000F1EE10FA05DBF1EEC00AC0ED000A00206A
:104E000070479FED030A80ED000A4FF0FF307047B6
:104E10000000000013B547F23054234601226946D2
:104E20000348FEF752FB0028F7D100981CBD000094
:104E3000B00000208AB0FDF737F8FEF786FF514832
:104E4000C16C41F00101C164C16C01F0010100912C
:104E5000C16C41F00201C164C16C01F0020100911A
:104E6000C16C41F01001C164C06C242100F010003D
:104E700000906846FBF7FCFE44494348086008463A
:104E8000FCF7CFFD00240094019402940394224681
:104E900069463E480494FCF737FD102269463B48BA
:104EA0000394FCF731FDFEF769FBFEF78FFB3748F3
:104EB000374914300160FF2141600121C0E902142B
:104EC000C0E904148461FDF79DF9FCF72FFC002173
:104ED0002E48FCF7F6FD10212C48FCF7F2FD2D487A
:104EE000FFF7D4FA0020FCF7F5FB4FF4FA44204614
:104EF000FCF7F0FBA5002846FCF7ECFB264E3046FD
:104F0000FCF7E8FB254F3846FCF7E4FBDFF8908020
:104F10004046FCF7DFFBA1464FEA080400F08EF99B
:104F200008282BD2DFE800F004050E1720222426E3
:104F3000F4E70020FCF7CEFB4846FCF7CBFB00F083
:104F4000BDF8EBE72846FCF7C5FB3046FCF7C2FB93
:104F500000F084F9E2E73846FCF7BCFB2046FCF79A
:104F6000B9FB00F069FBD9E7002004E0022002E071
:104F7000012000E0032000F069FACFE709A0FFF765
:104F800085FACBE7001002400074004018000020B2
:104F9000001000A0A067000800710200006B030071
:104FA00000650400496E76616C6964206F707469F5
:104FB0006F6E2E0A000000002DE9FF5F70EE202AC0
:104FC0002DED040B31EE212A8B4600242DED048BB0
:104FD00080EE228A169FC0EEA28A81EE029AC1EE6E
:104FE000829A57E004F57A76BE4203DDE51B05F5AB
:104FF0007A7501E04FF47A7508982A460119294814
:10500000FCF700FC0BEB04012A462748FCF7FAFBEF
:10501000DFF89490002009F57A78DFF888C008F569
:105020007A7A28E01CF8002019F8001000EE102A07
:10503000B8EE400A60EE080A00EE101AB8EE400A18
:1050400048EE800ABCEEE00A10EE103A00EE102A9C
:1050500008F80030B8EE400A60EE090A00EE101AB7
:10506000B8EE400A49EE800ABCEEE00A10EE101AD3
:105070000AF80010401CA842D4DB0A982A460119FD
:105080000A48FCF7F3FB0B982A4601190848FCF77D
:10509000EDFB3446BC42A5DBBDEC048B08B000F050
:1050A00009B800002801002010050020F8080020A1
:1050B000E00C002030BCBDE8C09F000010B52DED15
:1050C000028B86B000208DF80000019002900390C2
:1050D00004902EA0FFF7DAF90122062101A800F0C2
:1050E00021FB36A0FFF7D2F90122062103A800F028
:1050F00019FB01A8FFF7DCF951EC100BFBF7D6FD0B
:1051000008EE900A03A8FFF7D3F951EC100BFBF758
:10511000CDFD08EE100A18EE900AFBF7B4FD41EC45
:10512000100B2CA053EC102BFFF7B0F918EE100A5F
:10513000FBF7A9FD41EC100B2CA053EC102BFFF753
:10514000A5F930A0FFF7A2F900220121684600F07E
:10515000E9FA9DF80000592801D07928B9D12FA08B
:10516000FFF794F94FF47A54002221460220B0EE62
:10517000680A00F08DFA620021460220B0EE480A6B
:1051800000F086FA06B0BDEC028B10BD0D0A3D3D65
:105190003D20576176652067656E65726174696F41
:1051A0006E203D3D3D0D0A0D0A5761766520312088
:1051B0006672657175656E63793A20000D0A5761F4
:1051C00076652032206672657175656E63793A2066
:1051D000000000000D0A0D0A4672657175656E6368
:1051E0007920313A20252E32660D0A00467265710B
:1051F00075656E637920323A20252E32660D0A0DD0
:105200000A00000028592F4E29204973207468692C
:1052100073206F6B61793F20000000000D0A476525
:105220006E65726174696E672073696E652077615F
:10523000766573202E2E2E0D0A00000008B5064854
:10524000FFF724F900220121684600F06BFA9DF86F
:105250000000303808BD00006C68000800B52DED76
:10526000048B8BB000208DF8040002900390049012
:10527000059006900790089009904AA0FFF706F95C
:105280000122052102A800F04DFA4EA0FFF7FEF81A
:105290000122052104A800F045FA4CA0FFF7F6F81A
:1052A0000122052106A800F03DFA4AA0FFF7EEF81A
:1052B0000122052108A800F035FA02A8FFF7F8F846
:1052C00051EC100BFBF7F2FC09EE900A04A8FFF773
:1052D000EFF851EC100BFBF7E9FC09EE100A06A8F9
:1052E000FFF7E6F851EC100BFBF7E0FC08EE900A34
:1052F00008A8FFF7DDF851EC100BFBF7D7FC08EE20
:10530000100A19EE900AFBF7BEFC41EC100B33A01B
:1053100053EC102BFFF7BAF819EE100AFBF7B3FCA9
:1053200041EC100B31A053EC102BFFF7AFF818EE47
:10533000900AFBF7A8FC41EC100B2FA053EC102BAC
:10534000FFF7A4F818EE100AFBF79DFC41EC100BD8
:105350002CA053EC102BFFF799F82EA0FFF796F82E
:105360000022012101A800F0DDF99DF80400592870
:1053700001D0792881D12DA0FFF788F84FF4FA41A8
:10538000F0EE481AB0EE681AF0EE490AB0EE690A7B
:105390002D4B8A0000200091FFF70EFE0BB0BDECF4
:1053A000048B00BD0D0A3D3D3D2057617665206DA3
:1053B0006978696E67203D3D3D0D0A0D0A61313106
:1053C0003A2000000D0A6131323A20000D0A6132A4
:1053D000313A20000D0A6132323A20000D0A0D0ADE
:1053E0006131313A20252E32660D0A006131323AA0
:1053F00020252E32660D0A006132313A20252E32E8
:10540000660D0A006132323A20252E32660D0A0DF1
:105410000A00000028592F4E29204973207468691A
:1054200073206F6B61793F20000000000D0A4D6909
:1054300078696E672073696E652077617665732081
:105440002E2E2E0D0A0000000071020038B52249F0
:10545000086030B1012835D0022807D003280BD1CD
:1054600035E01EA0FFF712F826A003E033A0FFF7F7
:105470000DF83BA0FFF70AF847A0FFF707F85348DD
:10548000FDF7DCFD00248DF8004000220121684674
:1054900000F048F99DF800000028F6D04B48FDF7D1
:1054A000E5FD4B4800230822046048481946583857
:1054B000FCF7FAFA45480023082210215838FCF777
:1054C000F3FA38BD43A0FEF7E1FF4BA0D2E741A0BD
:1054D000FEF7DCFF5748CDE7000000200D0A3D3DF8
:1054E0003D2047656E6572617465642077617665FD
:1054F0007320706C6179696E67203D3D3D0D0A0D2A
:105500000A0000004C656674206368616E6E656C0D
:105510003A2057617665203120287331290D0A52CF
:1055200069676874206368616E6E656C3A205761C4
:105530007665203220287332290D0A000D0A3D3D80
:105540003D204D6978656420776176657320706CC5
:105550006179696E67203D3D3D0D0A0D0A0000002E
:105560004C656674206368616E6E656C3A205761A5
:105570007665203120287831290D0A5269676874D0
:10558000206368616E6E656C3A20576176652032E3
:1055900020287832290D0A000D0A50726573732095
:1055A000616E792063686172616374657220746FE3
:1055B0002072657475726E20746F206D61696E2043
:1055C0006D656E75202E2E2E0000000070000020EC
:1055D000040000200D0A3D3D3D20556E6D69786543
:1055E0006420776176657320706C6179696E6720DD
:1055F0003D3D3D0D0A0D0A004C65667420636861EF
:105600006E6E656C3A2057617665203120287331C3
:1056100027290D0A5269676874206368616E6E6598
:105620006C3A205761766520322028733227290D85
:105630000A0000002868000808B506A0FEF726FF4B
:1056400010484FF4FA3100900F4B104A881000F0C8
:1056500095F808BD0D0A3D3D3D20576176652075E2
:105660006E6D6978696E67203D3D3D0D0A0D0A55E6
:105670006E6D6978696E672077617665732E2E2E60
:105680000D0A000000650400006B030000710200B9
:105690002DE9F04100252DED048BB0EE408A00EE9F
:1056A000101AB7EE009A9046B8EEC00A2C464FF496
:1056B0007A7700FB01F6C9EE008A26E09FED160A14
:1056C00068EE000A00EE104AB8EEC00A20EE800A2A
:1056D00020EE280AFAF774FD30EE090ADFED0F0A12
:1056E0000F493A4620EE200ABCEEC00A10EE100A1E
:1056F00048556D1C954207D108EB04010025084868
:10570000A1F2E731FCF7B2F8641CA642D6DCBDEC8E
:10571000048BBDE8F0810000DB0FC9400000FF42B0
:10572000280100202DE9F8438046002017460E4648
:105730008DF80000044647F2305518E02B46012250
:1057400069460D48FDF74CFE9DF8000078B10A2827
:105750000FD00D280DD02FB12B46012269460648E7
:10576000FDF7B3FE9DF8001008F80410641CB44265
:10577000E4DBBDE8F8830000B00000202DE9FF4F16
:1057800016462DED088BD3B00F4604469FEDFE9ACA
:105790000025B0EE498AF0EE488A2AE005F57A79CC
:1057A000A14503DD281B00F57A7001E04FF47A7003
:1057B000804602467919F548FCF724F871194246EB
:1057C000F348FCF71FF80020F049F14A0EE00B5CAB
:1057D00000EE103A135C401CB8EE400A30EE088A26
:1057E00000EE103AB8EE400A70EE288A4045EEDB33
:1057F0004D46A542D2DB00EE104A4FF00009CA46E2
:10580000B8EEC00AD046C3464D46C8EE009A00EE38
:10581000104AB8EEC00A88EE808A56E07919012253
:1058200025A8FBF7EFFF7119012251A8FBF7EAFF4A
:105830009DF8941000EE909A00EE101A9DF8440125
:105840006D1CB8EE400A30EE691A00EE101AB8EE80
:10585000400A30EE690A41EE000A00EE10AA10EE8E
:10586000909A00EE901AF8EE600A30EEE91A00EE17
:10587000900AF8EE600A70EEC80A01EE200A00EE07
:10588000908A10EE10AA00EE101AB8EE400A30EE20
:10589000691A00EE100AB8EE400A30EE480A41EEEE
:1058A000000A00EE100AB8EE400A10EE908A00EEF0
:1058B00090BA30EE481A00EE100AB8EE400A30EE08
:1058C000480A41EE000A10EE90BAA542A6DB601E1F
:1058D00000EE100A00EE909A01EE90AAB8EEC01AFF
:1058E00080EE810A00EE900AF8EEE00A81EEA01A3E
:1058F00000EE900A01EE908AF8EEE00AC1EEA0AA4E
:1059000000EE900A01EE90BA1AA8F8EEE00AC1EE95
:10591000A08A60EE280A30EE28AA41EE6A0A2AEE32
:105920000A0AB1EE001A00EEC10AFFF75FFA9DED18
:105930001A0AF6EE000A02213AEE001A3AEE400A7E
:105940000FA821EE20BA20EE20AA3BEE680A8DEDCA
:105950000F0A3AEE680ACDED10AA8DED050ACDEDDD
:1059600006AA00F073FAF0EE408A022105A800F0C2
:105970006DFAF0EE400A9DED0F0ADFF818924FF035
:105980000008C0EE281A4D46CDED0F1A9DED100A05
:1059900080EE281A8DED101A9DED050A80EE202A62
:1059A0008DED052ADDED062A82EEA00A8DED060AB0
:1059B0008DED3F2A8DED400ACDED411A8DED421A55
:1059C000D9F8000043903FA8CDF884804490CDF8EA
:1059D0007C80CDF88080CDF8888022A8B0EE4B0A7C
:1059E000FFF704FA1FA8B0EE4A0AFFF7FFF9A8680C
:1059F0004790CDF85880CDF86480CDF85C80CDF824
:105A00006080CDF8B480CDF8B880CDF8BC801FA8F8
:105A1000CDF8C080CDF8C480CDF8C880CDF8CC805A
:105A2000CDF8D080CDF8D480CDF8D880CDF8DC800A
:105A3000CDF8E08048902869399016A83A90A86976
:105A40003D902DA83E90286A1D9031A81E90A86A0E
:105A50003B9035A83C901DA943A8FBF741F83BA912
:105A600047A8FAF77BFC39AA1DA93BA8FAF712FF51
:105A70003DAA47A943A8FAF70DFFD5E90C01CDE9E6
:105A800000010221684600F0E1F9DDED000A4FF067
:105A9000640B80EE801A8DED001ADDED010A80EEB8
:105AA000801A8DED011AA86B2790CDF8A0D0CDF803
:105AB0003480CDF83880286C29900DA8DFED368A27
:105AC000CDE92A08CDF8B080A86C1B902BA84FF028
:105AD000010A1C901BAA29A927A8FAF77CFFDDE977
