:020000040800F2
:10000000C83300209D010008A5010008A7010008D1
:10001000A9010008AB010008AD01000800000000C4
:10002000000000000000000000000000AF01000818
:10003000B101000800000000B3010008391C0008ED
:10004000B7010008B7010008B7010008B7010008B0
:10005000B7010008B7010008B7010008B7010008A0
:10006000B7010008B7010008B7010008B701000890
:10007000B7010008B7010008B7010008B701000880
:10008000B7010008B7010008B7010008B701000870
:10009000B7010008B7010008B7010008B701000860
:1000A000B7010008B7010008B7010008B701000850
:1000B000311D0008B7010008B7010008B7010008AA
:1000C000B7010008B7010008B7010008B701000830
:1000D000B7010008B7010008B7010008B701000820
:1000E000B7010008B7010008B7010008B701000810
:1000F000B7010008B7010008B7010008B701000800
:10010000B7010008B7010008B7010008B7010008EF
:10011000B7010008B7010008B7010008B7010008DF
:10012000B7010008B7010008B7010008B7010008CF
:10013000B7010008B7010008B7010008B7010008BF
:10014000B7010008B7010008B7010008B7010008AF
:10015000B7010008B7010008B7010008B70100089F
:10016000B7010008B7010008B7010008B70100088F
:10017000B7010008B70100080000000000000000FF
:10018000B7010008B7010008DFF80CD000F06CF8E8
:1001900000480047BD220008C833002006488047B9
:1001A00006480047FEE7FEE7FEE7FEE7FEE7FEE75C
:1001B000FEE7FEE7FEE7FEE7ED1C00088901000808
:1001C0002DE9F05F0546002092469B46884606468C
:1001D000814640241BE0284641464746224600F01F
:1001E00032F853465A46C01A914110D31146184668
:1001F000224600F019F82D1A67EB01084F462246F7
:100200000120002100F010F817EB00094E41201EDC
:10021000A4F10104DFDC484631462A46434600F09B
:1002200000B830BCBDE8C09F202A04DB203A00FAA9
:1002300002F1002070479140C2F1200320FA03F33D
:10024000194390407047202A04DB203A21FA02F03B
:100250000021704721FA02F3D040C2F12002914000
:100260000843194670470000064C074D06E0E06859
:1002700040F0010394E8070098471034AC42F6D3ED
:10028000FFF786FF7C2400089C2400082DE9F04736
:1002900004464079002715460E46012809D04FF044
:1002A000010984F80590022020713068042803D0E9
:1002B00044E00220BDE8F0874FF003080DBB00F0DA
:1002C000DDF9074605E000BF00F0D8F9C01B0128A2
:1002D0000FD82068406B0004F6D4012000F0CFF85E
:1002E0002168B069086416E000F0C8F9C01B012855
:1002F00007D9206940F00800206184F804800320B9
:10030000D8E72068406B0028EEDB012000F0B7F84A
:100310002168B06948642068816C40F2FF32AA40CD
:100320009143F269AA40114381642068C16CFF22A5
:10033000AA409143326AAA401143C164306901283E
:1003400008D12268916B1F20A84081437069A840A2
:10035000084390632268D06B0721A9408843B368A3
:1003600031681943F3681943A9400143D1632068F8
:1003700001684FF48042AA409143016022681168ED
:1003800040F6FC70A84081437068A84008431060A4
:1003900020680168C022AA409143016084F804905B
:1003A0000020607186E770B5040003D02079002535
:1003B00010B105E0012070BD6571204600F008F81D
:1003C00002202071256101202071002070BD0000F5
:1003D00000B500680C4987B0884213D10B48816D85
:1003E00041F000518165806D694600F00050059034
:1003F0003020009003200190002002904FF09040A8
:1004000000F04CF807B000BD00740040001002403E
:1004100018B5046800940068104421B114300090AD
:100420000360002018BD0830F9E730B54279012A91
:1004300012D0012242710223037103681D6802FA7F
:1004400001F425431D60002901680B6806D0C3F341
:1004500083430F2B0AD00DE0022030BDC3F383038A
:100460000F2B07D14B6843F0010302E04B6843F0C8
:1004700002034B60027100214171084630BD70B526
:10048000044600F0FBF80546601C00D0641C00F038
:10049000F5F8401BA042FAD370BD00002DE9F84FDB
:1004A000DFF898B100234FF0010C4FF0030A4FF032
:1004B0000F090BF1040EB9E00CFA03F4224070D0DE
:1004C0004D68022D01D0122D0ED1DD0800EB8508FC
:1004D000D8F820505E07F70E09FA07F6B5430E6903
:1004E000BE402E43C8F8206007685E0091F8048083
:1004F0000AFA06F508F00308AF4308FA06F848EAD6
:100500000708C0F800804F68012F05D0022F03D0E4
:10051000112F01D0122F13D1D0F80880CF6828EA0C
:100520000508B74047EA08078760D0F804800F79CC
:1005300028EA0408C7F300179F4047EA0807476006
:10054000D1F804806FEA0807BF0706D1C76AA7433E
:10055000C8F3C0049C403C43C462C468AC438D688B
:10056000B5402543C5604C68E4005ED5344C256E2B
:1005700045F001052566246E23F0030504F001040F
:100580000094304C2E19B4689D072F0F09FA07F517
:10059000AC43B0F1904F05D02B4DA84204D10125BA
:1005A0001CE042E0002519E0284DA84201D10225B7
:1005B00014E0274DA84201D103250FE0254DA842A4
:1005C00001D104250AE0244DA84201D1052505E00A
:1005D000224DA84201D1062500E00725BD40254354
:1005E000B560DBF800405D464E689443F60300D5E5
:1005F00014432C60DEF8004075464E689443B60301
:1006000000D514432C600D4D08352C684E6894437A
:10061000F60200D514432C60084D0C352C684E684A
:100620009443B60200D514432C605B1C0A6832FA6E
:1006300003F57FF441AF00F013B80000000401405F
:10064000001002400000014000040048000800487B
:10065000000C004800100048001400480018004832
:1006600018BCBDE8E08F0069084000D00120704749
:100670000AB18161704781627047000001480068DB
:10068000704700001000002002480168491C01600A
:10069000704700001000002010B5032000F088F81B
:1006A000002000F005F800F017F8002010BD000051
:1006B00010B5044607484FF47A710068B0FBF1F0BA
:1006C00000F0EFFD00222146501E00F051F80020FE
:1006D00010BD0000140000201E4808B5016E41F056
:1006E00001010166016E01F001010091816D41F08F
:1006F00080518165806D00F080500090032000F0F3
:1007000057F8002211466FF00B0000F031F800227C
:1007100011466FF00A0000F02BF8002211466FF02E
:10072000090000F025F800221146501F00F020F8C3
:1007300000221146101F00F01BF800221146901EE7
:1007400000F016F80022BDE808401146501E00F0E7
:100750000FB800000010024000F01F02012191407C
:100760004009800000F1E020C0F80011704700004F
:10077000F0B40E4B1B680C46C3F30223C3F107050C
:10078000042D00D90425191D072901D2002300E0FA
:10079000DB1E012606FA05F1491E214099409E40C4
:1007A000761E16403143F0BC01F0DEB80CED00E0DF
:1007B000064900F0070208684FF6FF03184040EAB8
:1007C0000220034A10430860704700000CED00E06F
:1007D0000000FA051549B0F5007F0868C0F3412014
:1007E00009D0022805D0086820F4C06040F4806079
:1007F0000860002070470128FBD0086820F4C06022
:1008000040F4007008600A480A4A0068B0FBF2F041
:100810003222504300E0401E10B14A695205FAD41A
:1008200048694005E5D5032070470000007000408E
:100830001400002040420F000248006800F4C0602D
:1008400070470000007000402DE9F84F0446002773
:100850000088E54D3E46010504F1200B1DD5606E74
:1008600078B1B0F5800F11D0B0F5000F04D0B0F51D
:10087000400F22D001270FE0E86840F48030E860A4
:100880001BE00021201D01F07FF803E00021584605
:1008900001F010F9070010D03E462088C00426D58C
:1008A000A06EC0B1B0F1807F1AD0B0F1007F0DD042
:1008B000B0F1407F19D0012718E0D5F88800616EAB
:1008C00020F440000843C5F88800E6E7E86840F4F3
:1008D0008030E86009E00021201D01F055F803E0B8
:1008E0000021584601F0E6F80746F7B13E46206879
:1008F00080033AD5A86D4FF00008C00009D4A86D58
:1009000040F08050A865A86D4FF0010800F08050BD
:100910000090DFF8D8A2DAF8001041F48071CAF82C
:100920000010FFF7ABFE814610E0D5F88800A16EFD
:1009300020F040700843C5F88800D8E7FFF79EFE16
:10094000A0EB0900022801D9032705E0DAF800002E
:10095000C005F3D5002F7CD04FEA0706B8F1000F91
:1009600003D0A86D20F08050A8652078C00707D07C
:10097000D5F88800A16B20F003000843C5F8880073
:100980002078800707D5D5F88800E16B20F00C00AF
:100990000843C5F888002078400707D5D5F88800B7
:1009A000216C20F030000843C5F88800207800074B
:1009B00007D5D5F88800616C20F0C0000843C5F861
:1009C00088002078C00607D5D5F88800A16C20F4EF
:1009D00040700843C5F888002078800607D5D5F810
:1009E0008800E16C20F440600843C5F88800208846
:1009F000800507D5D5F88800E16D20F44020084334
:100A0000C5F888002088400507D5D5F88800216EF4
:100A100020F440100843C5F888002078400607D528
:100A2000D5F88800216D20F440500843C5F88800AF
:100A30002078000607D5D5F88800616D20F4404085
:100A40000843C5F888002088C00509D5D5F8880076
:100A500000E01CE0A16D20F440300843C5F8880098
:100A600020884FF0006780044FF080684FD5D5F89C
:100A70008800E16E20F040600843C5F88800E06E11
:100A8000B8423CD1E86840F48010E8603FE0D5F817
:100A9000900010F4407015D0D4F88410814211D029
:100AA000D5F89000D5F8901020F4407041F48031D2
:100AB000C5F89010D5F8901021F48031C5F8901049
:100AC000C5F89000C00710D0FFF7D8FD074641F2E7
:100AD000883906E0FFF7D2FDC11B494501D903263D
:100AE0003CE7D5F890008007F4D5D5F89000D4F80D
:100AF000841020F440700843C5F890002EE740456C
:100B000005D10121201D00F03FFF00B106462068FD
:100B1000000317D5D5F88800216F20F04060084306
:100B2000C5F88800206FB84204D1E86840F480100E
:100B3000E86007E0404505D10121201D00F024FFB9
:100B400000B106462068400317D5D5F88800616FCC
:100B500020F040600843C5F88800606FB84204D1B7
:100B6000E86840F48010E86007E0404505D10121C5
:100B7000201D00F009FF00B10646208840041AD568
:100B8000D5F88800A16F20F040500843C5F88800D0
:100B9000A06FB0F1805F03D0B0F1005F05D00AE034
:100BA0000221201D00F0F0FE03E00221584600F073
:100BB00081FF00B106462088000407D5D5F88800DB
:100BC000E16F20F080400843C5F888002068C0032A
:100BD00007D555F8880FD4F8801020F0004008435E
:100BE0002860304600F004B8001002400070004059
:100BF00018BCBDE8E08F00002DE9F0470F46050066
:100C000058D03E4E306800F00700B84209D2306834
:100C100020F0070038433060306800F00700B84229
:100C200048D12878364CC0072CD06868032811D0EA
:100C3000022812D0216898B1490500293ADAA16842
:100C400021F003010143A160FFF718FD804641F246
:100C5000883910E021688901EFE721688903ECE712
:100C60008907EAE7FFF70AFDA0EB0801494502D929
:100C70000320BDE8F087A068696800F00C00B0EBC5
:100C8000810FEFD12878800705D5A068A96820F0EA
:100C9000F0000843A060306800F00700B8420BD9AC
:100CA000306820F0070038433060306800F00700FB
:100CB000B84201D00120DCE72878400705D5A068BC
:100CC000E96820F4E0600843A0602878000706D5B2
:100CD000A068296920F4605040EAC100A06000F0DB
:100CE0003BF8A168074AC1F30311515CC8400649AB
:100CF00008600020FFF7DCFC0020BAE7002002407B
:100D0000001002403424000814000020014800684C
:100D100070470000140000200448054900688968F5
:100D2000044AC1F30221515CC840704714000020FE
:100D300000100240742400080448054900688968CE
:100D4000044AC1F3C221515CC8407047140000201E
:100D5000001002407424000830B52D4900231846C5
:100D60008A682C4C12F00C0F4FEA640514D08A6884
:100D7000C2F38102032A04D1CA6802F00302012AE5
:100D80000AD08A68C2F38102012A19D08A68C2F3A4
:100D90008102022A16D016E00A68120704D4D1F89C
:100DA0009420C2F3032202E00A68C2F303121A4B32
:100DB00053F822308A6812F00C0F04D1184602E072
:100DC000204600E028468A68C2F38102032A1DD12A
:100DD000C868CA6800F00300C2F30212521C02285D
:100DE00004D0032805D0B3FBF2F004E0B4FBF2F02A
:100DF00001E0B5FBF2F0CA68C968C2F306225043AD
:100E0000C1F34161491C4900B0FBF1F030BD000065
:100E1000001002400024F400442400082DE9F843A7
:100E200004007DD02078FF4DC0065DD5A86810F085
:100E30000C0F0AD0A0690028286873D040F0010088
:100E40002860FFF71BFC064655E02868800702D59E
:100E5000A0690028E5D0216A2868000703D5286822
:100E600000F0F00004E0D5F89400F02202EA10103F
:100E7000814216D9084600F0A1FE002850D128680A
:100E800040F0080028602868216A20F0F00008433C
:100E900028606868E16920F47F4040EA01206860CA
:100EA00015E0286840F0080028602868216A20F0D2
:100EB000F000084328606868E16920F47F4040EA58
:100EC00001206860206A00F079FE0028D6D1FFF783
:100ED00043FFA968D44AC1F30311515CC840D34908
:100EE00008600020FFF7E4FB2CE000BFFFF7C6FB23
:100EF000801B02287ED828688007F7D5286840F034
:100F0000080028602868216A20F0F0000843286063
:100F10006868E16920F47F4040EA0120686011E0E0
:100F2000B2E0FFE720F001002860FFF7A7FB0646CC
:100F300005E000BFFFF7A2FB801B0228DAD8286873
:100F40008007F7D42078C00748D0A868C0F3810094
:100F500002281DD0A868C0F38100032803D1E868E7
:100F6000C043800714D06068B0F5803F17D0B0F55B
:100F7000A02F286817D020F480302860286820F43B
:100F8000802028606068E0B1FFF778FB064614E037
:100F90002868800322D56068002875D01EE0286884
:100FA00040F48030EDE740F480202860F7E700BF90
:100FB000FFF764FB801B64289CD828688003F7D562
:100FC0000CE0FFF75BFB064605E000BFFFF756FBB2
:100FD000801B64288ED828688003F7D42078800787
:100FE00042D5A868C0F38100012816D0A868C0F3D4
:100FF000810000E0A9E0032804D1E86800F00300C4
:1010000002280AD0E068002828681DD040F48070CB
:101010002860FFF733FB06460BE0286840050BD538
:10102000E0680028B9D007E0FFF728FB801B022802
:1010300084D828684005F7D56868217C20F0F850EE
:1010400040EA016068600FE020F480702860FFF7DC
:1010500015FB064605E000BFFFF710FB801B0228CA
:1010600073D828684005F7D42078000729D560692F
:101070000028D5F8940013D040F00100C5F8940082
:10108000FFF7FCFA064606E0FBE000BFFFF7F6FAC2
:10109000801B022859D8D5F894008007F6D510E0B7
:1010A00020F00100C5F89400FFF7E8FA064604E0D6
:1010B000FFF7E4FA801B022847D8D5F89400800790
:1010C000F6D42078400763D5A86D0026C00008D468
:1010D000A86D40F08050A865A86D012600F08050F2
:1010E000009053480168C90511D40168804641F455
:1010F00080710160FFF7C2FA074604E0FFF7BEFA0D
:10110000C01B022821D8D8F80000C005F6D5A06879
:10111000012815D00528D5F8900017D020F001003F
:10112000C5F89000D5F8900020F00400C5F89000B4
:10113000A06841F28838C8B1FFF7A0FA074610E06E
:10114000D5F8900040F00100F0E777E040F00400AF
:10115000C5F89000F4E700BFFFF790FAC11B4145C6
:101160006CD8D5F890008007F6D50CE0FFF786FA2A
:10117000074604E0FFF782FAC11B414579D8D5F84C
:1011800090008007F6D41EB1A86D20F08050A865AD
:10119000A06AE0B3A968C1F38101032972D00228D3
:1011A000286820F08070286011D02868000106D4DB
:1011B0002868800003D4E86820F00300E860E8684D
:1011C0001C490840E860FFF759FA044654E0FFF76D
:1011D00055FA064605E000BFFFF750FA801B0228CB
:1011E00047D828688001F7D4206BE16A00011038E5
:1011F0000843616BA26B0902120941EA42410843AC
:10120000A18F0D4A490802EB4151084300E036E046
:1012100094F840104908120102EB41610843E8606C
:1012200028680CE00010024034240008140000205C
:1012300000700040FFFFEEFE0000E0FF19E040F00C
:1012400080702860E86840F08070E860FFF716FA68
:10125000044604E0FFF712FA001B022809D82868A8
:101260008001F7D50BE000BFFFF708FA001B02284A
:1012700002D90320BDE8F88328688001F4D4002057
:10128000F8E7FFE70120F5E74FF0E02104280869BF
:1012900003D020F004000861704740F00400FAE732
:1012A000704710B5401EB0F1807F01D3012010BD02
:1012B0004FF0E02460610F21601700F055FB002023
:1012C000A06107202061002010BD10B5FFF7E8FFE6
:1012D00010BD70477047704770B590F83C20012AE8
:1012E00024D0012480F83C40022280F83D2002688E
:1012F000536895680E4EB24202D00E4EB24203D1F0
:1013000023F470064B68334323F070060B6889683A
:10131000334325F08005294353600268916080F8CB
:101320003D40002180F83C10084670BD022070BD91
:10133000002C01400034014010B5040003D094F8A3
:101340003D0010B107E0012010BD002084F83C00F2
:10135000204600F00DF8022084F83D00211D206891
:1013600000F0F2FC012084F83D00002010BD0000D8
:10137000094808B5816D41F001018165806D002249
:1013800000F00100009011461C20FFF7F1F9BDE8C4
:1013900008401C20FFF7E0B9001002400168CA684D
:1013A00042F00102CA600068826807490A40062AC2
:1013B00008D082680A40B2F5803F03D0016841F04E
:1013C00001010160002070470700010070B504466C
:1013D00090F83C00012817D0012584F83C500220E9
:1013E00084F83D0020688268324E324022F47F4209
:1013F00082600868502839D00DDC202855D005DCE3
:1014000098B3102843D150E0022070BD30284CD052
:1014100040283CD141E0602830D070280CD0B0F595
:10142000805F03D0B0F5005F31D112E020688168A1
:10143000204A7032114016E0CB68D1E901212068C2
:1014400000F0E2FC21688868304040F07700886056
:101450001DE0CB68D1E90121206800F0D5FC2068AF
:10146000816841F48041816011E01EE0CA684968EA
:10147000206800F0DBFC5021206806E0CA6849685B
:10148000206800F0E4FC6021206800F0C7FC84F8CC
:101490003D50002084F83C0070BDCA68496820684F
:1014A00000F0C4FC40212068EFE7226801461046A6
:1014B000EBE7000088FFFEFF704770B50446006848
:1014C00001694FF00005C943890715D4C168C943B4
:1014D000890711D4E91E0161012020772068806905
:1014E0008007204602D0FFF7E7FF04E000F0A7F8EE
:1014F000204600F0A5F8257720680169C94349070F
:1015000017D4C168C943490713D46FF004010161BE
:10151000022020772068806910F4407F204602D0A6
:10152000FFF7CAFF04E000F08AF8204600F088F8D0
:10153000257720680169C943090716D4C168C943E2
:10154000090712D46FF00801016104202077206898
:10155000C0698007204602D0FFF7AEFF04E000F02C
:101560006EF8204600F06CF8257720680169C943C1
:10157000C90617D4C168C943C90613D46FF0100156
:101580000161082020772068C06910F4407F204660
:1015900002D0FFF791FF04E000F051F8204600F080
:1015A0004FF8257720680169C943C90708D1C16888
:1015B000C943C90704D1891E0161204600F041F8E2
:1015C00020680169C943090609D4C168C9430906ED
:1015D00005D46FF0800101612046FFF77BFE206893
:1015E0000169C943C90509D4C168C943090605D4BD
:1015F0006FF4807101612046FFF76BFE206801697E
:10160000C943490609D4C168C943490605D46FF0E6
:1016100040010161204600F015F820680169C943C6
:1016200089060BD4C168C943890607D46FF020012D
:1016300001612046BDE87040FFF74DBE70BD7047A8
:1016400070477047704710B5040003D094F87100DC
:1016500010B107E0012010BD002084F87000204682
:1016600000F026F8242084F871002068016821F039
:1016700001010160204600F08FFC0128EBD0606A78
:1016800010B1204600F0F5FB2068416821F490413C
:1016900041602068816821F02A018160206801682A
:1016A00041F0010101602046BDE8104000F045BC5A
:1016B00000B500680E4987B0884216D10D48016E0A
:1016C00041F480410166006E694600F48040059057
:1016D000C02000900220019000200290032003907F
:1016E000072004900448FEF7D9FE07B000BD0000B3
:1016F0000038014000100240000400482DE9F84F76
:10170000044690F872009A4616460D46202865D188
:10171000EDB1E6B194F8700001285FD0012084F8A3
:10172000700000276767222084F872005434FEF7A7
:10173000A5FFA6808146E68054F84C0C4FF48058F3
:10174000FF21543C404508D1206918B10DE001202B
:1017500000F046B840F2FF100DE07F2218B1B0F162
:10176000805F05D009E0206950B9A4F85C1004E05E
:10177000206928B13F20A4F85C00B4F85C601CE04C
:10178000A4F85C20F9E74B46002220212046CDF842
:1017900000A000F051FD08B10320D9E7A068404542
:1017A00001D12069A0B12068808C304005F8010B80
:1017B000B4F85A00401EA4F85A00B4F85A000028A1
:1017C000E1D1202084F8720084F870700020BFE717
:1017D0002068808C304025F8020BE9E70220B7E74B
:1017E00018BCBDE8E08F000010B511498AB00F4861
:1017F00008600846FEF7D7FD00B1FEE7002400941C
:101800000194029403942246694609480494FEF721
:101810003DFD00B1FEE71022694605480394FEF73E
:1018200035FD002800D0FEE70AB010BD007400406E
:101830001800002070B5234886B0C16C41F001014A
:10184000C164C16C01F001010591C16C41F002015C
:10185000C164C16C01F002010591C16C41F0040149
:10186000C164C16C01F004010591C16C41F001013A
:10187000C164C16C01F001010591C16C41F002012C
:10188000C164C06C104E00F002004FF4804505901A
:10189000002229463046FEF7EBFE00246810CDE911
:1018A0000004694609480294FEF7F8FD01200095FE
:1018B000CDE90104694630460394FEF7EFFD06B01A
:1018C00070BD0000001002400004004800080048FD
:1018D00010B5164888B04FF0804101600121002406
:1018E000C0E9011442F21071C0E903148461FFF7EA
:1018F00023FD00B1FEE74FF48050039003A90B488D
:10190000FFF764FD00B1FEE70094694607480294C2
:10191000FFF7E2FC00B1FEE7002211461C20FEF7B3
:1019200027FF1C20FEF718FF08B010BD2C00002078
:101930000C4810B50A4901604FF4E13141600021C3
:1019400081600C22C160C0E904128161C161016241
:101950004162FFF778FE002800D0FEE710BD0000CE
:10196000003801406C0000200907090E002806DA43
:1019700000F00F0000F1E02080F8141D704700F126
:10198000E02080F8001470472DE9F041444C0546F2
:101990008846E0680026810728680DD0E16801F0DC
:1019A0000301814216D1A8B1E0686968C0F3021052
:1019B000401C88420ED120E0012804D0022805D026
:1019C000032807D108E02168890701E0216849055B
:1019D000002907DB01265FE02168890302D4216822
:1019E0004903F5E7E1686A686FF00F0321F07301BE
:1019F00003EB021211430143E160206820F0806094
:101A00002060FEF73BFE074605E000BFFEF736FE0E
:101A1000C01B022837D820680001F7D4B8F1000FA6
:101A200018D0B8F1010F1ED0287D4FF07E4140083C
:101A300001EB4060A96840EA01202169194A114080
:101A400008432061206840F080602060FEF716FEA9
:101A500007461AE0A868E9680002090940EA41401F
:101A60002169114AEBE7288A1049400801EB4050F0
:101A7000A96840EA012021690D4AE0E7FEF7FEFD72
:101A8000C01B022801D9032606E020680001F5D515
:101A90002069A969084320613046BDE8F081000053
:101AA00000100240FF80FFF9FF80FDFF0000E0FF13
:101AB000FF809FFF2DE9F0413D4C06468846E068D7
:101AC0000025810730680DD0E16801F003018142F3
:101AD00016D1A8B1E0687168C0F30210401C8842BA
:101AE0000ED120E0012804D0022805D0032807D118
:101AF00008E02168890701E021684905002907DB22
:101B0000012551E02168890302D421684903F5E7E2
:101B1000E16872686FF00F0321F0730103EB0212AA
:101B200011430143E160206820F080502060FEF7FF
:101B3000A5FD074605E000BFFEF7A0FDC01B02287B
:101B400029D820688000F7D4B8F1000F15D0307C78
:101B50004FF07E41400801EB4060B16840EA01204F
:101B60006169144A114008436061206840F0805068
:101B70002060FEF783FD07460FE0B068F1680002C1
:101B8000090940EA414061690B4AEBE7FEF776FD3F
:101B9000C01B022801D9032506E020688000F5D586
:101BA00060697169084360612846BDE8F081000002
:101BB00000100240FF80FFF9FF80FDFFF8B51C4DCB
:101BC00006460024A86DC00002D5FEF735FE0DE0E4
:101BD000A86D40F08050A865A86D00F0805000907E
:101BE000FEF72AFEA96D21F08051A965B0F5007FAE
:101BF00004D0802E07D94FF003040AE0802E08D9C4
:101C0000A02E01D804E001D1022402E0702E00D100
:101C100001240848016821F00701214301600068A0
:101C200000F00700A04201D00120F8BD0020F8BD5F
:101C3000001002400020024010B5FEF725FDBDE86F
:101C40001040FFF742BBF0B5B9B01020229001243C
:101C50000025CDE9284502266020CDE92C642A9094
:101C600028200727CDE92E40CDE93076329622A8EC
:101C7000FFF7D4F800B1FEE70F2033900320CDE941
:101C800034053695042133A83795FEF7B5FF00B12A
:101C9000FEE744F20100009000071E902020CDE9ED
:101CA00002400194C0040E95CDE90660CDE90476AA
:101CB0006846FEF7C9FD00B1FEE74FF40070FEF77D
:101CC00089FD00B1FEE7FFF721F84FF47A71B0FB10
:101CD000F1F0FFF7E6FA0420FFF7D6FA00221146EA
:101CE000501EFEF745FD39B0F0BD00000D480168FB
:101CF00041F4700101600C48016841F0010101608C
:101D0000002181600268094B1A4002608214C2609F
:101D1000026822F48022026081610249C003803996
:101D20000860704788ED00E000100240FFFFF6EA0F
:101D300010B50348FFF7C1FB02490120086010BD40
:101D40002C0000200C0000202DE9F0470268264BF3
:101D5000264D274E274F284C4FF0804A984209D0F5
:101D6000504507D0A84205D0B04203D0B84201D0B8
:101D7000A04204D122F0700C4A6842EA0C02DFF85B
:101D80007CC0DFF87C80DFF87C9098420FD0504513
:101D90000DD0A8420BD0B04209D0B84207D0A04223
:101DA00005D0604503D0404501D0484503D122F419
:101DB0004075CA682A434D6922F080022A430260B6
:101DC0008A68C2620A688262984207D0A04205D03F
:101DD000604503D0404501D0484501D10969016300
:101DE00001214161BDE8F087002C01400004004062
:101DF00000080040000C0040003401400040014059
:101E0000004401400048014010B5846842EA0322C2
:101E100024F47F440A432243826010BD826822F08A
:101E200070020A4342F007018160704710B5036AEF
:101E3000046A24F001040462846924F0F00444EA92
:101E4000021423F00A020A438461026210BD10B535
:101E5000036A23F0100303628369046A23F4704366
:101E600043EA023224F0A00343EA011182610162D5
:101E700010BD90F82410C90706D001684A68836A2B
:101E800022F400321A434A6090F82410890706D5DC
:101E900001684A68C36A22F480321A434A6090F8A3
:101EA0002410490706D501684A68036B22F4802292
:101EB0001A434A6090F82410090706D501684A6859
:101EC000436B22F400421A434A6090F82410C9067A
:101ED00006D501688A68836B22F480521A438A60AF
:101EE00090F82410890606D501688A68C36B22F42D
:101EF00000521A438A6090F82410490611D50168EF
:101F00004A68036C22F480121A434A60016CB1F5EE
:101F1000801F06D101684A68436C22F4C0021A434C
:101F20004A6090F82410090606D501684A68806C5A
:101F300022F4002202434A607047F8B500260446A6
:101F40004667FEF79BFB0546206800686FF07E47FA
:101F5000000708D52B4600224FF4001120460097B9
:101F600000F06AF960B92068006840070AD52B467E
:101F700000224FF480012046009700F05DF908B17F
:101F80000320F8BD202084F8710084F8720084F8E2
:101F900070600020F8BD00002DE9F04104460168A2
:101FA00080682369E6691843636910250027334375
:101FB0001843954A0B68954E334003430B602068E5
:101FC0004168E36821F44051194341602168A069E8
:101FD000914201D0236A18438B6823F43063034392
:101FE0008B608B4B21688B4899420DD1D0F88800CB
:101FF00010F0030006D001285AD0022856D003283A
:1020000059D157E0012556E0834B99420BD1D0F8C6
:10201000880010F00C0047D0042849D0082845D08B
:102020000C2848D146E07D4B99420BD1D0F888006E
:1020300010F0300038D010283AD0202836D0302880
:1020400039D137E0764B99420BD1D0F8880010F0A7
:10205000C00029D040282BD0802827D0C0282AD1E2
:1020600028E0704B99420ED1D0F8880010F44070EF
:102070001AD0B0F5807F1BD0B0F5007F16D0B0F538
:10208000407F18D116E0914215D1D0F8880010F4A5
:10209000406009D0B0F5806F0AD0B0F5006F05D070
:1020A000B0F5406F07D105E0002504E0022502E00D
:1020B000042500E008255C4B00264FF400409142C7
:1020C0003DD135B1022D07D0042D07D0082D10D1F8
:1020D00007E0FEF721FE03E0184602E0FEF73CFEB3
:1020E000A8B3626802EB4201814202D8B0EB023F22
:1020F00001D9012775E0DFF834815DB1022D0CD0E4
:10210000042D13D0082DF4D150082905401846F1AC
:10211000000105E0FEF700FE0AE050084449F5E73B
:102120000023FEF74DF8A0F5407156E0FEF714FECF
:102130006268010E0302500818187141F0E7E16966
:102140004FF6EF7881422FD1092DD2D200E048E03E
:10215000DFE805F006092005230505052600C8E788
:10216000FEF7DAFD01E0FEF7E7FD4100D4F80400D8
:1021700001EB5001B1FBF0F080B2A0F1100141453C
:10218000B7D84FF6F0710140C0F342000143206818
:10219000C16026E027496068EAE7FEF7DDFDE4E775
:1021A0004FF480316068E3E7092DA2D2DFE805F043
:1021B00006091E052205050525009AE7FEF7ACFD78
:1021C00001E0FEF7B9FD0146606801EB500100BF78
:1021D000B1FBF0F080B2A0F11001414589D821682F
:1021E000C860266638466666BDE8F081606803EB25
:1021F0005001EDE7FEF7B0FDE5E7616800EB510047
:10220000B0FBF1F0E6E7000000800040F369FFEF6B
:1022100000380140001002400044004000480040E7
:10222000004C0040005000400024F400FFFC0F0070
:10223000000024F40048E8012DE9F04198461746D3
:102240000E460446069D1DE0681C1BD02DB1FEF70E
:1022500015FAA0EB0800A84214D92068016821F4FF
:10226000D07101602068816821F001018160202027
:1022700084F8710084F87200002084F87000032054
:10228000BDE8F0812068C06936EA000004D0002073
:10229000B842D9D00020F3E70120F9E702E008C8EE
:1022A000121F08C1002AFAD170477047002001E0D0
:1022B00001C1121F002AFBD17047000008B5FEF7CC
:1022C000EBF9FFF7C0FCFFF7B5FA5448816C41F019
:1022D00001018164806C002200F001000090114631
:1022E0000E20FEF745FA0E20FEF736FA00221146C0
:1022F0000F20FEF73DFA0F20FEF72EFAFFF7E8FA5F
:10230000FFF772FAFFF714FB00214548FEF78DF83E
:1023100010214348FEF789F841481430FFF73EF892
:10232000404FDFF80491414C4FF47A6800254FF498
:10233000804A4FF4FA6BA06878B1394940F6B83357
:10234000CC3146464246A1F17800FFF7D7F958B1A3
:10235000012251463846FEF78BF94FF400513448BC
:10236000FEF781F9A0B155E0002251463846A5603C
:10237000FEF77EF95846FEF782F8294A0020CC3253
:102380004946135C21F81030401CB042F9DBE4E709
:10239000012060600122564651463846FEF768F932
:1023A000E068012836D1E560206840451BD1002255
:1023B00031463846FEF75CF95846FEF760F825606E
:1023C0000022314638466560FEF752F900231A466E
:1023D00019461348FEF71CF800231A46102110482E
:1023E000FEF716F8A7E739F81000002200EB80038B
:1023F0004E4611460A48FEF70BF8206800221021CD
:1024000036F8100000EB80030548FEF701F820685D
:10241000401C2060606800288DD0BBE7001002409F
:102420001800002000040048841000200000002054
:102430000008004800000000000000000102030442
:1024400006070809A0860100400D0300801A060057
:1024500000350C0040420F0080841E0000093D0042
:1024600000127A000024F40000366E010048E801F2
:10247000006CDC0200000000010203049C24000840
:1024800000000020180000009C220008B42400086E
:1024900018000020B0330000AC220008000000004B
:1024A000000000000100000000000000000000002B
:0424B00000093D00E2
:040000050800018965
:00000001FF
