:020000040800F2
:10000000380500209D0100084F200008BD1E000893
:100010004D200008490300083929000800000000AD
:100020000000000000000000000000002523000880
:100030008703000800000000712000082923000841
:10004000B7010008B7010008B7010008B7010008B0
:10005000B7010008B7010008B7010008B7010008A0
:10006000B7010008B7010008B7010008B701000890
:10007000B7010008B70100084D030008B7010008E8
:10008000B7010008B7010008B7010008B701000870
:10009000B7010008B7010008B7010008B701000860
:1000A000B7010008B7010008B7010008B701000850
:1000B000B7010008B7010008B7010008B701000840
:1000C000B7010008B7010008B7010008B701000830
:1000D000B70100082D290008B7010008B701000882
:1000E000B7010008B7010008B7010008B701000810
:1000F000B7010008B7010008B7010008B701000800
:10010000B7010008B7010008B7010008B7010008EF
:10011000B7010008B7010008B7010008B7010008DF
:10012000B7010008B7010008B7010008B7010008CF
:10013000B7010008B7010008B7010008B7010008BF
:10014000B7010008B7010008B7010008B7010008AF
:10015000B7010008B7010008B7010008B70100089F
:10016000B7010008B7010008B7010008B70100088F
:10017000B7010008B70100080000000000000000FF
:10018000B7010008B7010008DFF80CD000F07EF8D6
:1001900000480047592900083805002006488047D4
:1001A00006480047FEE7FEE7FEE7FEE7FEE7FEE75C
:1001B000FEE7FEE7FEE7FEE7E52300088901000809
:1001C0002DE9F05F0546002092469B46884606468C
:1001D000814640241BE0284641464746224600F01F
:1001E00044F853465A46C01A914110D31146184656
:1001F000224600F02BF82D1A67EB01084F462246E5
:100200000120002100F022F817EB00094E41201ECA
:10021000A4F10104DFDC484631462A46434600F09B
:1002200000B830BCBDE8C09F40EA01039B0703D083
:1002300009E008C9121F08C0042AFAD203E011F825
:10024000013B00F8013B521EF9D27047202A04DB23
:10025000203A00FA02F1002070479140C2F12003D9
:1002600020FA03F3194390407047202A04DB203A18
:1002700021FA02F00021704721FA02F3D040C2F1C6
:10028000200291400843194670470000064C074D74
:1002900006E0E06840F0010394E807009847103456
:1002A000AC42F6D3FFF774FF7C2A00089C2A0008B2
:1002B000F8B50446002000902068816801F0030131
:1002C000012902D10168C90735D181681B4A114251
:1002D00022D18168D5432940491C816018481949B9
:1002E0000068B0FBF1F000EB8000400000E0401E31
:1002F00000900028FBD100F06FFE064616E08168F2
:1003000011F0010F03D181682940491C816000F080
:1003100063FE801B022809D9A06D40F01000A06583
:10032000E06D40F00100E0650120F8BD2068016843
:10033000C943C907E3D10020F8BD00003F00008099
:100340000800002080841E00FEE70000014800F045
:1003500068BC0000EC00002030B590F8444004F088
:100360001C050124AC40056C6C6004686360836804
:10037000102B036803D099600068C26030BD9A609A
:100380000068C16030BD70472DE9F843002704467E
:10039000009790F85400DFF8D4930D46B846012832
:1003A00011D0012684F85460206801F08EFD60B100
:1003B000A06D40F02000A0655FF0010784F8548034
:1003C0003846BDE8F8830220FBE76868052812D8A4
:1003D000022807D0032807D0042807D0052807D013
:1003E000062007E00C2005E0122003E0182001E0C1
:1003F0004FF480706860A9884FF4407C01F440732A
:100400009CFAACFCBCFA8CFC206823FA0CF300EBE1
:1004100083002A6801F01F014FF01F0C0CFA01FC49
:10042000036BC2F3846223EA0C038A401343036321
:100430002068816811F00C0F1CD1AA68296801F0AE
:1004400048FD20686969C268C2F3C1025200914048
:100450002A69042A0FD000EB82002B68DFF810C352
:10046000026E03F0F84302EA0C020B431A4342F017
:100470000041016672E0002101F021FD4003206887
:100480004FF0000173D001F01AFD90FAA0F0B0FA1D
:1004900080F1286842036FD090FAA0F0B0FA80F0A3
:1004A000814204D100221146206801F035FD01216E
:1004B000206801F004FD400320684FF001015ED088
:1004C00001F0FDFC90FAA0F0B0FA80F12868420338
:1004D0005AD090FAA0F0B0FA80F0814204D1002204
:1004E0000121206801F018FD0221206801F0E7FCDD
:1004F000400320684FF0020149D001F0E0FC90FA7F
:10050000A0F0B0FA80F12868420345D090FAA0F03C
:10051000B0FA80F0814204D100220221206801F06B
:10052000FBFC0321206801F0CAFC400320684FF067
:10053000030134D001F0C3FC90FAA0F0B0FA80F1CE
:100540002868420330D090FAA0F0B0FA80F08142DF
:1005500004D100220321206801F0DEFC20688168BC
:1005600001F00301012925D121E000E004E001F0C0
:10057000A6FCC0F384618CE7C0F3846090E701F0CF
:100580009EFCC0F38461A1E7C0F38460A5E701F09D
:1005900096FCC0F38461B6E7C0F38460BAE701F06B
:1005A0008EFCC0F38461CBE7C0F38460CFE70168C1
:1005B000C9077DD12A7B296850F8B03FC1F3120CDE
:1005C00023EA0C0302F0200C4FF0FF3202FA0CF287
:1005D0000A40C2F312010B430360E96849456AD13E
:1005E0002868410317D090FAA0F1B1FA81F1491CB3
:1005F00009294FEA40312DD800290FD090FAA0F1F7
:10060000B1FA81F101F1010106FA01F609D100BF49
:10061000C0F3846109E0C0F38461E8E7C0F384615A
:10062000F0E790FAA0F1B1FA81F101F1010146EA97
:10063000816102D1C0F3846003E090FAA0F0B0FAC7
:1006400080F000EB40004FF4401202EB005041EA12
:1006500000012AE000290CD090FAA0F1B1FA81F152
:1006600001F1010106FA01F606D100BFC0F3846171
:1006700006E0C0F38461F3E790FAA0F1B1FA81F1EA
:1006800001F1010146EA816102D1C0F3846003E017
:1006900090FAA0F0B0FA80F0364A00EB400002EB8E
:1006A000005041EA000141F00071AA68206800E0B2
:1006B00001E001F00EFCDFF8C0C029682F4D304B7F
:1006C0003048614504D1826802F0E07212020FD511
:1006D000A94204D1826802F0E072D20108D59942A1
:1006E0007FF46CAE826802F0E07252023FF566AEB3
:1006F000254A264E61451CD12168914201D0B14264
:10070000EED18168826801F0E07141F4000122F0CD
:10071000E0720A4382601E481E490068B0FBF1F097
:10072000C0EB0010C00000E0401E00900028FBD18C
:1007300044E6A9420AD12168914201D0B142F7D1E1
:10074000816801F0E07141F0807109E09942EFD1D8
:1007500021689142ECD1816801F0E07141F480019F
:10076000826822F0E0720A43826027E600007F4040
:1007700000F0FF03000050FE000052C7000084CBD1
:1007800001000080000304500000045000020450E7
:100790000800002080841E000068006C7047000084
:1007A000F8B54FF0000504002E46009502D0A06D6C
:1007B00010B107E00120F8BD204600F0FDF8E66525
:1007C00084F8546020688168C1F3407119B1816870
:1007D000704A1140816020688168C1F3007191B94D
:1007E00081686D4A114041F0805181606B486C49CD
:1007F0000068B0FBF1F000EB8000400000E0401E1C
:1008000000900028FBD120688168C1F3007141B9D4
:10081000A16D41F01001A165E16D41F00101E165BB
:100820000125A16DC90602D401F04FFB30B1A06DC6
:1008300040F01000A06501252846F8BDA06D20F409
:10084000807040F00200A0652168886800F0030015
:10085000012802D10868C0073FD15248814212D115
:10086000D0F8081101F00301012903D1D0F80011DB
:10087000C90732D1D0F8081201F00301012925D1AE
:10088000D0F8000220E0484A9142816801F003015B
:100890000DD1012902D10168C9071ED1D0F8081273
:1008A00001F00301012907D1D0F8001202E001296B
:1008B00002D10168C90710D1D0F8081101F0030175
:1008C000012903D1D0F80001C00706D1374960687B
:1008D0008A6822F47C1202438A60E168A06BE269B4
:1008E0000843A16841EA42310843616A40EA014095
:1008F000012904D1218D2E4A02EB41410843E16ACE
:1009000029B101F47071226B014342EA01002268AF
:10091000D168284B19400143D1602068816811F0EB
:100920000C0F12D1A169626B890341EA4202C168CE
:1009300044F2020399431143C160E06B01280CD0DB
:100940002068016921F00101016120690128206806
:10095000016B21F00F0111D013E0D4E9100108431D
:10096000D4E912121143084321680A6940F2FC736A
:100970009A43104340F001000861E6E7226A521EE4
:1009800011430163A06D20F0020040F00100A0655A
:1009900052E70000C0FFFF5FC0FFFF7F080000209C
:1009A00080841E0000000450000104500003045025
:1009B0000000FEFF07C0F0FF704700002DE9F04186
:1009C00004464069444D0F46082822D02068A842BA
:1009D00002D0424988421ED1D5F80813C9061AD060
:1009E000D5F8081301F01F01052914D0D5F8081314
:1009F00001F01F0109290ED0D5F80803C0F381309A
:100A000002280BD0D5F80803C0F38130032805D0A5
:100A10000BE008260AE0C068C00706D0A06D40F0D1
:100A20002000A0650120BDE8F081042600F0D4FA82
:100A3000804611E0781C0FD02FB100F0CDFAA0EB6A
:100A40000800B84208D9A06D40F00400A06500205D
:100A500084F854000320E6E7206800683042E9D0BB
:100A6000A06D40F40070A0652068C16811F4406F6B
:100A70000FD1E16969B9016809070AD5A16D21F4AF
:100A80008071A165A16DC90403D4A16D41F001017C
:100A9000A165A8421BD01249884218D0D5F8081386
:100AA000C90614D0D5F8081301F01F0105290ED08E
:100AB000D5F8081301F01F01092908D0E968082EAC
:100AC00007D0490401D40C2101600020ABE7C168C4
:100AD000F5E70821F8E70000000004500001045089
:100AE0000002045070B50446006801F0EEF910B140
:100AF0000222104670BD94F8540001280CD0012049
:100B000084F854002046FFF7D3FB02004FF00001A9
:100B100004D084F85410ECE7022070BDA06D40F6BC
:100B20000163984340F48070A06527482368274DEF
:100B3000834205D0AB4203D0D0F80863F60603D158
:100B4000A66D26F48016A665A66DF60404D5E66D9E
:100B500026F00606E66500E0E1651C261E6084F8C6
:100B60005410216881421FD0A9421DD0D0F808330B
:100B7000DB0619D0D0F8083303F01F03052B13D080
:100B8000D0F8083303F01F03092B0DD0A16D41F4F9
:100B90008011A165C0688001ABD5A06D20F4005024
:100BA00040F48050A065A4E7C868800105D5A06D19
:100BB00020F4005040F48050A0658868044B184031
:100BC000001D886095E700000000045000020450FA
:100BD000C0FFFF7F10B590F825100024022903D034
:100BE0000421C16301241AE001680A6822F00E02A0
:100BF0000A6001680A6822F001020A6090F8441055
:100C0000036C01F01C02012101FA02F25A6080F823
:100C10002510002180F82410816B01B188472046FF
:100C200010BDF0B4016C0C6801680D6890F84420A8
:100C300002F01C06042202FA06F3234211D06B07CD
:100C40000FD50B689B0603D40B6823F004030B60DD
:100C500090F8441001F01C018A40016C4A60016B5D
:100C60001DE0022303FA06F727424FF0000C4FF075
:100C7000010218D0AF0716D50C68A40605D40C687D
:100C800024F00A040C6080F8252090F8441001F04C
:100C90001C018B40016C4B6080F824C0C16A0029A4
:100CA0001AD0F0BC08470823B340234214D02B07C6
:100CB00012D50B6823F00E030B6090F84410036C00
:100CC00001F01C0102FA01F15960C26380F825208D
:100CD00080F824C0416BE2E7F0BC704770B568B1A2
:100CE0002B4C036814212B4AA34209D22A4C1C44E2
:100CF000B4FBF1F18900C0E910210BE0012070BDC7
:100D0000234C64421C44B4FBF1F189004164204946
:100D100008390164022180F825101C6847F6F0713B
:100D20008C43D0E902152943D0E9045635432943C1
:100D300085692943C5692943056A29432143196007
:100D40008168B1F5804F19D0036C0F21934202D115
:100D500052F8A83F02E00E4AA032136890F84440CF
:100D600004F01C04A1408B43136090F844304168A8
:100D700003F01C0399401368194311600021C163FB
:100D8000012280F8252080F82410084670BD00005C
:100D90000804024000000240F8FFFDBF70B50446A1
:100DA00090F82400002501280CD0012084F82400AC
:100DB00094F825600020012E06D084F82400022536
:100DC000284670BD022070BD022684F82560E063CD
:100DD0002068066826F0010606602046FFF7BCFA88
:100DE000206B00282068016802D041F00E0106E067
:100DF00021F0040101602068016841F00A010160EE
:100E00002068016841F001010160D9E72DE9F84F40
:100E1000DFF898B100234FF0010C4FF0030A4FF0B8
:100E20000F090BF1040EB9E00CFA03F4224070D064
:100E30004D68022D01D0122D0ED1DD0800EB850882
:100E4000D8F820505E07F70E09FA07F6B5430E6989
:100E5000BE402E43C8F8206007685E0091F8048009
:100E60000AFA06F508F00308AF4308FA06F848EA5C
:100E70000708C0F800804F68012F05D0022F03D06B
:100E8000112F01D0122F13D1D0F80880CF6828EA93
:100E90000508B74047EA08078760D0F804800F7953
:100EA00028EA0408C7F300179F4047EA080747608D
:100EB000D1F804806FEA0807BF0706D1C76AA743C5
:100EC000C8F3C0049C403C43C462C468AC438D6812
:100ED000B5402543C5604C68E4005ED5344C256EB2
:100EE00045F001052566246E23F0030504F0010496
:100EF0000094304C2E19B4689D072F0F09FA07F59E
:100F0000AC43B0F1904F05D02B4DA84204D1012540
:100F10001CE042E0002519E0284DA84201D102253D
:100F200014E0274DA84201D103250FE0254DA8422A
:100F300001D104250AE0244DA84201D1052505E090
:100F4000224DA84201D1062500E00725BD402543DA
:100F5000B560DBF800405D464E689443F60300D56B
:100F600014432C60DEF8004075464E689443B60387
:100F700000D514432C600D4D08352C684E68944301
:100F8000F60200D514432C60084D0C352C684E68D1
:100F90009443B60200D514432C605B1C0A6832FAF5
:100FA00003F57FF441AF00F013B8000000040140E6
:100FB0000010024000000140000400480008004802
:100FC000000C0048001000480014004800180048B9
:100FD00018BCBDE8E08F00000148006870470000C1
:100FE0000400002002480168491C016070470000AD
:100FF0000400002010B5032000F088F8002000F065
:1010000005F800F017F8002010BD000010B50446E8
:1010100007484FF47A710068B0FBF1F000F0EFFD83
:1010200000222146501E00F051F8002010BD0000A3
:10103000080000201E4808B5016E41F0010101665C
:10104000016E01F001010091816D41F080518165D7
:10105000806D00F080500090032000F057F80022CF
:1010600011466FF00B0000F031F8002211466FF0CE
:101070000A0000F02BF8002211466FF0090000F082
:1010800025F800221146501F00F020F800221146DA
:10109000101F00F01BF800221146901E00F016F8F9
:1010A0000022BDE808401146501E00F00FB80000B5
:1010B0000010024000F01F02012191404009800011
:1010C00000F1E020C0F8001170470000F0B40E4BB2
:1010D0001B680C46C3F30223C3F10705042D00D996
:1010E0000425191D072901D2002300E0DB1E01267B
:1010F00006FA05F1491E214099409E40761E164091
:101100003143F0BC00F0A4BF0CED00E0064900F054
:10111000070208684FF6FF03184040EA0220034A1E
:1011200010430860704700000CED00E00000FA0575
:101130001549B0F5007F0868C0F3412009D00228A6
:1011400005D0086820F4C06040F48060086000208A
:1011500070470128FBD0086820F4C06040F400709C
:1011600008600A480A4A0068B0FBF2F03222504395
:1011700000E0401E10B14A695205FAD448694005A2
:10118000E5D50320704700000070004008000020F3
:1011900040420F000248006800F4C0607047000041
:1011A000007000402DE9F84F044600270088E54D07
:1011B0003E46010504F1200B1DD5606E78B1B0F5F7
:1011C000800F11D0B0F5000F04D0B0F5400F22D041
:1011D00001270FE0E86840F48030E8601BE0002160
:1011E000201D00F047FF03E00021584600F0D8FF23
:1011F000070010D03E462088C00426D5A06EC0B19E
:10120000B0F1807F1AD0B0F1007F0DD0B0F1407FF7
:1012100019D0012718E0D5F88800616E20F440004D
:101220000843C5F88800E6E7E86840F48030E860E5
:1012300009E00021201D00F01DFF03E000215846B9
:1012400000F0AEFF0746F7B13E46206880033AD56E
:10125000A86D4FF00008C00009D4A86D40F0805080
:10126000A865A86D4FF0010800F080500090DFF8ED
:10127000D8A2DAF8001041F48071CAF80010FFF724
:10128000ABFE814610E0D5F88800A16E20F04070DA
:101290000843C5F88800D8E7FFF79EFEA0EB0900D9
:1012A000022801D9032705E0DAF80000C005F3D5CC
:1012B000002F7CD04FEA0706B8F1000F03D0A86DCD
:1012C00020F08050A8652078C00707D0D5F88800A6
:1012D000A16B20F003000843C5F888002078800740
:1012E00007D5D5F88800E16B20F00C000843C5F85D
:1012F00088002078400707D5D5F88800216C20F0B9
:1013000030000843C5F888002078000707D5D5F8D5
:101310008800616C20F0C0000843C5F88800207880
:10132000C00607D5D5F88800A16C20F440700843AA
:10133000C5F888002078800607D5D5F88800E16CCC
:1013400020F440600843C5F888002088800507D550
:10135000D5F88800E16D20F440200843C5F88800E6
:101360002088400507D5D5F88800216E20F440106C
:101370000843C5F888002078400607D5D5F88800CE
:10138000216D20F440500843C5F8880020780006FD
:1013900007D5D5F88800616D20F440400843C5F8B2
:1013A00088002088C00509D5D5F8880000E01CE039
:1013B000A16D20F440300843C5F8880020884FF024
:1013C000006780044FF080684FD5D5F88800E16E43
:1013D00020F040600843C5F88800E06EB8423CD178
:1013E000E86840F48010E8603FE0D5F8900010F421
:1013F000407015D0D4F88410814211D0D5F89000F7
:10140000D5F8901020F4407041F48031C5F8901068
:10141000D5F8901021F48031C5F89010C5F89000EF
:10142000C00710D0FFF7D8FD074641F2883906E023
:10143000FFF7D2FDC11B494501D903263CE7D5F88A
:1014400090008007F4D5D5F89000D4F8841020F4EB
:1014500040700843C5F890002EE7404505D10121B2
:10146000201D00F007FE00B106462068000317D5D6
:10147000D5F88800216F20F040600843C5F8880047
:10148000206FB84204D1E86840F48010E86007E0BB
:10149000404505D10121201D00F0ECFD00B10646BC
:1014A0002068400317D5D5F88800616F20F04060B0
:1014B0000843C5F88800606FB84204D1E86840F47A
:1014C0008010E86007E0404505D10121201D00F0B3
:1014D000D1FD00B10646208840041AD5D5F8880011
:1014E000A16F20F040500843C5F88800A06FB0F10C
:1014F000805F03D0B0F1005F05D00AE00221201D1B
:1015000000F0B8FD03E00221584600F049FE00B1AA
:1015100006462088000407D5D5F88800E16F20F042
:1015200080400843C5F888002068C00307D555F8F7
:10153000880FD4F8801020F000400843286030461F
:1015400000F004B8001002400070004018BCBDE874
:10155000E08F00002DE9F0470F46050058D03E4EC1
:10156000306800F00700B84209D2306820F0070068
:1015700038433060306800F00700B84248D128781E
:10158000364CC0072CD06868032811D0022812D02E
:10159000216898B1490500293ADAA16821F00301D0
:1015A0000143A160FFF718FD804641F2883910E041
:1015B00021688901EFE721688903ECE78907EAE7F9
:1015C000FFF70AFDA0EB0801494502D90320BDE859
:1015D000F087A068696800F00C00B0EB810FEFD1D4
:1015E0002878800705D5A068A96820F0F000084396
:1015F000A060306800F00700B8420BD9306820F0D6
:10160000070038433060306800F00700B84201D06E
:101610000120DCE72878400705D5A068E96820F4B8
:10162000E0600843A0602878000706D5A068296913
:1016300020F4605040EAC100A06000F03BF8A168CF
:10164000074AC1F30311515CC840064908600020F5
:10165000FFF7DCFC0020BAE7002002400010024047
:10166000342A000808000020014800687047000084
:10167000080000200448054900688968044AC1F34D
:101680000221515CC8407047080000200010024051
:10169000742A00080448054900688968044AC1F3AF
:1016A000C221515CC8407047080000200010024071
:1016B000742A000830B52D49002318468A682C4C3E
:1016C00012F00C0F4FEA640514D08A68C2F381024D
:1016D000032A04D1CA6802F00302012A0AD08A68E8
:1016E000C2F38102012A19D08A68C2F38102022A58
:1016F00016D016E00A68120704D4D1F89420C2F379
:10170000032202E00A68C2F303121A4B53F8223094
:101710008A6812F00C0F04D1184602E0204600E05F
:1017200028468A68C2F38102032A1DD1C868CA68A4
:1017300000F00300C2F30212521C022804D0032856
:1017400005D0B3FBF2F004E0B4FBF2F001E0B5FB2E
:10175000F2F0CA68C968C2F306225043C1F341617E
:10176000491C4900B0FBF1F030BD00000010024000
:101770000024F400442A00082DE9F84304007DD039
:101780002078FF4DC0065DD5A86810F00C0F0AD078
:10179000A0690028286873D040F001002860FFF796
:1017A0001BFC064655E02868800702D5A069002882
:1017B000E5D0216A2868000703D5286800F0F0000A
:1017C00004E0D5F89400F02202EA1010814216D904
:1017D000084600F069FD002850D1286840F0080054
:1017E00028602868216A20F0F000084328606868B3
:1017F000E16920F47F4040EA0120686015E0286834
:1018000040F0080028602868216A20F0F0000843B2
:1018100028606868E16920F47F4040EA0120686040
:10182000206A00F041FD0028D6D1FFF743FFA968E8
:10183000D44AC1F30311515CC840D3490860002069
:10184000FFF7E4FB2CE000BFFFF7C6FB801B02287C
:101850007ED828688007F7D5286840F008002860FF
:101860002868216A20F0F000084328606868E16970
:1018700020F47F4040EA0120686011E0B2E0FFE719
:1018800020F001002860FFF7A7FB064605E000BF37
:10189000FFF7A2FB801B0228DAD828688007F7D45C
:1018A0002078C00748D0A868C0F3810002281DD066
:1018B000A868C0F38100032803D1E868C04380070B
:1018C00014D06068B0F5803F17D0B0F5A02F28681D
:1018D00017D020F480302860286820F48020286009
:1018E0006068E0B1FFF778FB064614E028688003E3
:1018F00022D56068002875D01EE0286840F480304A
:10190000EDE740F480202860F7E700BFFFF764FBB5
:10191000801B64289CD828688003F7D50CE0FFF76B
:101920005BFB064605E000BFFFF756FB801B642803
:101930008ED828688003F7D42078800742D5A8681D
:10194000C0F38100012816D0A868C0F3810000E030
:10195000A9E0032804D1E86800F0030002280AD0B7
:10196000E068002828681DD040F480702860FFF7E8
:1019700033FB06460BE0286840050BD5E0680028DD
:10198000B9D007E0FFF728FB801B022884D828681D
:101990004005F7D56868217C20F0F85040EA0160E6
:1019A00068600FE020F480702860FFF715FB0646A2
:1019B00005E000BFFFF710FB801B022873D82868E2
:1019C0004005F7D42078000729D560690028D5F8AC
:1019D000940013D040F00100C5F89400FFF7FCFA22
:1019E000064606E0FBE000BFFFF7F6FA801B022880
:1019F00059D8D5F894008007F6D510E020F0010002
:101A0000C5F89400FFF7E8FA064604E0FFF7E4FAA9
:101A1000801B022847D8D5F894008007F6D4207898
:101A2000400763D5A86D0026C00008D4A86D40F01B
:101A30008050A865A86D012600F0805000905348A2
:101A40000168C90511D40168804641F480710160C4
:101A5000FFF7C2FA074604E0FFF7BEFAC01B0228F0
:101A600021D8D8F80000C005F6D5A068012815D007
:101A70000528D5F8900017D020F00100C5F8900097
:101A8000D5F8900020F00400C5F89000A06841F25D
:101A90008838C8B1FFF7A0FA074610E0D5F89000E3
:101AA00040F00100F0E777E040F00400C5F8900056
:101AB000F4E700BFFFF790FAC11B41456CD8D5F899
:101AC00090008007F6D50CE0FFF786FA074604E0A1
:101AD000FFF782FAC11B414579D8D5F890008007FD
:101AE000F6D41EB1A86D20F08050A865A06AE0B3BE
:101AF000A968C1F38101032972D00228286820F067
:101B00008070286011D02868000106D42868800001
:101B100003D4E86820F00300E860E8681C49084046
:101B2000E860FFF759FA044654E0FFF755FA064615
:101B300005E000BFFFF750FA801B022847D828684D
:101B40008001F7D4206BE16A000110380843616B13
:101B5000A26B0902120941EA42410843A18F0D4AD2
:101B6000490802EB4151084300E036E094F8401088
:101B70004908120102EB41610843E86028680CE063
:101B800000100240342A00080800002000700040C5
:101B9000FFFFEEFE0000E0FF19E040F080702860DB
:101BA000E86840F08070E860FFF716FA044604E049
:101BB000FFF712FA001B022809D828688001F7D520
:101BC0000BE000BFFFF708FA001B022802D9032030
:101BD000BDE8F88328688001F4D40020F8E7FFE727
:101BE0000120F5E74FF0E0210428086903D020F038
:101BF00004000861704740F00400FAE7704710B530
:101C0000401EB0F1807F01D3012010BD4FF0E024D1
:101C100060610F21601700F01BFA0020A06107200F
:101C20002061002010BD10B5FFF7E8FF10BD704720
:101C3000704700002DE9F04102680446D069116840
:101C4000936810F00F0F4FF000055BD003F0010612
:101C500001F49077374369D0C70707D0CF0505D582
:101C600001271762626F42F001026267820708D59E
:101C7000DA0706D0276802223A62626F42F0040255
:101C80006267420708D5DA0706D0236804221A6281
:101C9000626F42F00202626702070AD501F0200279
:101CA000324306D0236808221A62626F42F00802AB
:101CB0006267626F002A32D0800605D5880603D598
:101CC000216E09B120468847606F000703D4206861
:101CD0008068400625D5204600F084FC2068816895
:101CE000490619D5816821F040018160E06E98B104
:101CF00020498163E06EFEF76DFF00280FD0E06E93
:101D0000816B06E0860611D58E060FD5216E1EE08A
:101D10002046BDE8F04108472046FFF789FFBDE8AF
:101D2000F0812046FFF784FF6567F8E7C60209D512
:101D30005B0207D54FF4801010622046BDE8F041E9
:101D4000FFF775BF030605D50B0603D5616E0029A5
:101D5000DED1E4E74006E2D54806E0D5116820462A
:101D600021F040011160202184F87110656600F0B7
:101D7000A3F8D4E74D25000810B5040003D094F86B
:101D8000710010B107E0012010BD002084F8700040
:101D9000204600F027F8242084F8710020680168AC
:101DA00021F001010160204600F03EFC0128EBD04B
:101DB000606A10B1204600F037FB2068416821F4CA
:101DC000904141602068816821F02A01816020688B
:101DD000016841F0010101602046BDE8104000F0BB
:101DE00087BB000000B500680E4987B0884216D155
:101DF0000D48016E41F480410166006E694600F4B1
:101E000080400590C02000900220019000200290A8
:101E100003200390072004900448FEF7F7FF07B063
:101E200000BD0000003801400010024000040048DE
:101E300070B5044690F87100202834D181B37AB38C
:101E400094F8700001282ED0012084F87000E1641D
:101E5000A4F85020A4F8522000256567212084F8BA
:101E60007100A16E11481346C862A16E1048086344
:101E7000A16E10484863A06E85632668E16C06F188
:101E80002802A06EFEF78AFF21684020086284F8CD
:101E900070502068816841F080018160002070BD31
:101EA000FFE70120FBE70220F9E70000AB2500086F
:101EB000DB2500086125000870477047FEE700EB4E
:101EC0008100006E00F0F84070478068C0F3800029
:101ED000704770B54FF0007401F0007394FAA4F4E9
:101EE000B4FA84F4E3404FF0F87494FAA4F501F0E6
:101EF000F871B5FA85F500EB830021FA05F50726A0
:101F0000AE4094FAA4F44369B4FA84F4E140B343D4
:101F10008A401343436170BD00EB8100016E21F0E4
:101F2000004111430166704730B5184887B0C16C55
:101F300041F40051C164C06C002400F400500690CC
:101F400013480425A90244608460C460C0E90445C4
:101F50008461C461C462C0E90D410E490160FEF7AD
:101F60001FFC00B1FEE70C4800900620CDE90105FA
:101F70007F200594CDE9030569460548FEF704FA7C
:101F8000002800D0FEE707B030BD0000001002407E
:101F90000C00002000000450000052C738B516485D
:101FA000816C41F001018164806C144C00F00100EF
:101FB0000090022060601020A06000208021C4E911
:101FC00003016061A061E0614FF4405020620C4861
:101FD00020602046FEF782FE00B1FEE7074800229F
:101FE000783811468466A0620E20FFF76FF8BDE8CE
:101FF00038400E20FFF75EB800100240EC000020D1
:1020000044000240104810B50E4901604FF4E13120
:102010004160002181600C22C160C0E9041281612D
:10202000C16101624162FFF7A7FE00B1FEE7002235
:1020300011462520FFF74AF8BDE810402520FFF79C
:1020400039B800000038014074000020FEE77047F6
:102050000907090E002806DA00F00F0000F1E02061
:1020600080F8141D704700F1E02080F800147047DC
:10207000704700002DE9F041444C05468846E06871
:102080000026810728680DD0E16801F00301814234
:1020900016D1A8B1E0686968C0F30210401C8842FC
:1020A0000ED120E0012804D0022805D0032807D152
:1020B00008E02168890701E021684905002907DB5C
:1020C00001265FE02168890302D421684903F5E70E
:1020D000E1686A686FF00F0321F0730103EB0212ED
:1020E00011430143E160206820F080602060FEF72A
:1020F00073FF074605E000BFFEF76EFFC01B022816
:1021000037D820680001F7D4B8F1000F18D0B8F123
:10211000010F1ED0287D4FF07E41400801EB40604A
:10212000A96840EA01202169194A11400843206149
:10213000206840F080602060FEF74EFF07461AE0FE
:10214000A868E9680002090940EA41402169114A8A
:10215000EBE7288A1049400801EB4050A96840EAA3
:10216000012021690D4AE0E7FEF736FFC01B022877
:1021700001D9032606E020680001F5D52069A96988
:10218000084320613046BDE8F081000000100240A5
:10219000FF80FFF9FF80FDFF0000E0FFFF809FFF51
:1021A0002DE9F0413D4C06468846E0680025810750
:1021B00030680DD0E16801F00301814216D1A8B169
:1021C000E0687168C0F30210401C88420ED120E024
:1021D000012804D0022805D0032807D108E021688F
:1021E000890701E021684905002907DB012551E045
:1021F0002168890302D421684903F5E7E168726820
:102200006FF00F0321F0730103EB0212114301433E
:10221000E160206820F080502060FEF7DDFE074678
:1022200005E000BFFEF7D8FEC01B022829D82068B1
:102230008000F7D4B8F1000F15D0307C4FF07E410C
:10224000400801EB4060B16840EA01206169144A2E
:10225000114008436061206840F080502060FEF724
:10226000BBFE07460FE0B068F1680002090940EACA
:10227000414061690B4AEBE7FEF7AEFEC01B022846
:1022800001D9032506E020688000F5D560697169F1
:10229000084360612846BDE8F0810000001002405C
:1022A000FF80FFF9FF80FDFFF8B51C4D06460024B6
:1022B000A86DC00002D5FEF76DFF0DE0A86D40F0DF
:1022C0008050A865A86D00F080500090FEF762FF76
:1022D000A96D21F08051A965B0F5007F04D0802E52
:1022E00007D94FF003040AE0802E08D9A02E01D8A8
:1022F00004E001D1022402E0702E00D1012408483C
:10230000016821F0070121430160006800F0070027
:10231000A04201D00120F8BD0020F8BD001002400D
:10232000002002407047000010B5FEF75BFEFFF78B
:102330007AFC02490120086010BD00000000002066
:10234000F0B5B9B01020229001240025CDE9284530
:1023500002266020CDE92C642A9028200727CDE9A9
:102360002E40CDE93076329622A8FFF705FA00B16B
:10237000FEE70F2033900320CDE934053695042184
:1023800033A83795FFF7E6F800B1FEE744F2010005
:10239000009000071E902020CDE902400194C00467
:1023A0000E95CDE90660CDE904766846FEF7FAFEA3
:1023B00000B1FEE74FF40070FEF7BAFE00B1FEE791
:1023C000FFF752F90A21B0FBF1F0FFF718FC0420E7
:1023D000FFF708FC00221146501EFEF777FE39B0C9
:1023E000F0BD00000D48016841F4700101600C4827
:1023F000016841F001010160002181600268094B20
:102400001A4002608214C260026822F480220260D4
:1024100081610249C00380390860704788ED00E09F
:1024200000100240FFFFF6EA90F82410C90706D01A
:1024300001684A68836A22F400321A434A6090F8BD
:102440002410890706D501684A68C36A22F48032DD
:102450001A434A6090F82410490706D501684A6873
:10246000036B22F480221A434A6090F82410090773
:1024700006D501684A68436B22F400421A434A6059
:1024800090F82410C90606D501688A68836B22F487
:1024900080521A438A6090F82410890606D5016894
:1024A0008A68C36B22F400521A438A6090F82410A1
:1024B000490611D501684A68036C22F480121A4358
:1024C0004A60016CB1F5801F06D101684A68436C0F
:1024D00022F4C0021A434A6090F82410090606D577
:1024E00001684A68806C22F4002202434A60704707
:1024F000F8B5002604464667FEF76EFD05462068DF
:1025000000686FF07E47000708D52B4600224FF485
:1025100000112046009700F0D7F960B920680068E4
:1025200040070AD52B4600224FF480012046009731
:1025300000F0CAF908B10320F8BD202084F871002A
:1025400084F8720084F870600020F8BD10B5806ACD
:102550000021A0F85A10A0F85210FFF769FB10BD37
:1025600070B5846A94F871000025212808D120688C
:102570008068000604D5A4F85250204600F042F8C6
:1025800094F87200222808D120688068400604D59B
:10259000A4F85A50204600F025F8606F40F0100073
:1025A00060672046FFF744FB70BD10B50146806AA6
:1025B0000968096889060DD40021A0F85210016845
:1025C0008A6822F080028A600068016841F0400158
:1025D000016010BDFFF770FC10BD10B5806AFFF7F9
:1025E0006CFC10BD01680A6822F490720A600168F0
:1025F0008A6822F001028A60202180F8721000218E
:102600000166704701680A6822F0C0020A60202152
:1026100080F87110704710B5FFF70AFC08B1002070
:1026200010BD012010BD00002DE9F04104460168F5
:1026300080682369E66918436369102500273343DE
:102640001843954A0B68954E334003430B6020684E
:102650004168E36821F44051194341602168A06951
:10266000914201D0236A18438B6823F430630343FB
:102670008B608B4B21688B4899420DD1D0F8880034
:1026800010F0030006D001285AD0022856D00328A3
:1026900059D157E0012556E0834B99420BD1D0F830
:1026A000880010F00C0047D0042849D0082845D0F5
:1026B0000C2848D146E07D4B99420BD1D0F88800D8
:1026C00010F0300038D010283AD0202836D03028EA
:1026D00039D137E0764B99420BD1D0F8880010F011
:1026E000C00029D040282BD0802827D0C0282AD14C
:1026F00028E0704B99420ED1D0F8880010F4407059
:102700001AD0B0F5807F1BD0B0F5007F16D0B0F5A1
:10271000407F18D116E0914215D1D0F8880010F40E
:10272000406009D0B0F5806F0AD0B0F5006F05D0D9
:10273000B0F5406F07D105E0002504E0022502E076
:10274000042500E008255C4B00264FF40040914230
:102750003DD135B1022D07D0042D07D0082D10D161
:1027600007E0FEF787FF03E0184602E0FEF7A2FF4E
:10277000A8B3626802EB4201814202D8B0EB023F8B
:1027800001D9012775E0DFF834815DB1022D0CD04D
:10279000042D13D0082DF4D150082905401846F116
:1027A000000105E0FEF766FF0AE050084449F5E73E
:1027B0000023FDF705FDA0F5407156E0FEF77AFF16
:1027C0006268010E0302500818187141F0E7E169D0
:1027D0004FF6EF7881422FD1092DD2D200E048E0A8
:1027E000DFE805F006092005230505052600C8E7F2
:1027F000FEF740FF01E0FEF74DFF4100D4F8040072
:1028000001EB5001B1FBF0F080B2A0F110014145A5
:10281000B7D84FF6F0710140C0F342000143206881
:10282000C16026E027496068EAE7FEF743FFE4E776
:102830004FF480316068E3E7092DA2D2DFE805F0AC
:1028400006091E052205050525009AE7FEF712FF79
:1028500001E0FEF71FFF0146606801EB500100BF79
:10286000B1FBF0F080B2A0F11001414589D8216898
:10287000C860266638466666BDE8F081606803EB8E
:102880005001EDE7FEF716FFE5E7616800EB510048
:10289000B0FBF1F0E6E7000000800040F369FFEFD5
:1028A0000038014000100240004400400048004051
:1028B000004C0040005000400024F400FFFC0F00DA
:1028C000000024F40048E8012DE9F041984617463D
:1028D0000E460446069D1DE0681C1BD02DB1FEF778
:1028E0007BFBA0EB0800A84214D92068016821F402
:1028F000D07101602068816821F001018160202091
:1029000084F8710084F87200002084F870000320BD
:10291000BDE8F0812068C06936EA000004D00020DC
:10292000B842D9D00020F3E70120F9E70148FFF7CA
:1029300081B9000074000020FEE702E008C8121F01
:1029400008C1002AFAD170477047002001E001C198
:10295000121F002AFBD170478EB014222CA108A8A8
:10296000FDF762FC0024FEF745FBFFF7E9FC2D486C
:10297000C16C41F00201C164C06C00F002000D9016
:10298000FFF740FBFFF7D0FAFFF708FB264D28685A
:102990000128FCD1002028602448FEF7A3F842F269
:1029A00010712248FEF70AF800B1FEE71F48FDF754
:1029B000F3FE40F6E441484340F6B831B0FBF1F194
:1029C0001B481B4A00882232091A128801EB810138
:1029D0000901101A91FBF0F01E301E2C10DA0A21AA
:1029E00090FBF1F330330DF8043090FBF1F301FB71
:1029F00013000DEB0402303050709170E41CC6E7F8
:102A00000A4800241E2269466830FFF704FEBEE72C
:102A100054656D7065726174757265203D20313149
:102A200020430A0000100240000000200C0000209B
:102A3000A875FF1F00000000000000000102030451
:102A400006070809A0860100400D0300801A060051
:102A500000350C0040420F0080841E0000093D003C
:102A600000127A000024F40000366E010048E801EC
:102A7000006CDC0200000000010203049C2A000834
:102A8000000000200C0000003A290008A82A0008D5
:102A90000C0000202C0500004A290008000000005E
:082AA0000000000000093D00E8
:040000050800018965
:00000001FF
