:020000040800F2
:10000000C83E01209D010008A5010008A7010008C5
:10001000A9010008AB010008AD01000800000000C4
:10002000000000000000000000000000AF01000818
:10003000B101000800000000B30100080D20000815
:10004000B7010008B7010008B7010008B7010008B0
:10005000B7010008B7010008B7010008B7010008A0
:10006000B7010008B7010008B7010008B701000890
:10007000B7010008B7010008D9020008E50200082E
:10008000B7010008B7010008B7010008B701000870
:10009000B7010008B7010008B7010008B701000860
:1000A000B7010008B7010008B7010008B701000850
:1000B000B7010008B7010008B7010008B701000840
:1000C000B7010008B7010008B7010008B701000830
:1000D000B7010008B7010008B7010008B701000820
:1000E000B7010008B7010008B7010008B701000810
:1000F000B7010008B7010008B7010008B701000800
:10010000B7010008B7010008B7010008B7010008EF
:10011000B7010008B70100080D210008B701000869
:10012000B7010008B7010008B7010008B7010008CF
:10013000B7010008B7010008B7010008B7010008BF
:10014000B7010008B7010008B7010008B7010008AF
:10015000B7010008B7010008B7010008B70100089F
:10016000B7010008B7010008B7010008B70100088F
:10017000B7010008B70100080000000000000000FF
:10018000B7010008B7010008DFF80CD000F018F83C
:100190000048004759220008C83E01200648804711
:1001A00006480047FEE7FEE7FEE7FEE7FEE7FEE75C
:1001B000FEE7FEE7FEE7FEE7C92000088901000828
:1001C000064C074D06E0E06840F0010394E80700A4
:1001D00098471034AC42F6D3FFF7DAFF50230008FB
:1001E0007023000810B5806A0321016500F072FADF
:1001F00010BD10B5806A00F079FB10BD10B5806AA3
:1002000000F076FB10BD00001749884201D10020A4
:10021000704715492031884201D1012070471249A9
:100220004031884201D1022070470F496031884235
:1002300001D1032070470C498031884201D104204C
:1002400070470949A031884201D10520704706490D
:10025000C031884201D1062070470349E03188420D
:10026000D5D107207047000000600140426B016853
:10027000002A0A6811D022F001020A6001680A68A7
:1002800042F400220A6001680A6842F001020A6032
:1002900090F84C10032904D010E042F400320A60B8
:1002A0000CE0816B21B901680A6842F002020A6021
:1002B00090F8401001290AD00121816490F84C1077
:1002C000012906D05FF0040180F84C107047416CA2
:1002D000F3E70221F8E70000014800F055BB0000F9
:1002E000183A0120014800F04FBB0000603A01209D
:1002F00030B590F8444004F01C050124AC40056C76
:100300006C60046863608368102B036803D0996095
:100310000068C26030BD9A600068C16030BD0000F6
:100320002DE9F04704464079002715460E4601287E
:1003300009D04FF0010984F805900220207130683F
:10034000042803D044E00220BDE8F0874FF0030802
:100350000DBB00F0FFFC074605E000BF00F0FAFC13
:10036000C01B01280FD82068406B0004F6D4012080
:1003700000F000FC2168B069086416E000F0EAFCB7
:10038000C01B012807D9206940F00800206184F8CB
:1003900004800320D8E72068406B0028EEDB0120B2
:1003A00000F0E8FB2168B06948642068816C40F285
:1003B000FF32AA409143F269AA4011438164206848
:1003C000C16CFF22AA409143326AAA401143C16422
:1003D0003069012808D12268916B1F20A840814311
:1003E0007069A840084390632268D06B0721A94038
:1003F0008843B36831681943F3681943A94001433E
:10040000D163206801684FF48042AA4091430160A3
:100410002268116840F6FC70A84081437068A840CB
:100420000843106020680168C022AA40914301601F
:1004300084F804900020607186E770B5040003D052
:100440002079002510B105E0012070BD65712046BE
:1004500000F008F8022020712561012020710020A1
:1004600070BD000000B50068104987B088421BD1FC
:100470000F48816D41F000518165806D694600F043
:100480000050059030200090032001900020029041
:100490004FF0904000F07CFB00221146362000F027
:1004A000D3FC362000F0C4FC07B000BD007400404F
:1004B0000010024018B5046800940068104421B18F
:1004C000143000900360002018BD0830F9E730B503
:1004D0004279012A12D0012242710223037103687A
:1004E0001D6802FA01F425431D60002901680B68AC
:1004F00006D0C3F383430F2B0AD00DE0022030BD9A
:10050000C3F383030F2B07D14B6843F0010302E0D1
:100510004B6843F002034B600271002141710846B1
:1005200030BD000070B5040006D02068FFF76CFEF7
:10053000374D55F8200008B1012070BD204600F06D
:100540006FF834480168491C01600068324901288D
:1005500019D13248026822F0804202600268A36822
:100560001A430260026822F47F0202602279012AA3
:1005700005D10268A38901EB03431A4302600268B4
:1005800042F0004202602068026822F47142026078
:100590002268106823691843D4E9053633431843A9
:1005A00010602068026822F00F020260D4E9072080
:1005B0000243206803681A4302602068826822F4BC
:1005C0005F02826020688268636A1A43238D01EBB0
:1005D00003410A4382602068416801F007014160DD
:1005E000E06A216B000240EAC101206842681143C1
:1005F00041602068016841F080010160012084F8B9
:1006000034002068FFF700FE45F82040002070BD50
:10061000A83A0120200000200000FFFF00600140F8
:1006200070B5164886B04168002924D10168491C7C
:100630000160012908D11248016E41F08071016604
:10064000006E00F0807005900420009002250024C8
:10065000CDE901540626CDE903466946094800F074
:1006600097FA80200090CDE90154CDE90346694610
:10067000054800F08DFA06B070BD0000180000209B
:1006800000100240000800480010004870B590F8C3
:100690004C400023C4B1FF2C16D0046825680C4ED2
:1006A0003540256004686FF30F01012A256804D0E6
:1006B00045EA01212160026307E04FF4802646EA03
:1006C00001210D432560F6E70123184670BD0000A7
:1006D000FFFFFBF87047000070B5040031D03C49C3
:1006E0002068884205D1606801282AD0E068012886
:1006F00027D00125002065642063A564206520467D
:1007000000F06CF82068016821F400210160207A73
:1007100001282068016816D021F000510160607A3C
:1007200001282068016811D021F4001101602068BF
:10073000016846F2087291430160E068022808D01F
:100740000CE0012070BD41F00051E7E741F40011D9
:10075000ECE720680168626911430160207C012890
:10076000206801682ED021F010010160607C012812
:100770002068016829D021F02001016020684169CA
:10078000144A1140416120684169E269124B1143EA
:10079000228C03EB0242636A5B1E1A4311434161E0
:1007A00060686063E068A063A069E063207C84F80F
:1007B00040002068016841F00101016084F84C505C
:1007C000002070BD41F01001CFE741F02001D4E7D7
:1007D0000061014000FF001C0000FFFF2DE9F04711
:1007E00005463348002686B04168802711BB016862
:1007F000491C0160012908D12E48016E41F0807129
:100800000166006E00F080700590042002248DE8DF
:1008100051004FF00608CDE903686946264800F00C
:10082000B7F90097CDE90146CDE903686946234849
:1008300000F0AEF9224928684FF400784FF40069BF
:100840004FF0200A884214D11F4C1E48C4E900060C
:1008500004F10C00A66080E8C0072046266200F084
:10086000F1F818B1CD2119A001F0E6FCEC62AC6200
:10087000A562134928688031884215D111481A4C65
:100880001430C4E9000604F10C00A66080E8C0073B
:100890002046266200F0D6F818B1E3210BA001F043
:1008A000CBFCEC62AC62A56206B0BDE8F08700004C
:1008B0001800002000100240000800480010004806
:1008C0000061014044000240183A01202E2E2F53AF
:1008D00072632F73746D33326C3478785F68616C37
:1008E0005F6D73702E630000603A01207047000056
:1008F0000248012101700021417070470000002072
:1009000070B50E0004464FF000052ED06AB3206883
:100910000068800229D5606B30B9206B20B9A06ACD
:10092000C06940B1202820D094F84C00012805D09F
:10093000032803D019E0012A17D1F5E7A16A0F486F
:10094000C862A16A0E484863A06AC16920290FD015
:10095000002101632168134632461C31A06A00F071
:10096000D1F838B1FF2084F84C000125284670BD2D
:100970000449EEE72046FFF779FCF7E7F3010008AA
:10098000E5010008FD010008F0B4016C0C68016885
:100990000D6890F8442002F01C06042202FA06F3C7
:1009A000234211D06B070FD50B689B0603D40B684D
:1009B00023F004030B6090F8441001F01C018A40FE
:1009C000016C4A60016B1DE0022303FA06F727421F
:1009D0004FF0000C4FF0010218D0AF0716D50C688D
:1009E000A40605D40C6824F00A040C6080F82520C5
:1009F00090F8441001F01C018B40016C4B6080F8B2
:100A000024C0C16A00291AD0F0BC08470823B340AB
:100A1000234214D02B0712D50B6823F00E030B6072
:100A200090F84410036C01F01C0102FA01F15960C6
:100A3000C26380F8252080F824C0416BE2E7F0BC57
:100A40007047000070B568B12B4C036814212B4A25
:100A5000A34209D22A4C1C44B4FBF1F18900C0E93D
:100A600010210BE0012070BD234C64421C44B4FBF8
:100A7000F1F189004164204908390164022180F8BC
:100A800025101C6847F6F0718C43D0E90215294304
:100A9000D0E904563543294385692943C56929436B
:100AA000056A2943214319608168B1F5804F19D047
:100AB000036C0F21934202D152F8A83F02E00E4A84
:100AC000A032136890F8444004F01C04A1408B430A
:100AD000136090F84430416803F01C039940136898
:100AE000194311600021C163012280F8252080F89C
:100AF0002410084670BD00000804024000000240B7
:100B0000F8FFFDBF70B5044690F8240000250128C9
:100B10000CD0012084F8240094F825600020012ED8
:100B200006D084F824000225284670BD022070BD3E
:100B3000022684F82560E0632068066826F0010636
:100B400006602046FFF7D4FB206B00282068016870
:100B500002D041F00E0106E021F00401016020689E
:100B6000016841F00A0101602068016841F001015B
:100B70000160D9E770B5044600F0ECF80546601C4A
:100B800000D0641C00F0E6F8401BA042FAD370BD10
:100B90002DE9F84FDFF898B100234FF0010C4FF02A
:100BA000030A4FF00F090BF1040EB9E00CFA03F43D
:100BB000224070D04D68022D01D0122D0ED1DD08DB
:100BC00000EB8508D8F820505E07F70E09FA07F603
:100BD000B5430E69BE402E43C8F8206007685E002A
:100BE00091F804800AFA06F508F00308AF4308FA02
:100BF00006F848EA0708C0F800804F68012F05D0C2
:100C0000022F03D0112F01D0122F13D1D0F808805A
:100C1000CF6828EA0508B74047EA08078760D0F898
:100C200004800F7928EA0408C7F300179F4047EAB9
:100C300008074760D1F804806FEA0807BF0706D1AC
:100C4000C76AA743C8F3C0049C403C43C462C4685D
:100C5000AC438D68B5402543C5604C68E4005ED563
:100C6000344C256E45F001052566246E23F00305FE
:100C700004F001040094304C2E19B4689D072F0F26
:100C800009FA07F5AC43B0F1904F05D02B4DA842BF
:100C900004D101251CE042E0002519E0284DA842BE
:100CA00001D1022514E0274DA84201D103250FE010
:100CB000254DA84201D104250AE0244DA84201D1C6
:100CC000052505E0224DA84201D1062500E00725B3
:100CD000BD402543B560DBF800405D464E68944357
:100CE000F60300D514432C60DEF8004075464E68CC
:100CF0009443B60300D514432C600D4D08352C6881
:100D00004E689443F60200D514432C60084D0C3510
:100D10002C684E689443B60200D514432C605B1CCB
:100D20000A6832FA03F57FF441AFBDE8F88F00009E
:100D3000000401400010024000000140000400488F
:100D400000080048000C004800100048001400484B
:100D50000018004801480068704700002400002087
:100D600002480168491C016070470000240000200F
:100D700010B5032000F088F8002000F005F800F01E
:100D800017F8002010BD000010B5044607484FF4C6
:100D90007A710068B0FBF1F000F0CBFD0022214633
:100DA000501E00F051F8002010BD00002800002067
:100DB0001E4808B5016E41F001010166016E01F0A7
:100DC00001010091816D41F080518165806D00F0DD
:100DD00080500090032000F057F8002211466FF079
:100DE0000B0000F031F8002211466FF00A0000F00D
:100DF0002BF8002211466FF0090000F025F80022C0
:100E00001146501F00F020F800221146101F00F07C
:100E10001BF800221146901E00F016F80022BDE8D3
:100E200008401146501E00F00FB8000000100240AC
:100E300000F01F02012191404009800000F1E020F4
:100E4000C0F8001170470000F0B40E4B1B680C4650
:100E5000C3F30223C3F10705042D00D90425191D8E
:100E6000072901D2002300E0DB1E012606FA05F166
:100E7000491E214099409E40761E16403143F0BCE9
:100E800000F05CBF0CED00E0064900F007020868C6
:100E90004FF6FF03184040EA0220034A104308605F
:100EA000704700000CED00E00000FA051549B0F5B0
:100EB000007F0868C0F3412009D0022805D00868E7
:100EC00020F4C06040F48060086000207047012872
:100ED000FBD0086820F4C06040F4007008600A4845
:100EE0000A4A0068B0FBF2F03222504300E0401E94
:100EF00010B14A695205FAD448694005E5D5032086
:100F000070470000007000402800002040420F00A1
:100F10000248006800F4C0607047000000700040A4
:100F20002DE9F84F044600270088E54D3E460105AF
:100F300004F1200B1DD5606E78B1B0F5800F11D093
:100F4000B0F5000F04D0B0F5400F22D001270FE01C
:100F5000E86840F48030E8601BE00021201D00F0CC
:100F6000FDFE03E00021584600F08EFF070010D080
:100F70003E462088C00426D5A06EC0B1B0F1807F67
:100F80001AD0B0F1007F0DD0B0F1407F19D0012709
:100F900018E0D5F88800616E20F440000843C5F8D9
:100FA0008800E6E7E86840F48030E86009E0002166
:100FB000201D00F0D3FE03E00021584600F064FF3E
:100FC0000746F7B13E46206880033AD5A86D4FF03A
:100FD0000008C00009D4A86D40F08050A865A86D35
:100FE0004FF0010800F080500090DFF8D8A2DAF846
:100FF000001041F48071CAF80010FFF7ABFE814683
:1010000010E0D5F88800A16E20F040700843C5F8C4
:101010008800D8E7FFF79EFEA0EB0900022801D95F
:10102000032705E0DAF80000C005F3D5002F7CD0D7
:101030004FEA0706B8F1000F03D0A86D20F08050EA
:10104000A8652078C00707D0D5F88800A16B20F0EC
:1010500003000843C5F888002078800707D5D5F835
:101060008800E16B20F00C000843C5F88800207868
:10107000400707D5D5F88800216C20F030000843E0
:10108000C5F888002078000707D5D5F88800616C7E
:1010900020F0C0000843C5F888002078C00607D5B6
:1010A000D5F88800A16C20F440700843C5F888008A
:1010B0002078800607D5D5F88800E16C20F44060E0
:1010C0000843C5F888002088800507D5D5F8880032
:1010D000E16D20F440200843C5F8880020884005D1
:1010E00007D5D5F88800216E20F440100843C5F8D4
:1010F00088002078400607D5D5F88800216D20F4B7
:1011000040500843C5F888002078000607D5D5F878
:101110008800616D20F440400843C5F888002088AD
:10112000C00509D5D5F8880000E01CE0A16D20F4C9
:1011300040300843C5F8880020884FF000678004DD
:101140004FF080684FD5D5F88800E16E20F0406000
:101150000843C5F88800E06EB8423CD1E86840F426
:101160008010E8603FE0D5F8900010F4407015D092
:10117000D4F88410814211D0D5F89000D5F89010A1
:1011800020F4407041F48031C5F89010D5F89010EB
:1011900021F48031C5F89010C5F89000C00710D038
:1011A000FFF7D8FD074641F2883906E0FFF7D2FD88
:1011B000C11B494501D903263CE7D5F890008007BB
:1011C000F4D5D5F89000D4F8841020F4407008438A
:1011D000C5F890002EE7404505D10121201D00F003
:1011E000BDFD00B106462068000317D5D5F888007C
:1011F000216F20F040600843C5F88800206FB84296
:1012000004D1E86840F48010E86007E0404505D16B
:101210000121201D00F0A2FD00B106462068400318
:1012200017D5D5F88800616F20F040600843C5F8F5
:101230008800606FB84204D1E86840F48010E8602C
:1012400007E0404505D10121201D00F087FD00B1D8
:101250000646208840041AD5D5F88800A16F20F0F2
:1012600040500843C5F88800A06FB0F1805F03D0FC
:10127000B0F1005F05D00AE00221201D00F06EFDF4
:1012800003E00221584600F0FFFD00B10646208829
:10129000000407D5D5F88800E16F20F080400843AE
:1012A000C5F888002068C00307D555F8880FD4F822
:1012B000801020F00040084328603046BDE8F88FD9
:1012C00000100240007000402DE9F0470F46050075
:1012D00058D03E4E306800F00700B84209D230685E
:1012E00020F0070038433060306800F00700B84253
:1012F00048D12878364CC0072CD06868032811D014
:10130000022812D0216898B1490500293ADAA1686B
:1013100021F003010143A160FFF71CFD804641F26B
:10132000883910E021688901EFE721688903ECE73B
:101330008907EAE7FFF70EFDA0EB0801494502D94E
:101340000320BDE8F087A068696800F00C00B0EBEE
:10135000810FEFD12878800705D5A068A96820F013
:10136000F0000843A060306800F00700B8420BD9D5
:10137000306820F0070038433060306800F0070024
:10138000B84201D00120DCE72878400705D5A068E5
:10139000E96820F4E0600843A0602878000706D5DB
:1013A000A068296920F4605040EAC100A06000F004
:1013B0001BF8A168074AC1F30311515CC8400649F4
:1013C00008600020FFF7E0FC0020BAE700200240A0
:1013D0000010024010230008280000200148006887
:1013E000704700002800002030B52D490023184622
:1013F0008A682C4C12F00C0F4FEA640514D08A68EE
:10140000C2F38102032A04D1CA6802F00302012A4E
:101410000AD08A68C2F38102012A19D08A68C2F30D
:101420008102022A16D016E00A68120704D4D1F805
:101430009420C2F3032202E00A68C2F303121A4B9B
:1014400053F822308A6812F00C0F04D1184602E0DB
:10145000204600E028468A68C2F38102032A1DD193
:10146000C868CA6800F00300C2F30212521C0228C6
:1014700004D0032805D0B3FBF2F004E0B4FBF2F093
:1014800001E0B5FBF2F0CA68C968C2F30622504316
:10149000C1F34161491C4900B0FBF1F030BD0000CF
:1014A000001002400024F400202300082DE9F84336
:1014B00004007DD02078FF4DC0065DD5A86810F0EF
:1014C0000C0F0AD0A0690028286873D040F00100F2
:1014D0002860FFF73FFC064655E02868800702D5E4
:1014E000A0690028E5D0216A2868000703D528688C
:1014F00000F0F00004E0D5F89400F02202EA1010A9
:10150000814216D9084600F043FD002850D12868D2
:1015100040F0080028602868216A20F0F0000843A5
:1015200028606868E16920F47F4040EA0120686033
:1015300015E0286840F0080028602868216A20F03B
:10154000F000084328606868E16920F47F4040EAC1
:1015500001206860206A00F01BFD0028D6D1FFF74B
:1015600043FFA968D44AC1F30311515CC840D34971
:1015700008600020FFF708FC2CE000BFFFF7EAFB43
:10158000801B02287ED828688007F7D5286840F09D
:10159000080028602868216A20F0F00008432860CD
:1015A0006868E16920F47F4040EA0120686011E04A
:1015B000B2E0FFE720F001002860FFF7CBFB064612
:1015C00005E000BFFFF7C6FB801B0228DAD82868B9
:1015D0008007F7D42078C00748D0A868C0F38100FE
:1015E00002281DD0A868C0F38100032803D1E86851
:1015F000C043800714D06068B0F5803F17D0B0F5C5
:10160000A02F286817D020F480302860286820F4A4
:10161000802028606068E0B1FFF79CFB064614E07C
:101620002868800322D56068002875D01EE02868ED
:1016300040F48030EDE740F480202860F7E700BFF9
:10164000FFF788FB801B64289CD828688003F7D5A7
:101650000CE0FFF77FFB064605E000BFFFF77AFBD3
:10166000801B64288ED828688003F7D420788007F0
:1016700042D5A868C0F38100012816D0A868C0F33D
:10168000810000E0A9E0032804D1E86800F003002D
:1016900002280AD0E068002828681DD040F4807035
:1016A0002860FFF757FB06460BE0286840050BD57E
:1016B000E0680028B9D007E0FFF74CFB801B022848
:1016C00084D828684005F7D56868217C20F0F85058
:1016D00040EA016068600FE020F480702860FFF746
:1016E00039FB064605E000BFFFF734FB801B0228EC
:1016F00073D828684005F7D42078000729D5606999
:101700000028D5F8940013D040F00100C5F89400EB
:10171000FFF720FB064606E0FBE000BFFFF71AFBE1
:10172000801B022859D8D5F894008007F6D510E020
:1017300020F00100C5F89400FFF70CFB064604E01A
:10174000FFF708FB801B022847D8D5F894008007D4
:10175000F6D42078400763D5A86D0026C00008D4D1
:10176000A86D40F08050A865A86D012600F080505B
:10177000009053480168C90511D40168804641F4BE
:1017800080710160FFF7E6FA074604E0FFF7E2FA2E
:10179000C01B022821D8D8F80000C005F6D5A068E3
:1017A000012815D00528D5F8900017D020F00100A9
:1017B000C5F89000D5F8900020F00400C5F890001E
:1017C000A06841F28838C8B1FFF7C4FA074610E0B4
:1017D000D5F8900040F00100F0E777E040F0040019
:1017E000C5F89000F4E700BFFFF7B4FAC11B41450C
:1017F0006CD8D5F890008007F6D50CE0FFF7AAFA70
:10180000074604E0FFF7A6FAC11B414579D8D5F891
:1018100090008007F6D41EB1A86D20F08050A86516
:10182000A06AE0B3A968C1F38101032972D002283C
:10183000286820F08070286011D02868000106D444
:101840002868800003D4E86820F00300E860E868B6
:101850001C490840E860FFF77DFA044654E0FFF7B2
:1018600079FA064605E000BFFFF774FA801B0228EC
:1018700047D828688001F7D4206BE16A000110384E
:101880000843616BA26B0902120941EA4241084315
:10189000A18F0D4A490802EB4151084300E036E0B0
:1018A00094F840104908120102EB41610843E860D6
:1018B00028680CE0001002401023000828000020D7
:1018C00000700040FFFFEEFE0000E0FF19E040F076
:1018D00080702860E86840F08070E860FFF73AFAAE
:1018E000044604E0FFF736FA001B022809D82868EE
:1018F0008001F7D50BE000BFFFF72CFA001B022890
:1019000002D90320BDE8F88328688001F4D40020C0
:10191000F8E7FFE70120F5E74FF0E0210428086928
:1019200003D020F004000861704740F00400FAE79B
:10193000704710B5401EB0F1807F01D3012010BD6B
:101940004FF0E02460610F21601700F0F7F90020EC
:10195000A06107202061002010BD10B5FFF7E8FF4F
:1019600010BD70477047704770B590F83C20012A51
:1019700024D0012480F83C40022280F83D200268F7
:10198000536895680E4EB24202D00E4EB24203D159
:1019900023F470064B68334323F070060B688968A4
:1019A000334325F08005294353600268916080F835
:1019B0003D40002180F83C10084670BD022070BDFB
:1019C000002C01400034014010B5040003D094F80D
:1019D0003D0010B107E0012010BD002084F83C005C
:1019E000204600F00DF8022084F83D00211D2068FB
:1019F00000F0C2FB012084F83D00002010BD000073
:101A000008B500680B49884212D10B48816D41F03E
:101A100010018165806D002200F0100000901146D9
:101A20003620FFF711FABDE808403620FFF700BA6C
:101A300008BD00000010004000100240704770B563
:101A40000446006801694FF00005C943890715D4B1
:101A5000C168C943890711D4E91E016101202077BB
:101A6000206880698007204602D0FFF7E7FF04E086
:101A700000F0A7F8204600F0A5F825772068016956
:101A8000C943490717D4C168C943490713D46FF044
:101A900004010161022020772068806910F4407FF2
:101AA000204602D0FFF7CAFF04E000F08AF8204683
:101AB00000F088F8257720680169C943090716D422
:101AC000C168C943090712D46FF0080101610420FD
:101AD00020772068C0698007204602D0FFF7AEFF5C
:101AE00004E000F06EF8204600F06CF825772068DE
:101AF0000169C943C90617D4C168C943C90613D4CB
:101B00006FF010010161082020772068C06910F48F
:101B1000407F204602D0FFF791FF04E000F051F82B
:101B2000204600F04FF8257720680169C943C907AE
:101B300008D1C168C943C90704D1891E0161204683
:101B400000F041F820680169C943090609D4C16859
:101B5000C943090605D46FF0800101612046FFF7F3
:101B600001FF20680169C943C90509D4C168C94397
:101B7000090605D46FF4807101612046FFF7F1FE7C
:101B800020680169C943490609D4C168C9434906A7
:101B900005D46FF040010161204600F015F820687F
:101BA0000169C94389060BD4C168C943890607D4B2
:101BB0006FF0200101612046BDE87040FFF7D3BE01
:101BC00070BD7047704770477047000010B51149ED
:101BD0008AB00F4808600846FEF72FFC00B1FEE708
:101BE0000024009401940294039422466946094813
:101BF0000494FEF795FB00B1FEE710226946054804
:101C00000394FEF78DFB002800D0FEE70AB010BD5C
:101C1000007400402C0000202DE9F047344833497F
:101C20000025C0E90015012404724472CE057D2709
:101C3000C661C0E90874FEF74FFD00B1FEE72C480D
:101C40002A4954308031C0E9001504724472C661DB
:101C5000C0E90874FEF740FD00B1FEE723492448BF
:101C6000E039A8304E06016004714FF01409866017
:101C7000C0E903958915C0E905514FF0040A456292
:101C8000C0E9074A00F128011A4F4FF0080881E81F
:101C90009001FEF747FC00B1FEE715481349E0301C
:101CA000C039016004718660C0E9039545618561B2
:101CB000C0E9075A00F12801456281E89001FEF76A
:101CC00031FC00B1FEE701220B490948FEF7DEFCBA
:101CD00000B1FEE70648012208495430FEF7D6FC61
:101CE000002800D0FEE7BDE8F08700000061014059
:101CF0004000002001F0FFFF02000100040002008C
:101D00003EB50D480B49002401606421C0E901146F
:101D1000C9008461C160FFF757FE00B1FEE700947F
:101D2000694605480294FFF71FFE002800D0FEE731
:101D30003EBD000000100040580100200907090EB8
:101D4000002806DA00F00F0000F1E02080F8141DF2
:101D5000704700F1E02080F8001470472DE9F04151
:101D6000444C05468846E0680026810728680DD067
:101D7000E16801F00301814216D1A8B1E068696809
:101D8000C0F30210401C88420ED120E0012804D08C
:101D9000022805D0032807D108E02168890701E05F
:101DA00021684905002907DB01265FE021688903D6
:101DB00002D421684903F5E7E1686A686FF00F0310
:101DC00021F0730103EB021211430143E16020682B
:101DD00020F080602060FEF7BDFF074605E000BFF1
:101DE000FEF7B8FFC01B022837D820680001F7D4DF
:101DF000B8F1000F18D0B8F1010F1ED0287D4FF0B8
:101E00007E41400801EB4060A96840EA0120216959
:101E1000194A114008432061206840F0806020602A
:101E2000FEF798FF07461AE0A868E968000209096A
:101E300040EA41402169114AEBE7288A10494008ED
:101E400001EB4050A96840EA012021690D4AE0E712
:101E5000FEF780FFC01B022801D9032606E0206898
:101E60000001F5D52069A969084320613046BDE825
:101E7000F081000000100240FF80FFF9FF80FDFFAD
:101E80000000E0FFFF809FFF2DE9F0413D4C06463A
:101E90008846E0680025810730680DD0E16801F0D0
:101EA0000301814216D1A8B1E0687168C0F3021045
:101EB000401C88420ED120E0012804D0022805D021
:101EC000032807D108E02168890701E02168490556
:101ED000002907DB012551E02168890302D421682C
:101EE0004903F5E7E16872686FF00F0321F07301B1
:101EF00003EB021211430143E160206820F080509F
:101F00002060FEF727FF074605E000BFFEF722FF2F
:101F1000C01B022829D820688000F7D4B8F1000F30
:101F200015D0307C4FF07E41400801EB4060B16835
:101F300040EA01206169144A114008436061206849
:101F400040F080502060FEF705FF07460FE0B068C4
:101F5000F1680002090940EA414061690B4AEBE778
:101F6000FEF7F8FEC01B022801D9032506E0206811
:101F70008000F5D560697169084360612846BDE855
:101F8000F081000000100240FF80FFF9FF80FDFF9C
:101F9000F8B51C4D06460024A86DC00002D5FEF71A
:101FA000B7FF0DE0A86D40F08050A865A86D00F067
:101FB00080500090FEF7ACFFA96D21F08051A9651B
:101FC000B0F5007F04D0802E07D94FF003040AE05B
:101FD000802E08D9A02E01D804E001D1022402E00D
:101FE000702E00D101240848016821F00701214327
:101FF0000160006800F00700A04201D00120F8BD98
:102000000020F8BD001002400020024010B5FEF78D
:10201000A7FEFFF7A2FC02490120886010BD000066
:1020200004000020F0B5B9B0102001250024229052
:10203000CDE9285402266020CDE92C652A9028207D
:102040000727CDE92E50CDE93076329622A8FFF74A
:102050002DFA00B1FEE70F2033900320CDE93404C0
:102060003694042133A83794FFF72EF900B1FEE728
:102070004FF484301994CDE9000520944620CDE931
:1020800002504FF48030CDE90660CDE90476684611
:10209000FEF746FF00B1FEE74FF40070FEF706FFC3
:1020A00000B1FEE7FFF79AF94FF47A71B0FBF1F057
:1020B000FFF73FFC0420FFF72FFC00221146501EC3
:1020C000FEF7C2FE39B0F0BD0D48016841F4700161
:1020D00001600C48016841F001010160002181604C
:1020E0000268094B1A4002608214C260026822F43E
:1020F0008022026081610249C00380390860704714
:1021000088ED00E000100240FFFFF6EA10B5144829
:10211000FFF795FC13480078002820D0124CD4E932
:10212000001090FBF1F201FB12001049002251F85F
:102130002000114603130E482361FEF7BBF9D4E9D2
:10214000001008400B49002251F820001021031311
:102150000748E360FEF7AEF96068401C606010BDA0
:10216000580100200000002004000020D89D00201D
:102170002C000020980100202DE9F0470268264B32
:10218000264D274E274F284C4FF0804A984209D0C1
:10219000504507D0A84205D0B04203D0B84201D084
:1021A000A04204D122F0700C4A6842EA0C02DFF827
:1021B0007CC0DFF87C80DFF87C9098420FD05045DF
:1021C0000DD0A8420BD0B04209D0B84207D0A042EF
:1021D00005D0604503D0404501D0484503D122F4E5
:1021E0004075CA682A434D6922F080022A43026082
:1021F0008A68C2620A688262984207D0A04205D00B
:10220000604503D0404501D0484501D109690163CB
:1022100001214161BDE8F087002C0140000400402D
:1022200000080040000C0040003401400040014024
:102230000044014000480140FEE702E008C8121FC8
:1022400008C1002AFAD170477047002001E001C19F
:10225000121F002AFBD1704708B5FEF789FDFFF772
:10226000E1FE2748C16C41F00401C164C16C01F07A
:1022700004010091C16C41F00101C164C16C01F025
:1022800001010091C16C41F01001C164C16C01F009
:1022900010010091816C41F001018164806C002289
:1022A00000F00100009011460E20FEF7CDFD0E203B
:1022B000FEF7BEFD002211460F20FEF7C5FD0F20E0
:1022C000FEF7B6FDFFF7A8FCFFF780FCFFF718FD4F
:1022D00000210C48FEF7FBF810210A48FEF7F7F83A
:1022E000084842F21074224607491430FEF708FBF2
:1022F00006492246A1F58270FEF702FBFEE70000C8
:10230000001002402C000020D89D002098010020E1
:102310000000000000000000010203040607080995
:10232000A0860100400D0300801A060000350C0055
:1023300040420F0080841E0000093D0000127A0018
:102340000024F40000366E010048E801006CDC0255
:1023500070230008000000202C0000003A22000832
:102360009C2300082C0000209C3E01004A2200080B
:102370000000000010270000000000000000000026
:10238000000000000000000000000000000000004D
:0C239000000000000000000000093D00FB
:040000050800018965
:00000001FF
